{"contracts/GameReward.sol":{"GameReward":{"abi":[{"inputs":[{"internalType":"address","name":"diamondToken","type":"address"}],"stateMutability":"nonpayable","type":"constructor"},{"inputs":[],"name":"InvalidRank","type":"error"},{"inputs":[],"name":"ReentrancyGuardReentrantCall","type":"error"},{"inputs":[{"internalType":"address","name":"token","type":"address"}],"name":"SafeERC20FailedOperation","type":"error"},{"anonymous":false,"inputs":[{"indexed":true,"internalType":"address","name":"player","type":"address"},{"indexed":true,"internalType":"uint8","name":"rank","type":"uint8"},{"indexed":false,"internalType":"uint256","name":"amount","type":"uint256"}],"name":"RewardClaimed","type":"event"},{"inputs":[{"internalType":"uint8","name":"rank","type":"uint8"}],"name":"claimReward","outputs":[],"stateMutability":"nonpayable","type":"function"},{"inputs":[],"name":"contractDiamondBalance","outputs":[{"internalType":"uint256","name":"","type":"uint256"}],"stateMutability":"view","type":"function"},{"inputs":[],"name":"diamond","outputs":[{"internalType":"contract IERC20","name":"","type":"address"}],"stateMutability":"view","type":"function"},{"inputs":[],"name":"diamondDecimals","outputs":[{"internalType":"uint8","name":"","type":"uint8"}],"stateMutability":"view","type":"function"}],"evm":{"bytecode":{"linkReferences":{},"object":"60e060405234801561001057600080fd5b506040516106fb3803806106fb83398101604081905261002f91610132565b60016000556001600160a01b03811661008e5760405162461bcd60e51b815260206004820152601560248201527f4469616d6f6e6420746f6b656e206973207a65726f0000000000000000000000604482015260640160405180910390fd5b806001600160a01b03166080816001600160a01b0316815250506000816001600160a01b031663313ce5676040518163ffffffff1660e01b8152600401602060405180830381865afa925050508015610104575060408051601f3d908101601f1916820190925261010191810190610162565b60015b61011057506012610113565b90505b60ff811660a081905261012790600a610284565b60c052506102909050565b60006020828403121561014457600080fd5b81516001600160a01b038116811461015b57600080fd5b9392505050565b60006020828403121561017457600080fd5b815160ff8116811461015b57600080fd5b634e487b7160e01b600052601160045260246000fd5b6001815b60018411156101d6578085048111156101ba576101ba610185565b60018416156101c857908102905b60019390931c92800261019f565b935093915050565b6000826101ed5750600161027e565b816101fa5750600061027e565b8160018114610210576002811461021a57610236565b600191505061027e565b60ff84111561022b5761022b610185565b50506001821b61027e565b5060208310610133831016604e8410600b8410161715610259575081810a61027e565b610266600019848461019b565b806000190482111561027a5761027a610185565b0290505b92915050565b600061015b83836101de565b60805160a05160c0516104306102cb60003960006101ec01526000608601526000818160bf01528181610111015261022001526104306000f3fe608060405234801561001057600080fd5b506004361061004c5760003560e01c80633b59fce114610051578063689f16231461006c578063a57fe76114610081578063f0b7db4e146100ba575b600080fd5b6100596100f9565b6040519081526020015b60405180910390f35b61007f61007a36600461038c565b610189565b005b6100a87f000000000000000000000000000000000000000000000000000000000000000081565b60405160ff9091168152602001610063565b6100e17f000000000000000000000000000000000000000000000000000000000000000081565b6040516001600160a01b039091168152602001610063565b6040516370a0823160e01b81523060048201526000907f00000000000000000000000000000000000000000000000000000000000000006001600160a01b0316906370a0823190602401602060405180830381865afa158015610160573d6000803e3d6000fd5b505050506040513d601f19601f8201168201806040525081019061018491906103b6565b905090565b610191610290565b60008160ff166001036101a6575060646101e5565b8160ff166002036101b9575060326101e5565b8160ff166003036101cc575060196101e5565b6040516302ba562960e61b815260040160405180910390fd5b60006102117f0000000000000000000000000000000000000000000000000000000000000000836103cf565b90506102476001600160a01b037f00000000000000000000000000000000000000000000000000000000000000001633836102ba565b60405181815260ff84169033907f889047e3a24dbcfa359bc1ed9fefeae51ca3d0e7ec4bc9db63eec5e3095493da9060200160405180910390a3505061028d6001600055565b50565b6002600054036102b357604051633ee5aeb560e01b815260040160405180910390fd5b6002600055565b604080516001600160a01b038416602482015260448082018490528251808303909101815260649091019091526020810180516001600160e01b031663a9059cbb60e01b17905261030c908490610311565b505050565b600080602060008451602086016000885af180610334576040513d6000823e3d81fd5b50506000513d9150811561034c578060011415610359565b6001600160a01b0384163b155b1561038657604051635274afe760e01b81526001600160a01b038516600482015260240160405180910390fd5b50505050565b60006020828403121561039e57600080fd5b813560ff811681146103af57600080fd5b9392505050565b6000602082840312156103c857600080fd5b5051919050565b80820281158282048414176103f457634e487b7160e01b600052601160045260246000fd5b9291505056fea26469706673582212209b9396348e6ab789fd9044a0505f18ac2fc83a7b7e20c79b97371c2c049f068164736f6c634300081c0033","opcodes":"PUSH1 0xE0 PUSH1 0x40 MSTORE CALLVALUE DUP1 ISZERO PUSH2 0x10 JUMPI PUSH1 0x0 DUP1 REVERT JUMPDEST POP PUSH1 0x40 MLOAD PUSH2 0x6FB CODESIZE SUB DUP1 PUSH2 0x6FB DUP4 CODECOPY DUP2 ADD PUSH1 0x40 DUP2 SWAP1 MSTORE PUSH2 0x2F SWAP2 PUSH2 0x132 JUMP JUMPDEST PUSH1 0x1 PUSH1 0x0 SSTORE PUSH1 0x1 PUSH1 0x1 PUSH1 0xA0 SHL SUB DUP2 AND PUSH2 0x8E JUMPI PUSH1 0x40 MLOAD PUSH3 0x461BCD PUSH1 0xE5 SHL DUP2 MSTORE PUSH1 0x20 PUSH1 0x4 DUP3 ADD MSTORE PUSH1 0x15 PUSH1 0x24 DUP3 ADD MSTORE PUSH32 0x4469616D6F6E6420746F6B656E206973207A65726F0000000000000000000000 PUSH1 0x44 DUP3 ADD MSTORE PUSH1 0x64 ADD PUSH1 0x40 MLOAD DUP1 SWAP2 SUB SWAP1 REVERT JUMPDEST DUP1 PUSH1 0x1 PUSH1 0x1 PUSH1 0xA0 SHL SUB AND PUSH1 0x80 DUP2 PUSH1 0x1 PUSH1 0x1 PUSH1 0xA0 SHL SUB AND DUP2 MSTORE POP POP PUSH1 0x0 DUP2 PUSH1 0x1 PUSH1 0x1 PUSH1 0xA0 SHL SUB AND PUSH4 0x313CE567 PUSH1 0x40 MLOAD DUP2 PUSH4 0xFFFFFFFF AND PUSH1 0xE0 SHL DUP2 MSTORE PUSH1 0x4 ADD PUSH1 0x20 PUSH1 0x40 MLOAD DUP1 DUP4 SUB DUP2 DUP7 GAS STATICCALL SWAP3 POP POP POP DUP1 ISZERO PUSH2 0x104 JUMPI POP PUSH1 0x40 DUP1 MLOAD PUSH1 0x1F RETURNDATASIZE SWAP1 DUP2 ADD PUSH1 0x1F NOT AND DUP3 ADD SWAP1 SWAP3 MSTORE PUSH2 0x101 SWAP2 DUP2 ADD SWAP1 PUSH2 0x162 JUMP JUMPDEST PUSH1 0x1 JUMPDEST PUSH2 0x110 JUMPI POP PUSH1 0x12 PUSH2 0x113 JUMP JUMPDEST SWAP1 POP JUMPDEST PUSH1 0xFF DUP2 AND PUSH1 0xA0 DUP2 SWAP1 MSTORE PUSH2 0x127 SWAP1 PUSH1 0xA PUSH2 0x284 JUMP JUMPDEST PUSH1 0xC0 MSTORE POP PUSH2 0x290 SWAP1 POP JUMP JUMPDEST PUSH1 0x0 PUSH1 0x20 DUP3 DUP5 SUB SLT ISZERO PUSH2 0x144 JUMPI PUSH1 0x0 DUP1 REVERT JUMPDEST DUP2 MLOAD PUSH1 0x1 PUSH1 0x1 PUSH1 0xA0 SHL SUB DUP2 AND DUP2 EQ PUSH2 0x15B JUMPI PUSH1 0x0 DUP1 REVERT JUMPDEST SWAP4 SWAP3 POP POP POP JUMP JUMPDEST PUSH1 0x0 PUSH1 0x20 DUP3 DUP5 SUB SLT ISZERO PUSH2 0x174 JUMPI PUSH1 0x0 DUP1 REVERT JUMPDEST DUP2 MLOAD PUSH1 0xFF DUP2 AND DUP2 EQ PUSH2 0x15B JUMPI PUSH1 0x0 DUP1 REVERT JUMPDEST PUSH4 0x4E487B71 PUSH1 0xE0 SHL PUSH1 0x0 MSTORE PUSH1 0x11 PUSH1 0x4 MSTORE PUSH1 0x24 PUSH1 0x0 REVERT JUMPDEST PUSH1 0x1 DUP2 JUMPDEST PUSH1 0x1 DUP5 GT ISZERO PUSH2 0x1D6 JUMPI DUP1 DUP6 DIV DUP2 GT ISZERO PUSH2 0x1BA JUMPI PUSH2 0x1BA PUSH2 0x185 JUMP JUMPDEST PUSH1 0x1 DUP5 AND ISZERO PUSH2 0x1C8 JUMPI SWAP1 DUP2 MUL SWAP1 JUMPDEST PUSH1 0x1 SWAP4 SWAP1 SWAP4 SHR SWAP3 DUP1 MUL PUSH2 0x19F JUMP JUMPDEST SWAP4 POP SWAP4 SWAP2 POP POP JUMP JUMPDEST PUSH1 0x0 DUP3 PUSH2 0x1ED JUMPI POP PUSH1 0x1 PUSH2 0x27E JUMP JUMPDEST DUP2 PUSH2 0x1FA JUMPI POP PUSH1 0x0 PUSH2 0x27E JUMP JUMPDEST DUP2 PUSH1 0x1 DUP2 EQ PUSH2 0x210 JUMPI PUSH1 0x2 DUP2 EQ PUSH2 0x21A JUMPI PUSH2 0x236 JUMP JUMPDEST PUSH1 0x1 SWAP2 POP POP PUSH2 0x27E JUMP JUMPDEST PUSH1 0xFF DUP5 GT ISZERO PUSH2 0x22B JUMPI PUSH2 0x22B PUSH2 0x185 JUMP JUMPDEST POP POP PUSH1 0x1 DUP3 SHL PUSH2 0x27E JUMP JUMPDEST POP PUSH1 0x20 DUP4 LT PUSH2 0x133 DUP4 LT AND PUSH1 0x4E DUP5 LT PUSH1 0xB DUP5 LT AND OR ISZERO PUSH2 0x259 JUMPI POP DUP2 DUP2 EXP PUSH2 0x27E JUMP JUMPDEST PUSH2 0x266 PUSH1 0x0 NOT DUP5 DUP5 PUSH2 0x19B JUMP JUMPDEST DUP1 PUSH1 0x0 NOT DIV DUP3 GT ISZERO PUSH2 0x27A JUMPI PUSH2 0x27A PUSH2 0x185 JUMP JUMPDEST MUL SWAP1 POP JUMPDEST SWAP3 SWAP2 POP POP JUMP JUMPDEST PUSH1 0x0 PUSH2 0x15B DUP4 DUP4 PUSH2 0x1DE JUMP JUMPDEST PUSH1 0x80 MLOAD PUSH1 0xA0 MLOAD PUSH1 0xC0 MLOAD PUSH2 0x430 PUSH2 0x2CB PUSH1 0x0 CODECOPY PUSH1 0x0 PUSH2 0x1EC ADD MSTORE PUSH1 0x0 PUSH1 0x86 ADD MSTORE PUSH1 0x0 DUP2 DUP2 PUSH1 0xBF ADD MSTORE DUP2 DUP2 PUSH2 0x111 ADD MSTORE PUSH2 0x220 ADD MSTORE PUSH2 0x430 PUSH1 0x0 RETURN INVALID PUSH1 0x80 PUSH1 0x40 MSTORE CALLVALUE DUP1 ISZERO PUSH2 0x10 JUMPI PUSH1 0x0 DUP1 REVERT JUMPDEST POP PUSH1 0x4 CALLDATASIZE LT PUSH2 0x4C JUMPI PUSH1 0x0 CALLDATALOAD PUSH1 0xE0 SHR DUP1 PUSH4 0x3B59FCE1 EQ PUSH2 0x51 JUMPI DUP1 PUSH4 0x689F1623 EQ PUSH2 0x6C JUMPI DUP1 PUSH4 0xA57FE761 EQ PUSH2 0x81 JUMPI DUP1 PUSH4 0xF0B7DB4E EQ PUSH2 0xBA JUMPI JUMPDEST PUSH1 0x0 DUP1 REVERT JUMPDEST PUSH2 0x59 PUSH2 0xF9 JUMP JUMPDEST PUSH1 0x40 MLOAD SWAP1 DUP2 MSTORE PUSH1 0x20 ADD JUMPDEST PUSH1 0x40 MLOAD DUP1 SWAP2 SUB SWAP1 RETURN JUMPDEST PUSH2 0x7F PUSH2 0x7A CALLDATASIZE PUSH1 0x4 PUSH2 0x38C JUMP JUMPDEST PUSH2 0x189 JUMP JUMPDEST STOP JUMPDEST PUSH2 0xA8 PUSH32 0x0 DUP2 JUMP JUMPDEST PUSH1 0x40 MLOAD PUSH1 0xFF SWAP1 SWAP2 AND DUP2 MSTORE PUSH1 0x20 ADD PUSH2 0x63 JUMP JUMPDEST PUSH2 0xE1 PUSH32 0x0 DUP2 JUMP JUMPDEST PUSH1 0x40 MLOAD PUSH1 0x1 PUSH1 0x1 PUSH1 0xA0 SHL SUB SWAP1 SWAP2 AND DUP2 MSTORE PUSH1 0x20 ADD PUSH2 0x63 JUMP JUMPDEST PUSH1 0x40 MLOAD PUSH4 0x70A08231 PUSH1 0xE0 SHL DUP2 MSTORE ADDRESS PUSH1 0x4 DUP3 ADD MSTORE PUSH1 0x0 SWAP1 PUSH32 0x0 PUSH1 0x1 PUSH1 0x1 PUSH1 0xA0 SHL SUB AND SWAP1 PUSH4 0x70A08231 SWAP1 PUSH1 0x24 ADD PUSH1 0x20 PUSH1 0x40 MLOAD DUP1 DUP4 SUB DUP2 DUP7 GAS STATICCALL ISZERO DUP1 ISZERO PUSH2 0x160 JUMPI RETURNDATASIZE PUSH1 0x0 DUP1 RETURNDATACOPY RETURNDATASIZE PUSH1 0x0 REVERT JUMPDEST POP POP POP POP PUSH1 0x40 MLOAD RETURNDATASIZE PUSH1 0x1F NOT PUSH1 0x1F DUP3 ADD AND DUP3 ADD DUP1 PUSH1 0x40 MSTORE POP DUP2 ADD SWAP1 PUSH2 0x184 SWAP2 SWAP1 PUSH2 0x3B6 JUMP JUMPDEST SWAP1 POP SWAP1 JUMP JUMPDEST PUSH2 0x191 PUSH2 0x290 JUMP JUMPDEST PUSH1 0x0 DUP2 PUSH1 0xFF AND PUSH1 0x1 SUB PUSH2 0x1A6 JUMPI POP PUSH1 0x64 PUSH2 0x1E5 JUMP JUMPDEST DUP2 PUSH1 0xFF AND PUSH1 0x2 SUB PUSH2 0x1B9 JUMPI POP PUSH1 0x32 PUSH2 0x1E5 JUMP JUMPDEST DUP2 PUSH1 0xFF AND PUSH1 0x3 SUB PUSH2 0x1CC JUMPI POP PUSH1 0x19 PUSH2 0x1E5 JUMP JUMPDEST PUSH1 0x40 MLOAD PUSH4 0x2BA5629 PUSH1 0xE6 SHL DUP2 MSTORE PUSH1 0x4 ADD PUSH1 0x40 MLOAD DUP1 SWAP2 SUB SWAP1 REVERT JUMPDEST PUSH1 0x0 PUSH2 0x211 PUSH32 0x0 DUP4 PUSH2 0x3CF JUMP JUMPDEST SWAP1 POP PUSH2 0x247 PUSH1 0x1 PUSH1 0x1 PUSH1 0xA0 SHL SUB PUSH32 0x0 AND CALLER DUP4 PUSH2 0x2BA JUMP JUMPDEST PUSH1 0x40 MLOAD DUP2 DUP2 MSTORE PUSH1 0xFF DUP5 AND SWAP1 CALLER SWAP1 PUSH32 0x889047E3A24DBCFA359BC1ED9FEFEAE51CA3D0E7EC4BC9DB63EEC5E3095493DA SWAP1 PUSH1 0x20 ADD PUSH1 0x40 MLOAD DUP1 SWAP2 SUB SWAP1 LOG3 POP POP PUSH2 0x28D PUSH1 0x1 PUSH1 0x0 SSTORE JUMP JUMPDEST POP JUMP JUMPDEST PUSH1 0x2 PUSH1 0x0 SLOAD SUB PUSH2 0x2B3 JUMPI PUSH1 0x40 MLOAD PUSH4 0x3EE5AEB5 PUSH1 0xE0 SHL DUP2 MSTORE PUSH1 0x4 ADD PUSH1 0x40 MLOAD DUP1 SWAP2 SUB SWAP1 REVERT JUMPDEST PUSH1 0x2 PUSH1 0x0 SSTORE JUMP JUMPDEST PUSH1 0x40 DUP1 MLOAD PUSH1 0x1 PUSH1 0x1 PUSH1 0xA0 SHL SUB DUP5 AND PUSH1 0x24 DUP3 ADD MSTORE PUSH1 0x44 DUP1 DUP3 ADD DUP5 SWAP1 MSTORE DUP3 MLOAD DUP1 DUP4 SUB SWAP1 SWAP2 ADD DUP2 MSTORE PUSH1 0x64 SWAP1 SWAP2 ADD SWAP1 SWAP2 MSTORE PUSH1 0x20 DUP2 ADD DUP1 MLOAD PUSH1 0x1 PUSH1 0x1 PUSH1 0xE0 SHL SUB AND PUSH4 0xA9059CBB PUSH1 0xE0 SHL OR SWAP1 MSTORE PUSH2 0x30C SWAP1 DUP5 SWAP1 PUSH2 0x311 JUMP JUMPDEST POP POP POP JUMP JUMPDEST PUSH1 0x0 DUP1 PUSH1 0x20 PUSH1 0x0 DUP5 MLOAD PUSH1 0x20 DUP7 ADD PUSH1 0x0 DUP9 GAS CALL DUP1 PUSH2 0x334 JUMPI PUSH1 0x40 MLOAD RETURNDATASIZE PUSH1 0x0 DUP3 RETURNDATACOPY RETURNDATASIZE DUP2 REVERT JUMPDEST POP POP PUSH1 0x0 MLOAD RETURNDATASIZE SWAP2 POP DUP2 ISZERO PUSH2 0x34C JUMPI DUP1 PUSH1 0x1 EQ ISZERO PUSH2 0x359 JUMP JUMPDEST PUSH1 0x1 PUSH1 0x1 PUSH1 0xA0 SHL SUB DUP5 AND EXTCODESIZE ISZERO JUMPDEST ISZERO PUSH2 0x386 JUMPI PUSH1 0x40 MLOAD PUSH4 0x5274AFE7 PUSH1 0xE0 SHL DUP2 MSTORE PUSH1 0x1 PUSH1 0x1 PUSH1 0xA0 SHL SUB DUP6 AND PUSH1 0x4 DUP3 ADD MSTORE PUSH1 0x24 ADD PUSH1 0x40 MLOAD DUP1 SWAP2 SUB SWAP1 REVERT JUMPDEST POP POP POP POP JUMP JUMPDEST PUSH1 0x0 PUSH1 0x20 DUP3 DUP5 SUB SLT ISZERO PUSH2 0x39E JUMPI PUSH1 0x0 DUP1 REVERT JUMPDEST DUP2 CALLDATALOAD PUSH1 0xFF DUP2 AND DUP2 EQ PUSH2 0x3AF JUMPI PUSH1 0x0 DUP1 REVERT JUMPDEST SWAP4 SWAP3 POP POP POP JUMP JUMPDEST PUSH1 0x0 PUSH1 0x20 DUP3 DUP5 SUB SLT ISZERO PUSH2 0x3C8 JUMPI PUSH1 0x0 DUP1 REVERT JUMPDEST POP MLOAD SWAP2 SWAP1 POP JUMP JUMPDEST DUP1 DUP3 MUL DUP2 ISZERO DUP3 DUP3 DIV DUP5 EQ OR PUSH2 0x3F4 JUMPI PUSH4 0x4E487B71 PUSH1 0xE0 SHL PUSH1 0x0 MSTORE PUSH1 0x11 PUSH1 0x4 MSTORE PUSH1 0x24 PUSH1 0x0 REVERT JUMPDEST SWAP3 SWAP2 POP POP JUMP INVALID LOG2 PUSH5 0x6970667358 0x22 SLT KECCAK256 SWAP12 SWAP4 SWAP7 CALLVALUE DUP15 PUSH11 0xB789FD9044A0505F18AC2F 0xC8 GASPRICE PUSH28 0x7E20C79B97371C2C049F068164736F6C634300081C00330000000000 "},"methodIdentifiers":{"claimReward(uint8)":"689f1623","contractDiamondBalance()":"3b59fce1","diamond()":"f0b7db4e","diamondDecimals()":"a57fe761"}}}}}