{"contracts/GameAssetManager.sol":{"GameAssetManager":{"abi":[{"inputs":[{"internalType":"address","name":"owner_","type":"address"},{"internalType":"address","name":"diamond_","type":"address"},{"internalType":"address","name":"assets_","type":"address"},{"internalType":"address","name":"bank_","type":"address"}],"stateMutability":"nonpayable","type":"constructor"},{"inputs":[{"internalType":"address","name":"owner","type":"address"}],"name":"OwnableInvalidOwner","type":"error"},{"inputs":[{"internalType":"address","name":"account","type":"address"}],"name":"OwnableUnauthorizedAccount","type":"error"},{"inputs":[],"name":"ReentrancyGuardReentrantCall","type":"error"},{"inputs":[],"name":"TransferFail","type":"error"},{"anonymous":false,"inputs":[{"indexed":true,"internalType":"address","name":"user","type":"address"},{"indexed":true,"internalType":"address","name":"nft","type":"address"},{"indexed":true,"internalType":"uint256","name":"tokenId","type":"uint256"},{"indexed":false,"internalType":"bytes32","name":"txId","type":"bytes32"},{"indexed":false,"internalType":"uint256","name":"chainId","type":"uint256"}],"name":"NFTDeposited","type":"event"},{"anonymous":false,"inputs":[{"indexed":true,"internalType":"address","name":"user","type":"address"},{"indexed":true,"internalType":"address","name":"nft","type":"address"},{"indexed":true,"internalType":"uint256","name":"tokenId","type":"uint256"},{"indexed":false,"internalType":"bytes32","name":"txId","type":"bytes32"},{"indexed":false,"internalType":"uint256","name":"chainId","type":"uint256"}],"name":"NFTWithdrawn","type":"event"},{"anonymous":false,"inputs":[{"indexed":true,"internalType":"address","name":"previousOwner","type":"address"},{"indexed":true,"internalType":"address","name":"newOwner","type":"address"}],"name":"OwnershipTransferred","type":"event"},{"anonymous":false,"inputs":[{"indexed":true,"internalType":"address","name":"user","type":"address"},{"indexed":false,"internalType":"uint256","name":"amount","type":"uint256"},{"indexed":false,"internalType":"bytes32","name":"txId","type":"bytes32"},{"indexed":false,"internalType":"uint256","name":"chainId","type":"uint256"}],"name":"TokenDeposited","type":"event"},{"anonymous":false,"inputs":[{"indexed":true,"internalType":"address","name":"user","type":"address"},{"indexed":false,"internalType":"uint256","name":"amount","type":"uint256"},{"indexed":false,"internalType":"bytes32","name":"txId","type":"bytes32"},{"indexed":false,"internalType":"uint256","name":"chainId","type":"uint256"}],"name":"TokenWithdrawn","type":"event"},{"inputs":[],"name":"assetsVault","outputs":[{"internalType":"address","name":"","type":"address"}],"stateMutability":"view","type":"function"},{"inputs":[],"name":"bankVault","outputs":[{"internalType":"address","name":"","type":"address"}],"stateMutability":"view","type":"function"},{"inputs":[],"name":"chainId","outputs":[{"internalType":"uint256","name":"","type":"uint256"}],"stateMutability":"view","type":"function"},{"inputs":[{"internalType":"address","name":"nft","type":"address"},{"internalType":"uint256","name":"tokenId","type":"uint256"},{"internalType":"bytes32","name":"clientRef","type":"bytes32"}],"name":"depositNFT","outputs":[],"stateMutability":"nonpayable","type":"function"},{"inputs":[{"internalType":"uint256","name":"amount","type":"uint256"},{"internalType":"bytes32","name":"clientRef","type":"bytes32"}],"name":"depositToken","outputs":[],"stateMutability":"nonpayable","type":"function"},{"inputs":[],"name":"diamond","outputs":[{"internalType":"address","name":"","type":"address"}],"stateMutability":"view","type":"function"},{"inputs":[],"name":"owner","outputs":[{"internalType":"address","name":"","type":"address"}],"stateMutability":"view","type":"function"},{"inputs":[],"name":"renounceOwnership","outputs":[],"stateMutability":"nonpayable","type":"function"},{"inputs":[{"internalType":"address","name":"newOwner","type":"address"}],"name":"transferOwnership","outputs":[],"stateMutability":"nonpayable","type":"function"},{"inputs":[{"internalType":"address","name":"nft","type":"address"},{"internalType":"uint256","name":"tokenId","type":"uint256"},{"internalType":"bytes32","name":"clientRef","type":"bytes32"}],"name":"withdrawNFT","outputs":[],"stateMutability":"nonpayable","type":"function"},{"inputs":[{"internalType":"uint256","name":"amount","type":"uint256"},{"internalType":"bytes32","name":"clientRef","type":"bytes32"}],"name":"withdrawToken","outputs":[],"stateMutability":"nonpayable","type":"function"}],"evm":{"bytecode":{"linkReferences":{},"object":"61010060405234801561001157600080fd5b50604051610a02380380610a02833981016040819052610030916100fb565b836001600160a01b03811661005f57604051631e4fbdf760e01b81526000600482015260240160405180910390fd5b6100688161008f565b50600180556001600160a01b0392831660805290821660a0521660c052504660e05261014f565b600080546001600160a01b038381166001600160a01b0319831681178455604051919092169283917f8be0079c531659141344cd1fd0a4f28419497f9722a3daafe3b4186f6b6457e09190a35050565b80516001600160a01b03811681146100f657600080fd5b919050565b6000806000806080858703121561011157600080fd5b61011a856100df565b9350610128602086016100df565b9250610136604086016100df565b9150610144606086016100df565b905092959194509250565b60805160a05160c05160e0516108356101cd6000396000818161015f015281816102c1015281816103bd015281816104c3015261060e01526000818161012701528181610257015261054501526000818160bd0152818161034b01526104600152600081816101ba01528181610222015261057401526108356000f3fe608060405234801561001057600080fd5b50600436106100a95760003560e01c80638da5cb5b116100715780638da5cb5b146101495780639a8a05921461015a578063abfc72941461018f578063c1612c44146101a2578063f0b7db4e146101b5578063f2fde38b146101dc57600080fd5b8063715018a6146100ae5780637b0c1f29146100b85780637d34900a146100fc5780638ad435891461010f5780638bad535f14610122575b600080fd5b6100b66101ef565b005b6100df7f000000000000000000000000000000000000000000000000000000000000000081565b6040516001600160a01b0390911681526020015b60405180910390f35b6100b661010a36600461074a565b610203565b6100b661011d366004610788565b610326565b6100df7f000000000000000000000000000000000000000000000000000000000000000081565b6000546001600160a01b03166100df565b6101817f000000000000000000000000000000000000000000000000000000000000000081565b6040519081526020016100f3565b6100b661019d366004610788565b61042c565b6100b66101b036600461074a565b610520565b6100df7f000000000000000000000000000000000000000000000000000000000000000081565b6100b66101ea3660046107bb565b610660565b6101f76106a3565b61020160006106d0565b565b61020b610720565b60405163078d3b7960e01b81526001600160a01b037f000000000000000000000000000000000000000000000000000000000000000081166004830152336024830152604482018490527f0000000000000000000000000000000000000000000000000000000000000000169063078d3b7990606401600060405180830381600087803b15801561029b57600080fd5b505af11580156102af573d6000803e3d6000fd5b505060408051858152602081018590527f0000000000000000000000000000000000000000000000000000000000000000918101919091523392507f5bcfa3bbced9167cbf8823cfcf832f788b1142d9e94f4c52fb006a47988c0e8b91506060015b60405180910390a261032260018055565b5050565b61032e610720565b604051632142170760e11b81523360048201526001600160a01b037f000000000000000000000000000000000000000000000000000000000000000081166024830152604482018490528416906342842e0e90606401600060405180830381600087803b15801561039e57600080fd5b505af11580156103b2573d6000803e3d6000fd5b5050604080518481527f000000000000000000000000000000000000000000000000000000000000000060208201528593506001600160a01b038716925033917fa6eaf8eb5c24d58c4b4e7af90acc93c6e9040b8dcf3a053e766182c3228d72fd91015b60405180910390a461042760018055565b505050565b610434610720565b6040516315f4150160e01b81526001600160a01b038481166004830152602482018490523360448301527f000000000000000000000000000000000000000000000000000000000000000016906315f4150190606401600060405180830381600087803b1580156104a457600080fd5b505af11580156104b8573d6000803e3d6000fd5b5050604080518481527f000000000000000000000000000000000000000000000000000000000000000060208201528593506001600160a01b038716925033917f0b36eca06ad2abcf143437487b73e1c8b2e7ea0c901d826c1978cde8f2b045239101610416565b610528610720565b6040516323b872dd60e01b81523360048201526001600160a01b037f000000000000000000000000000000000000000000000000000000000000000081166024830152604482018490527f000000000000000000000000000000000000000000000000000000000000000016906323b872dd906064016020604051808303816000875af11580156105bd573d6000803e3d6000fd5b505050506040513d601f19601f820116820180604052508101906105e191906107dd565b6105fe57604051632727990760e21b815260040160405180910390fd5b60408051838152602081018390527f00000000000000000000000000000000000000000000000000000000000000009181019190915233907ff0436f9e3859cb24e8faad860f1d2cb4a3b6209b1aae4ab58d2ca538d9278ef690606001610311565b6106686106a3565b6001600160a01b03811661069757604051631e4fbdf760e01b8152600060048201526024015b60405180910390fd5b6106a0816106d0565b50565b6000546001600160a01b031633146102015760405163118cdaa760e01b815233600482015260240161068e565b600080546001600160a01b038381166001600160a01b0319831681178455604051919092169283917f8be0079c531659141344cd1fd0a4f28419497f9722a3daafe3b4186f6b6457e09190a35050565b60026001540361074357604051633ee5aeb560e01b815260040160405180910390fd5b6002600155565b6000806040838503121561075d57600080fd5b50508035926020909101359150565b80356001600160a01b038116811461078357600080fd5b919050565b60008060006060848603121561079d57600080fd5b6107a68461076c565b95602085013595506040909401359392505050565b6000602082840312156107cd57600080fd5b6107d68261076c565b9392505050565b6000602082840312156107ef57600080fd5b815180151581146107d657600080fdfea2646970667358221220232cb19e66f97541bd2de5e3bf099e2ba277840b11b7cc46f0344e9bd60b2ac164736f6c634300081c0033","opcodes":"PUSH2 0x100 PUSH1 0x40 MSTORE CALLVALUE DUP1 ISZERO PUSH2 0x11 JUMPI PUSH1 0x0 DUP1 REVERT JUMPDEST POP PUSH1 0x40 MLOAD PUSH2 0xA02 CODESIZE SUB DUP1 PUSH2 0xA02 DUP4 CODECOPY DUP2 ADD PUSH1 0x40 DUP2 SWAP1 MSTORE PUSH2 0x30 SWAP2 PUSH2 0xFB JUMP JUMPDEST DUP4 PUSH1 0x1 PUSH1 0x1 PUSH1 0xA0 SHL SUB DUP2 AND PUSH2 0x5F JUMPI PUSH1 0x40 MLOAD PUSH4 0x1E4FBDF7 PUSH1 0xE0 SHL DUP2 MSTORE PUSH1 0x0 PUSH1 0x4 DUP3 ADD MSTORE PUSH1 0x24 ADD PUSH1 0x40 MLOAD DUP1 SWAP2 SUB SWAP1 REVERT JUMPDEST PUSH2 0x68 DUP2 PUSH2 0x8F JUMP JUMPDEST POP PUSH1 0x1 DUP1 SSTORE PUSH1 0x1 PUSH1 0x1 PUSH1 0xA0 SHL SUB SWAP3 DUP4 AND PUSH1 0x80 MSTORE SWAP1 DUP3 AND PUSH1 0xA0 MSTORE AND PUSH1 0xC0 MSTORE POP CHAINID PUSH1 0xE0 MSTORE PUSH2 0x14F JUMP JUMPDEST PUSH1 0x0 DUP1 SLOAD PUSH1 0x1 PUSH1 0x1 PUSH1 0xA0 SHL SUB DUP4 DUP2 AND PUSH1 0x1 PUSH1 0x1 PUSH1 0xA0 SHL SUB NOT DUP4 AND DUP2 OR DUP5 SSTORE PUSH1 0x40 MLOAD SWAP2 SWAP1 SWAP3 AND SWAP3 DUP4 SWAP2 PUSH32 0x8BE0079C531659141344CD1FD0A4F28419497F9722A3DAAFE3B4186F6B6457E0 SWAP2 SWAP1 LOG3 POP POP JUMP JUMPDEST DUP1 MLOAD PUSH1 0x1 PUSH1 0x1 PUSH1 0xA0 SHL SUB DUP2 AND DUP2 EQ PUSH2 0xF6 JUMPI PUSH1 0x0 DUP1 REVERT JUMPDEST SWAP2 SWAP1 POP JUMP JUMPDEST PUSH1 0x0 DUP1 PUSH1 0x0 DUP1 PUSH1 0x80 DUP6 DUP8 SUB SLT ISZERO PUSH2 0x111 JUMPI PUSH1 0x0 DUP1 REVERT JUMPDEST PUSH2 0x11A DUP6 PUSH2 0xDF JUMP JUMPDEST SWAP4 POP PUSH2 0x128 PUSH1 0x20 DUP7 ADD PUSH2 0xDF JUMP JUMPDEST SWAP3 POP PUSH2 0x136 PUSH1 0x40 DUP7 ADD PUSH2 0xDF JUMP JUMPDEST SWAP2 POP PUSH2 0x144 PUSH1 0x60 DUP7 ADD PUSH2 0xDF JUMP JUMPDEST SWAP1 POP SWAP3 SWAP6 SWAP2 SWAP5 POP SWAP3 POP JUMP JUMPDEST PUSH1 0x80 MLOAD PUSH1 0xA0 MLOAD PUSH1 0xC0 MLOAD PUSH1 0xE0 MLOAD PUSH2 0x835 PUSH2 0x1CD PUSH1 0x0 CODECOPY PUSH1 0x0 DUP2 DUP2 PUSH2 0x15F ADD MSTORE DUP2 DUP2 PUSH2 0x2C1 ADD MSTORE DUP2 DUP2 PUSH2 0x3BD ADD MSTORE DUP2 DUP2 PUSH2 0x4C3 ADD MSTORE PUSH2 0x60E ADD MSTORE PUSH1 0x0 DUP2 DUP2 PUSH2 0x127 ADD MSTORE DUP2 DUP2 PUSH2 0x257 ADD MSTORE PUSH2 0x545 ADD MSTORE PUSH1 0x0 DUP2 DUP2 PUSH1 0xBD ADD MSTORE DUP2 DUP2 PUSH2 0x34B ADD MSTORE PUSH2 0x460 ADD MSTORE PUSH1 0x0 DUP2 DUP2 PUSH2 0x1BA ADD MSTORE DUP2 DUP2 PUSH2 0x222 ADD MSTORE PUSH2 0x574 ADD MSTORE PUSH2 0x835 PUSH1 0x0 RETURN INVALID PUSH1 0x80 PUSH1 0x40 MSTORE CALLVALUE DUP1 ISZERO PUSH2 0x10 JUMPI PUSH1 0x0 DUP1 REVERT JUMPDEST POP PUSH1 0x4 CALLDATASIZE LT PUSH2 0xA9 JUMPI PUSH1 0x0 CALLDATALOAD PUSH1 0xE0 SHR DUP1 PUSH4 0x8DA5CB5B GT PUSH2 0x71 JUMPI DUP1 PUSH4 0x8DA5CB5B EQ PUSH2 0x149 JUMPI DUP1 PUSH4 0x9A8A0592 EQ PUSH2 0x15A JUMPI DUP1 PUSH4 0xABFC7294 EQ PUSH2 0x18F JUMPI DUP1 PUSH4 0xC1612C44 EQ PUSH2 0x1A2 JUMPI DUP1 PUSH4 0xF0B7DB4E EQ PUSH2 0x1B5 JUMPI DUP1 PUSH4 0xF2FDE38B EQ PUSH2 0x1DC JUMPI PUSH1 0x0 DUP1 REVERT JUMPDEST DUP1 PUSH4 0x715018A6 EQ PUSH2 0xAE JUMPI DUP1 PUSH4 0x7B0C1F29 EQ PUSH2 0xB8 JUMPI DUP1 PUSH4 0x7D34900A EQ PUSH2 0xFC JUMPI DUP1 PUSH4 0x8AD43589 EQ PUSH2 0x10F JUMPI DUP1 PUSH4 0x8BAD535F EQ PUSH2 0x122 JUMPI JUMPDEST PUSH1 0x0 DUP1 REVERT JUMPDEST PUSH2 0xB6 PUSH2 0x1EF JUMP JUMPDEST STOP JUMPDEST PUSH2 0xDF PUSH32 0x0 DUP2 JUMP JUMPDEST PUSH1 0x40 MLOAD PUSH1 0x1 PUSH1 0x1 PUSH1 0xA0 SHL SUB SWAP1 SWAP2 AND DUP2 MSTORE PUSH1 0x20 ADD JUMPDEST PUSH1 0x40 MLOAD DUP1 SWAP2 SUB SWAP1 RETURN JUMPDEST PUSH2 0xB6 PUSH2 0x10A CALLDATASIZE PUSH1 0x4 PUSH2 0x74A JUMP JUMPDEST PUSH2 0x203 JUMP JUMPDEST PUSH2 0xB6 PUSH2 0x11D CALLDATASIZE PUSH1 0x4 PUSH2 0x788 JUMP JUMPDEST PUSH2 0x326 JUMP JUMPDEST PUSH2 0xDF PUSH32 0x0 DUP2 JUMP JUMPDEST PUSH1 0x0 SLOAD PUSH1 0x1 PUSH1 0x1 PUSH1 0xA0 SHL SUB AND PUSH2 0xDF JUMP JUMPDEST PUSH2 0x181 PUSH32 0x0 DUP2 JUMP JUMPDEST PUSH1 0x40 MLOAD SWAP1 DUP2 MSTORE PUSH1 0x20 ADD PUSH2 0xF3 JUMP JUMPDEST PUSH2 0xB6 PUSH2 0x19D CALLDATASIZE PUSH1 0x4 PUSH2 0x788 JUMP JUMPDEST PUSH2 0x42C JUMP JUMPDEST PUSH2 0xB6 PUSH2 0x1B0 CALLDATASIZE PUSH1 0x4 PUSH2 0x74A JUMP JUMPDEST PUSH2 0x520 JUMP JUMPDEST PUSH2 0xDF PUSH32 0x0 DUP2 JUMP JUMPDEST PUSH2 0xB6 PUSH2 0x1EA CALLDATASIZE PUSH1 0x4 PUSH2 0x7BB JUMP JUMPDEST PUSH2 0x660 JUMP JUMPDEST PUSH2 0x1F7 PUSH2 0x6A3 JUMP JUMPDEST PUSH2 0x201 PUSH1 0x0 PUSH2 0x6D0 JUMP JUMPDEST JUMP JUMPDEST PUSH2 0x20B PUSH2 0x720 JUMP JUMPDEST PUSH1 0x40 MLOAD PUSH4 0x78D3B79 PUSH1 0xE0 SHL DUP2 MSTORE PUSH1 0x1 PUSH1 0x1 PUSH1 0xA0 SHL SUB PUSH32 0x0 DUP2 AND PUSH1 0x4 DUP4 ADD MSTORE CALLER PUSH1 0x24 DUP4 ADD MSTORE PUSH1 0x44 DUP3 ADD DUP5 SWAP1 MSTORE PUSH32 0x0 AND SWAP1 PUSH4 0x78D3B79 SWAP1 PUSH1 0x64 ADD PUSH1 0x0 PUSH1 0x40 MLOAD DUP1 DUP4 SUB DUP2 PUSH1 0x0 DUP8 DUP1 EXTCODESIZE ISZERO DUP1 ISZERO PUSH2 0x29B JUMPI PUSH1 0x0 DUP1 REVERT JUMPDEST POP GAS CALL ISZERO DUP1 ISZERO PUSH2 0x2AF JUMPI RETURNDATASIZE PUSH1 0x0 DUP1 RETURNDATACOPY RETURNDATASIZE PUSH1 0x0 REVERT JUMPDEST POP POP PUSH1 0x40 DUP1 MLOAD DUP6 DUP2 MSTORE PUSH1 0x20 DUP2 ADD DUP6 SWAP1 MSTORE PUSH32 0x0 SWAP2 DUP2 ADD SWAP2 SWAP1 SWAP2 MSTORE CALLER SWAP3 POP PUSH32 0x5BCFA3BBCED9167CBF8823CFCF832F788B1142D9E94F4C52FB006A47988C0E8B SWAP2 POP PUSH1 0x60 ADD JUMPDEST PUSH1 0x40 MLOAD DUP1 SWAP2 SUB SWAP1 LOG2 PUSH2 0x322 PUSH1 0x1 DUP1 SSTORE JUMP JUMPDEST POP POP JUMP JUMPDEST PUSH2 0x32E PUSH2 0x720 JUMP JUMPDEST PUSH1 0x40 MLOAD PUSH4 0x21421707 PUSH1 0xE1 SHL DUP2 MSTORE CALLER PUSH1 0x4 DUP3 ADD MSTORE PUSH1 0x1 PUSH1 0x1 PUSH1 0xA0 SHL SUB PUSH32 0x0 DUP2 AND PUSH1 0x24 DUP4 ADD MSTORE PUSH1 0x44 DUP3 ADD DUP5 SWAP1 MSTORE DUP5 AND SWAP1 PUSH4 0x42842E0E SWAP1 PUSH1 0x64 ADD PUSH1 0x0 PUSH1 0x40 MLOAD DUP1 DUP4 SUB DUP2 PUSH1 0x0 DUP8 DUP1 EXTCODESIZE ISZERO DUP1 ISZERO PUSH2 0x39E JUMPI PUSH1 0x0 DUP1 REVERT JUMPDEST POP GAS CALL ISZERO DUP1 ISZERO PUSH2 0x3B2 JUMPI RETURNDATASIZE PUSH1 0x0 DUP1 RETURNDATACOPY RETURNDATASIZE PUSH1 0x0 REVERT JUMPDEST POP POP PUSH1 0x40 DUP1 MLOAD DUP5 DUP2 MSTORE PUSH32 0x0 PUSH1 0x20 DUP3 ADD MSTORE DUP6 SWAP4 POP PUSH1 0x1 PUSH1 0x1 PUSH1 0xA0 SHL SUB DUP8 AND SWAP3 POP CALLER SWAP2 PUSH32 0xA6EAF8EB5C24D58C4B4E7AF90ACC93C6E9040B8DCF3A053E766182C3228D72FD SWAP2 ADD JUMPDEST PUSH1 0x40 MLOAD DUP1 SWAP2 SUB SWAP1 LOG4 PUSH2 0x427 PUSH1 0x1 DUP1 SSTORE JUMP JUMPDEST POP POP POP JUMP JUMPDEST PUSH2 0x434 PUSH2 0x720 JUMP JUMPDEST PUSH1 0x40 MLOAD PUSH4 0x15F41501 PUSH1 0xE0 SHL DUP2 MSTORE PUSH1 0x1 PUSH1 0x1 PUSH1 0xA0 SHL SUB DUP5 DUP2 AND PUSH1 0x4 DUP4 ADD MSTORE PUSH1 0x24 DUP3 ADD DUP5 SWAP1 MSTORE CALLER PUSH1 0x44 DUP4 ADD MSTORE PUSH32 0x0 AND SWAP1 PUSH4 0x15F41501 SWAP1 PUSH1 0x64 ADD PUSH1 0x0 PUSH1 0x40 MLOAD DUP1 DUP4 SUB DUP2 PUSH1 0x0 DUP8 DUP1 EXTCODESIZE ISZERO DUP1 ISZERO PUSH2 0x4A4 JUMPI PUSH1 0x0 DUP1 REVERT JUMPDEST POP GAS CALL ISZERO DUP1 ISZERO PUSH2 0x4B8 JUMPI RETURNDATASIZE PUSH1 0x0 DUP1 RETURNDATACOPY RETURNDATASIZE PUSH1 0x0 REVERT JUMPDEST POP POP PUSH1 0x40 DUP1 MLOAD DUP5 DUP2 MSTORE PUSH32 0x0 PUSH1 0x20 DUP3 ADD MSTORE DUP6 SWAP4 POP PUSH1 0x1 PUSH1 0x1 PUSH1 0xA0 SHL SUB DUP8 AND SWAP3 POP CALLER SWAP2 PUSH32 0xB36ECA06AD2ABCF143437487B73E1C8B2E7EA0C901D826C1978CDE8F2B04523 SWAP2 ADD PUSH2 0x416 JUMP JUMPDEST PUSH2 0x528 PUSH2 0x720 JUMP JUMPDEST PUSH1 0x40 MLOAD PUSH4 0x23B872DD PUSH1 0xE0 SHL DUP2 MSTORE CALLER PUSH1 0x4 DUP3 ADD MSTORE PUSH1 0x1 PUSH1 0x1 PUSH1 0xA0 SHL SUB PUSH32 0x0 DUP2 AND PUSH1 0x24 DUP4 ADD MSTORE PUSH1 0x44 DUP3 ADD DUP5 SWAP1 MSTORE PUSH32 0x0 AND SWAP1 PUSH4 0x23B872DD SWAP1 PUSH1 0x64 ADD PUSH1 0x20 PUSH1 0x40 MLOAD DUP1 DUP4 SUB DUP2 PUSH1 0x0 DUP8 GAS CALL ISZERO DUP1 ISZERO PUSH2 0x5BD JUMPI RETURNDATASIZE PUSH1 0x0 DUP1 RETURNDATACOPY RETURNDATASIZE PUSH1 0x0 REVERT JUMPDEST POP POP POP POP PUSH1 0x40 MLOAD RETURNDATASIZE PUSH1 0x1F NOT PUSH1 0x1F DUP3 ADD AND DUP3 ADD DUP1 PUSH1 0x40 MSTORE POP DUP2 ADD SWAP1 PUSH2 0x5E1 SWAP2 SWAP1 PUSH2 0x7DD JUMP JUMPDEST PUSH2 0x5FE JUMPI PUSH1 0x40 MLOAD PUSH4 0x27279907 PUSH1 0xE2 SHL DUP2 MSTORE PUSH1 0x4 ADD PUSH1 0x40 MLOAD DUP1 SWAP2 SUB SWAP1 REVERT JUMPDEST PUSH1 0x40 DUP1 MLOAD DUP4 DUP2 MSTORE PUSH1 0x20 DUP2 ADD DUP4 SWAP1 MSTORE PUSH32 0x0 SWAP2 DUP2 ADD SWAP2 SWAP1 SWAP2 MSTORE CALLER SWAP1 PUSH32 0xF0436F9E3859CB24E8FAAD860F1D2CB4A3B6209B1AAE4AB58D2CA538D9278EF6 SWAP1 PUSH1 0x60 ADD PUSH2 0x311 JUMP JUMPDEST PUSH2 0x668 PUSH2 0x6A3 JUMP JUMPDEST PUSH1 0x1 PUSH1 0x1 PUSH1 0xA0 SHL SUB DUP2 AND PUSH2 0x697 JUMPI PUSH1 0x40 MLOAD PUSH4 0x1E4FBDF7 PUSH1 0xE0 SHL DUP2 MSTORE PUSH1 0x0 PUSH1 0x4 DUP3 ADD MSTORE PUSH1 0x24 ADD JUMPDEST PUSH1 0x40 MLOAD DUP1 SWAP2 SUB SWAP1 REVERT JUMPDEST PUSH2 0x6A0 DUP2 PUSH2 0x6D0 JUMP JUMPDEST POP JUMP JUMPDEST PUSH1 0x0 SLOAD PUSH1 0x1 PUSH1 0x1 PUSH1 0xA0 SHL SUB AND CALLER EQ PUSH2 0x201 JUMPI PUSH1 0x40 MLOAD PUSH4 0x118CDAA7 PUSH1 0xE0 SHL DUP2 MSTORE CALLER PUSH1 0x4 DUP3 ADD MSTORE PUSH1 0x24 ADD PUSH2 0x68E JUMP JUMPDEST PUSH1 0x0 DUP1 SLOAD PUSH1 0x1 PUSH1 0x1 PUSH1 0xA0 SHL SUB DUP4 DUP2 AND PUSH1 0x1 PUSH1 0x1 PUSH1 0xA0 SHL SUB NOT DUP4 AND DUP2 OR DUP5 SSTORE PUSH1 0x40 MLOAD SWAP2 SWAP1 SWAP3 AND SWAP3 DUP4 SWAP2 PUSH32 0x8BE0079C531659141344CD1FD0A4F28419497F9722A3DAAFE3B4186F6B6457E0 SWAP2 SWAP1 LOG3 POP POP JUMP JUMPDEST PUSH1 0x2 PUSH1 0x1 SLOAD SUB PUSH2 0x743 JUMPI PUSH1 0x40 MLOAD PUSH4 0x3EE5AEB5 PUSH1 0xE0 SHL DUP2 MSTORE PUSH1 0x4 ADD PUSH1 0x40 MLOAD DUP1 SWAP2 SUB SWAP1 REVERT JUMPDEST PUSH1 0x2 PUSH1 0x1 SSTORE JUMP JUMPDEST PUSH1 0x0 DUP1 PUSH1 0x40 DUP4 DUP6 SUB SLT ISZERO PUSH2 0x75D JUMPI PUSH1 0x0 DUP1 REVERT JUMPDEST POP POP DUP1 CALLDATALOAD SWAP3 PUSH1 0x20 SWAP1 SWAP2 ADD CALLDATALOAD SWAP2 POP JUMP JUMPDEST DUP1 CALLDATALOAD PUSH1 0x1 PUSH1 0x1 PUSH1 0xA0 SHL SUB DUP2 AND DUP2 EQ PUSH2 0x783 JUMPI PUSH1 0x0 DUP1 REVERT JUMPDEST SWAP2 SWAP1 POP JUMP JUMPDEST PUSH1 0x0 DUP1 PUSH1 0x0 PUSH1 0x60 DUP5 DUP7 SUB SLT ISZERO PUSH2 0x79D JUMPI PUSH1 0x0 DUP1 REVERT JUMPDEST PUSH2 0x7A6 DUP5 PUSH2 0x76C JUMP JUMPDEST SWAP6 PUSH1 0x20 DUP6 ADD CALLDATALOAD SWAP6 POP PUSH1 0x40 SWAP1 SWAP5 ADD CALLDATALOAD SWAP4 SWAP3 POP POP POP JUMP JUMPDEST PUSH1 0x0 PUSH1 0x20 DUP3 DUP5 SUB SLT ISZERO PUSH2 0x7CD JUMPI PUSH1 0x0 DUP1 REVERT JUMPDEST PUSH2 0x7D6 DUP3 PUSH2 0x76C JUMP JUMPDEST SWAP4 SWAP3 POP POP POP JUMP JUMPDEST PUSH1 0x0 PUSH1 0x20 DUP3 DUP5 SUB SLT ISZERO PUSH2 0x7EF JUMPI PUSH1 0x0 DUP1 REVERT JUMPDEST DUP2 MLOAD DUP1 ISZERO ISZERO DUP2 EQ PUSH2 0x7D6 JUMPI PUSH1 0x0 DUP1 REVERT INVALID LOG2 PUSH5 0x6970667358 0x22 SLT KECCAK256 0x23 0x2C 0xB1 SWAP15 PUSH7 0xF97541BD2DE5E3 0xBF MULMOD SWAP15 0x2B LOG2 PUSH24 0x840B11B7CC46F0344E9BD60B2AC164736F6C634300081C00 CALLER "},"methodIdentifiers":{"assetsVault()":"7b0c1f29","bankVault()":"8bad535f","chainId()":"9a8a0592","depositNFT(address,uint256,bytes32)":"8ad43589","depositToken(uint256,bytes32)":"c1612c44","diamond()":"f0b7db4e","owner()":"8da5cb5b","renounceOwnership()":"715018a6","transferOwnership(address)":"f2fde38b","withdrawNFT(address,uint256,bytes32)":"abfc7294","withdrawToken(uint256,bytes32)":"7d34900a"}}}}}