{"project/contracts/PopKomodo.sol":{"PopKomodo":{"abi":[{"inputs":[],"stateMutability":"nonpayable","type":"constructor"},{"anonymous":false,"inputs":[{"indexed":true,"internalType":"address","name":"player","type":"address"},{"indexed":false,"internalType":"enum PopKomodo.Team","name":"team","type":"uint8"},{"indexed":false,"internalType":"uint256","name":"removed","type":"uint256"}],"name":"PlayerReset","type":"event"},{"anonymous":false,"inputs":[{"indexed":true,"internalType":"address","name":"player","type":"address"},{"indexed":false,"internalType":"enum PopKomodo.Team","name":"team","type":"uint8"},{"indexed":false,"internalType":"uint256","name":"newTeamScore","type":"uint256"}],"name":"Popped","type":"event"},{"anonymous":false,"inputs":[{"indexed":true,"internalType":"address","name":"player","type":"address"},{"indexed":false,"internalType":"enum PopKomodo.Team","name":"team","type":"uint8"},{"indexed":false,"internalType":"uint32","name":"amount","type":"uint32"},{"indexed":false,"internalType":"uint256","name":"newTeamScore","type":"uint256"}],"name":"PoppedBy","type":"event"},{"anonymous":false,"inputs":[{"indexed":true,"internalType":"address","name":"player","type":"address"},{"indexed":false,"internalType":"enum PopKomodo.Team","name":"team","type":"uint8"}],"name":"TeamChosen","type":"event"},{"inputs":[{"internalType":"enum PopKomodo.Team","name":"team","type":"uint8"}],"name":"chooseTeam","outputs":[],"stateMutability":"nonpayable","type":"function"},{"inputs":[{"internalType":"address","name":"player","type":"address"}],"name":"getPlayerScore","outputs":[{"internalType":"uint256","name":"","type":"uint256"}],"stateMutability":"view","type":"function"},{"inputs":[{"internalType":"enum PopKomodo.Team","name":"team","type":"uint8"}],"name":"getScore","outputs":[{"internalType":"uint256","name":"","type":"uint256"}],"stateMutability":"view","type":"function"},{"inputs":[],"name":"getScores","outputs":[{"internalType":"uint256","name":"ethScore","type":"uint256"},{"internalType":"uint256","name":"btcScore","type":"uint256"},{"internalType":"uint256","name":"monadScore","type":"uint256"}],"stateMutability":"view","type":"function"},{"inputs":[{"internalType":"address","name":"player","type":"address"}],"name":"getTeam","outputs":[{"internalType":"bool","name":"chosen","type":"bool"},{"internalType":"enum PopKomodo.Team","name":"team","type":"uint8"}],"stateMutability":"view","type":"function"},{"inputs":[],"name":"owner","outputs":[{"internalType":"address","name":"","type":"address"}],"stateMutability":"view","type":"function"},{"inputs":[],"name":"pop","outputs":[],"stateMutability":"nonpayable","type":"function"},{"inputs":[{"internalType":"uint32","name":"amount","type":"uint32"}],"name":"popBy","outputs":[],"stateMutability":"nonpayable","type":"function"},{"inputs":[{"internalType":"address","name":"player","type":"address"}],"name":"resetPlayer","outputs":[],"stateMutability":"nonpayable","type":"function"}],"evm":{"bytecode":{"linkReferences":{},"object":"6080604052348015600e575f5ffd5b50600680546001600160a01b031916331790556109038061002e5f395ff3fe608060405234801561000f575f5ffd5b5060043610610090575f3560e01c8063a4ece52c11610063578063a4ece52c14610152578063c95e09091461015c578063d4080f111461016f578063d6ebb35214610182578063e085c53914610195575f5ffd5b80631ea1380c146100945780635bc5980c146100bd57806387529f0f146100de5780638da5cb5b14610127575b5f5ffd5b600354600454600554604080519384526020840192909252908201526060015b60405180910390f35b6100d06100cb36600461075b565b6101bd565b6040519081526020016100b4565b6101196100ec366004610780565b6001600160a01b03165f90815260016020908152604080832054918390529091205460ff91821692911690565b6040516100b49291906107da565b60065461013a906001600160a01b031681565b6040516001600160a01b0390911681526020016100b4565b61015a6101ea565b005b61015a61016a366004610780565b610302565b61015a61017d3660046107f0565b6104bf565b61015a61019036600461075b565b610630565b6100d06101a3366004610780565b6001600160a01b03165f9081526002602052604090205490565b5f60038260028111156101d2576101d26107a6565b600381106101e2576101e2610813565b015492915050565b335f9081526001602052604090205460ff166102435760405162461bcd60e51b815260206004820152601360248201527210da1bdbdcd94818481d19585b48199a5c9cdd606a1b60448201526064015b60405180910390fd5b335f9081526020819052604081205460ff1690816002811115610268576102686107a6565b335f908152600260205260408120805492935060019290919061028c90849061083b565b909155505f90506003828181106102a5576102a5610813565b015f81546102b290610854565b9190508190559050336001600160a01b03167fec5b73da1e228e82cf83011dddc4807d9a35f284ed56dc9b941648056cc2c3d684836040516102f592919061086c565b60405180910390a2505050565b6006546001600160a01b031633146103485760405162461bcd60e51b81526020600482015260096024820152682737ba1037bbb732b960b91b604482015260640161023a565b6001600160a01b0381165f9081526001602052604090205460ff166103995760405162461bcd60e51b81526020600482015260076024820152664e6f207465616d60c81b604482015260640161023a565b6001600160a01b0381165f90815260026020526040812054908190036103bd575050565b6001600160a01b0382165f9081526020819052604081205460ff16908160028111156103eb576103eb6107a6565b9050826003826003811061040157610401610813565b0154101561043d5760405162461bcd60e51b8152602060048201526009602482015268556e646572666c6f7760b81b604482015260640161023a565b826003826003811061045157610451610813565b015f8282546104609190610887565b90915550506001600160a01b0384165f8181526002602052604080822091909155517fcc3e35c67717913de4b2c3f349adba783790dc6c4558e4f576fd9aba77f81fa1906104b1908590879061086c565b60405180910390a250505050565b335f9081526001602052604090205460ff166105135760405162461bcd60e51b815260206004820152601360248201527210da1bdbdcd94818481d19585b48199a5c9cdd606a1b604482015260640161023a565b5f8163ffffffff161161055d5760405162461bcd60e51b81526020600482015260126024820152710416d6f756e74206d757374206265203e20360741b604482015260640161023a565b335f9081526020819052604081205460ff1690816002811115610582576105826107a6565b90508263ffffffff166003826003811061059e5761059e610813565b015f8282546105ad919061083b565b9091555050335f908152600260205260408120805463ffffffff861692906105d690849061083b565b909155505f90506003828181106105ef576105ef610813565b01549050336001600160a01b03167f9d92285d19ba085f1672f4710e6346c19a6ee71154e8fe442fd8b47963e5d2408486846040516104b19392919061089a565b335f9081526001602052604090205460ff16156106855760405162461bcd60e51b81526020600482015260136024820152722a32b0b69030b63932b0b23c9031b437b9b2b760691b604482015260640161023a565b6003816002811115610699576106996107a6565b106106d55760405162461bcd60e51b815260206004820152600c60248201526b496e76616c6964207465616d60a01b604482015260640161023a565b335f908152602081905260409020805482919060ff19166001836002811115610700576107006107a6565b0217905550335f81815260016020819052604091829020805460ff19169091179055517fc818d15c14b0feb9ce55d7b3bfa666741d9c6a6f6743f78f330dded8dcdf59c9906107509084906108bf565b60405180910390a250565b5f6020828403121561076b575f5ffd5b813560038110610779575f5ffd5b9392505050565b5f60208284031215610790575f5ffd5b81356001600160a01b0381168114610779575f5ffd5b634e487b7160e01b5f52602160045260245ffd5b600381106107d657634e487b7160e01b5f52602160045260245ffd5b9052565b82151581526040810161077960208301846107ba565b5f60208284031215610800575f5ffd5b813563ffffffff81168114610779575f5ffd5b634e487b7160e01b5f52603260045260245ffd5b634e487b7160e01b5f52601160045260245ffd5b8082018082111561084e5761084e610827565b92915050565b5f6001820161086557610865610827565b5060010190565b6040810161087a82856107ba565b8260208301529392505050565b8181038181111561084e5761084e610827565b606081016108a882866107ba565b63ffffffff93909316602082015260400152919050565b6020810161084e82846107ba56fea2646970667358221220ddeaf84eddf4a3a2c23b9734900e65953d329653a28c0a9dd20ba6d8f315449164736f6c634300081c0033","opcodes":"PUSH1 0x80 PUSH1 0x40 MSTORE CALLVALUE DUP1 ISZERO PUSH1 0xE JUMPI PUSH0 PUSH0 REVERT JUMPDEST POP PUSH1 0x6 DUP1 SLOAD PUSH1 0x1 PUSH1 0x1 PUSH1 0xA0 SHL SUB NOT AND CALLER OR SWAP1 SSTORE PUSH2 0x903 DUP1 PUSH2 0x2E PUSH0 CODECOPY PUSH0 RETURN INVALID PUSH1 0x80 PUSH1 0x40 MSTORE CALLVALUE DUP1 ISZERO PUSH2 0xF JUMPI PUSH0 PUSH0 REVERT JUMPDEST POP PUSH1 0x4 CALLDATASIZE LT PUSH2 0x90 JUMPI PUSH0 CALLDATALOAD PUSH1 0xE0 SHR DUP1 PUSH4 0xA4ECE52C GT PUSH2 0x63 JUMPI DUP1 PUSH4 0xA4ECE52C EQ PUSH2 0x152 JUMPI DUP1 PUSH4 0xC95E0909 EQ PUSH2 0x15C JUMPI DUP1 PUSH4 0xD4080F11 EQ PUSH2 0x16F JUMPI DUP1 PUSH4 0xD6EBB352 EQ PUSH2 0x182 JUMPI DUP1 PUSH4 0xE085C539 EQ PUSH2 0x195 JUMPI PUSH0 PUSH0 REVERT JUMPDEST DUP1 PUSH4 0x1EA1380C EQ PUSH2 0x94 JUMPI DUP1 PUSH4 0x5BC5980C EQ PUSH2 0xBD JUMPI DUP1 PUSH4 0x87529F0F EQ PUSH2 0xDE JUMPI DUP1 PUSH4 0x8DA5CB5B EQ PUSH2 0x127 JUMPI JUMPDEST PUSH0 PUSH0 REVERT JUMPDEST PUSH1 0x3 SLOAD PUSH1 0x4 SLOAD PUSH1 0x5 SLOAD PUSH1 0x40 DUP1 MLOAD SWAP4 DUP5 MSTORE PUSH1 0x20 DUP5 ADD SWAP3 SWAP1 SWAP3 MSTORE SWAP1 DUP3 ADD MSTORE PUSH1 0x60 ADD JUMPDEST PUSH1 0x40 MLOAD DUP1 SWAP2 SUB SWAP1 RETURN JUMPDEST PUSH2 0xD0 PUSH2 0xCB CALLDATASIZE PUSH1 0x4 PUSH2 0x75B JUMP JUMPDEST PUSH2 0x1BD JUMP JUMPDEST PUSH1 0x40 MLOAD SWAP1 DUP2 MSTORE PUSH1 0x20 ADD PUSH2 0xB4 JUMP JUMPDEST PUSH2 0x119 PUSH2 0xEC CALLDATASIZE PUSH1 0x4 PUSH2 0x780 JUMP JUMPDEST PUSH1 0x1 PUSH1 0x1 PUSH1 0xA0 SHL SUB AND PUSH0 SWAP1 DUP2 MSTORE PUSH1 0x1 PUSH1 0x20 SWAP1 DUP2 MSTORE PUSH1 0x40 DUP1 DUP4 KECCAK256 SLOAD SWAP2 DUP4 SWAP1 MSTORE SWAP1 SWAP2 KECCAK256 SLOAD PUSH1 0xFF SWAP2 DUP3 AND SWAP3 SWAP2 AND SWAP1 JUMP JUMPDEST PUSH1 0x40 MLOAD PUSH2 0xB4 SWAP3 SWAP2 SWAP1 PUSH2 0x7DA JUMP JUMPDEST PUSH1 0x6 SLOAD PUSH2 0x13A SWAP1 PUSH1 0x1 PUSH1 0x1 PUSH1 0xA0 SHL SUB AND DUP2 JUMP JUMPDEST PUSH1 0x40 MLOAD PUSH1 0x1 PUSH1 0x1 PUSH1 0xA0 SHL SUB SWAP1 SWAP2 AND DUP2 MSTORE PUSH1 0x20 ADD PUSH2 0xB4 JUMP JUMPDEST PUSH2 0x15A PUSH2 0x1EA JUMP JUMPDEST STOP JUMPDEST PUSH2 0x15A PUSH2 0x16A CALLDATASIZE PUSH1 0x4 PUSH2 0x780 JUMP JUMPDEST PUSH2 0x302 JUMP JUMPDEST PUSH2 0x15A PUSH2 0x17D CALLDATASIZE PUSH1 0x4 PUSH2 0x7F0 JUMP JUMPDEST PUSH2 0x4BF JUMP JUMPDEST PUSH2 0x15A PUSH2 0x190 CALLDATASIZE PUSH1 0x4 PUSH2 0x75B JUMP JUMPDEST PUSH2 0x630 JUMP JUMPDEST PUSH2 0xD0 PUSH2 0x1A3 CALLDATASIZE PUSH1 0x4 PUSH2 0x780 JUMP JUMPDEST PUSH1 0x1 PUSH1 0x1 PUSH1 0xA0 SHL SUB AND PUSH0 SWAP1 DUP2 MSTORE PUSH1 0x2 PUSH1 0x20 MSTORE PUSH1 0x40 SWAP1 KECCAK256 SLOAD SWAP1 JUMP JUMPDEST PUSH0 PUSH1 0x3 DUP3 PUSH1 0x2 DUP2 GT ISZERO PUSH2 0x1D2 JUMPI PUSH2 0x1D2 PUSH2 0x7A6 JUMP JUMPDEST PUSH1 0x3 DUP2 LT PUSH2 0x1E2 JUMPI PUSH2 0x1E2 PUSH2 0x813 JUMP JUMPDEST ADD SLOAD SWAP3 SWAP2 POP POP JUMP JUMPDEST CALLER PUSH0 SWAP1 DUP2 MSTORE PUSH1 0x1 PUSH1 0x20 MSTORE PUSH1 0x40 SWAP1 KECCAK256 SLOAD PUSH1 0xFF AND PUSH2 0x243 JUMPI PUSH1 0x40 MLOAD PUSH3 0x461BCD PUSH1 0xE5 SHL DUP2 MSTORE PUSH1 0x20 PUSH1 0x4 DUP3 ADD MSTORE PUSH1 0x13 PUSH1 0x24 DUP3 ADD MSTORE PUSH19 0x10DA1BDBDCD94818481D19585B48199A5C9CDD PUSH1 0x6A SHL PUSH1 0x44 DUP3 ADD MSTORE PUSH1 0x64 ADD JUMPDEST PUSH1 0x40 MLOAD DUP1 SWAP2 SUB SWAP1 REVERT JUMPDEST CALLER PUSH0 SWAP1 DUP2 MSTORE PUSH1 0x20 DUP2 SWAP1 MSTORE PUSH1 0x40 DUP2 KECCAK256 SLOAD PUSH1 0xFF AND SWAP1 DUP2 PUSH1 0x2 DUP2 GT ISZERO PUSH2 0x268 JUMPI PUSH2 0x268 PUSH2 0x7A6 JUMP JUMPDEST CALLER PUSH0 SWAP1 DUP2 MSTORE PUSH1 0x2 PUSH1 0x20 MSTORE PUSH1 0x40 DUP2 KECCAK256 DUP1 SLOAD SWAP3 SWAP4 POP PUSH1 0x1 SWAP3 SWAP1 SWAP2 SWAP1 PUSH2 0x28C SWAP1 DUP5 SWAP1 PUSH2 0x83B JUMP JUMPDEST SWAP1 SWAP2 SSTORE POP PUSH0 SWAP1 POP PUSH1 0x3 DUP3 DUP2 DUP2 LT PUSH2 0x2A5 JUMPI PUSH2 0x2A5 PUSH2 0x813 JUMP JUMPDEST ADD PUSH0 DUP2 SLOAD PUSH2 0x2B2 SWAP1 PUSH2 0x854 JUMP JUMPDEST SWAP2 SWAP1 POP DUP2 SWAP1 SSTORE SWAP1 POP CALLER PUSH1 0x1 PUSH1 0x1 PUSH1 0xA0 SHL SUB AND PUSH32 0xEC5B73DA1E228E82CF83011DDDC4807D9A35F284ED56DC9B941648056CC2C3D6 DUP5 DUP4 PUSH1 0x40 MLOAD PUSH2 0x2F5 SWAP3 SWAP2 SWAP1 PUSH2 0x86C JUMP JUMPDEST PUSH1 0x40 MLOAD DUP1 SWAP2 SUB SWAP1 LOG2 POP POP POP JUMP JUMPDEST PUSH1 0x6 SLOAD PUSH1 0x1 PUSH1 0x1 PUSH1 0xA0 SHL SUB AND CALLER EQ PUSH2 0x348 JUMPI PUSH1 0x40 MLOAD PUSH3 0x461BCD PUSH1 0xE5 SHL DUP2 MSTORE PUSH1 0x20 PUSH1 0x4 DUP3 ADD MSTORE PUSH1 0x9 PUSH1 0x24 DUP3 ADD MSTORE PUSH9 0x2737BA1037BBB732B9 PUSH1 0xB9 SHL PUSH1 0x44 DUP3 ADD MSTORE PUSH1 0x64 ADD PUSH2 0x23A JUMP JUMPDEST PUSH1 0x1 PUSH1 0x1 PUSH1 0xA0 SHL SUB DUP2 AND PUSH0 SWAP1 DUP2 MSTORE PUSH1 0x1 PUSH1 0x20 MSTORE PUSH1 0x40 SWAP1 KECCAK256 SLOAD PUSH1 0xFF AND PUSH2 0x399 JUMPI PUSH1 0x40 MLOAD PUSH3 0x461BCD PUSH1 0xE5 SHL DUP2 MSTORE PUSH1 0x20 PUSH1 0x4 DUP3 ADD MSTORE PUSH1 0x7 PUSH1 0x24 DUP3 ADD MSTORE PUSH7 0x4E6F207465616D PUSH1 0xC8 SHL PUSH1 0x44 DUP3 ADD MSTORE PUSH1 0x64 ADD PUSH2 0x23A JUMP JUMPDEST PUSH1 0x1 PUSH1 0x1 PUSH1 0xA0 SHL SUB DUP2 AND PUSH0 SWAP1 DUP2 MSTORE PUSH1 0x2 PUSH1 0x20 MSTORE PUSH1 0x40 DUP2 KECCAK256 SLOAD SWAP1 DUP2 SWAP1 SUB PUSH2 0x3BD JUMPI POP POP JUMP JUMPDEST PUSH1 0x1 PUSH1 0x1 PUSH1 0xA0 SHL SUB DUP3 AND PUSH0 SWAP1 DUP2 MSTORE PUSH1 0x20 DUP2 SWAP1 MSTORE PUSH1 0x40 DUP2 KECCAK256 SLOAD PUSH1 0xFF AND SWAP1 DUP2 PUSH1 0x2 DUP2 GT ISZERO PUSH2 0x3EB JUMPI PUSH2 0x3EB PUSH2 0x7A6 JUMP JUMPDEST SWAP1 POP DUP3 PUSH1 0x3 DUP3 PUSH1 0x3 DUP2 LT PUSH2 0x401 JUMPI PUSH2 0x401 PUSH2 0x813 JUMP JUMPDEST ADD SLOAD LT ISZERO PUSH2 0x43D JUMPI PUSH1 0x40 MLOAD PUSH3 0x461BCD PUSH1 0xE5 SHL DUP2 MSTORE PUSH1 0x20 PUSH1 0x4 DUP3 ADD MSTORE PUSH1 0x9 PUSH1 0x24 DUP3 ADD MSTORE PUSH9 0x556E646572666C6F77 PUSH1 0xB8 SHL PUSH1 0x44 DUP3 ADD MSTORE PUSH1 0x64 ADD PUSH2 0x23A JUMP JUMPDEST DUP3 PUSH1 0x3 DUP3 PUSH1 0x3 DUP2 LT PUSH2 0x451 JUMPI PUSH2 0x451 PUSH2 0x813 JUMP JUMPDEST ADD PUSH0 DUP3 DUP3 SLOAD PUSH2 0x460 SWAP2 SWAP1 PUSH2 0x887 JUMP JUMPDEST SWAP1 SWAP2 SSTORE POP POP PUSH1 0x1 PUSH1 0x1 PUSH1 0xA0 SHL SUB DUP5 AND PUSH0 DUP2 DUP2 MSTORE PUSH1 0x2 PUSH1 0x20 MSTORE PUSH1 0x40 DUP1 DUP3 KECCAK256 SWAP2 SWAP1 SWAP2 SSTORE MLOAD PUSH32 0xCC3E35C67717913DE4B2C3F349ADBA783790DC6C4558E4F576FD9ABA77F81FA1 SWAP1 PUSH2 0x4B1 SWAP1 DUP6 SWAP1 DUP8 SWAP1 PUSH2 0x86C JUMP JUMPDEST PUSH1 0x40 MLOAD DUP1 SWAP2 SUB SWAP1 LOG2 POP POP POP POP JUMP JUMPDEST CALLER PUSH0 SWAP1 DUP2 MSTORE PUSH1 0x1 PUSH1 0x20 MSTORE PUSH1 0x40 SWAP1 KECCAK256 SLOAD PUSH1 0xFF AND PUSH2 0x513 JUMPI PUSH1 0x40 MLOAD PUSH3 0x461BCD PUSH1 0xE5 SHL DUP2 MSTORE PUSH1 0x20 PUSH1 0x4 DUP3 ADD MSTORE PUSH1 0x13 PUSH1 0x24 DUP3 ADD MSTORE PUSH19 0x10DA1BDBDCD94818481D19585B48199A5C9CDD PUSH1 0x6A SHL PUSH1 0x44 DUP3 ADD MSTORE PUSH1 0x64 ADD PUSH2 0x23A JUMP JUMPDEST PUSH0 DUP2 PUSH4 0xFFFFFFFF AND GT PUSH2 0x55D JUMPI PUSH1 0x40 MLOAD PUSH3 0x461BCD PUSH1 0xE5 SHL DUP2 MSTORE PUSH1 0x20 PUSH1 0x4 DUP3 ADD MSTORE PUSH1 0x12 PUSH1 0x24 DUP3 ADD MSTORE PUSH18 0x416D6F756E74206D757374206265203E203 PUSH1 0x74 SHL PUSH1 0x44 DUP3 ADD MSTORE PUSH1 0x64 ADD PUSH2 0x23A JUMP JUMPDEST CALLER PUSH0 SWAP1 DUP2 MSTORE PUSH1 0x20 DUP2 SWAP1 MSTORE PUSH1 0x40 DUP2 KECCAK256 SLOAD PUSH1 0xFF AND SWAP1 DUP2 PUSH1 0x2 DUP2 GT ISZERO PUSH2 0x582 JUMPI PUSH2 0x582 PUSH2 0x7A6 JUMP JUMPDEST SWAP1 POP DUP3 PUSH4 0xFFFFFFFF AND PUSH1 0x3 DUP3 PUSH1 0x3 DUP2 LT PUSH2 0x59E JUMPI PUSH2 0x59E PUSH2 0x813 JUMP JUMPDEST ADD PUSH0 DUP3 DUP3 SLOAD PUSH2 0x5AD SWAP2 SWAP1 PUSH2 0x83B JUMP JUMPDEST SWAP1 SWAP2 SSTORE POP POP CALLER PUSH0 SWAP1 DUP2 MSTORE PUSH1 0x2 PUSH1 0x20 MSTORE PUSH1 0x40 DUP2 KECCAK256 DUP1 SLOAD PUSH4 0xFFFFFFFF DUP7 AND SWAP3 SWAP1 PUSH2 0x5D6 SWAP1 DUP5 SWAP1 PUSH2 0x83B JUMP JUMPDEST SWAP1 SWAP2 SSTORE POP PUSH0 SWAP1 POP PUSH1 0x3 DUP3 DUP2 DUP2 LT PUSH2 0x5EF JUMPI PUSH2 0x5EF PUSH2 0x813 JUMP JUMPDEST ADD SLOAD SWAP1 POP CALLER PUSH1 0x1 PUSH1 0x1 PUSH1 0xA0 SHL SUB AND PUSH32 0x9D92285D19BA085F1672F4710E6346C19A6EE71154E8FE442FD8B47963E5D240 DUP5 DUP7 DUP5 PUSH1 0x40 MLOAD PUSH2 0x4B1 SWAP4 SWAP3 SWAP2 SWAP1 PUSH2 0x89A JUMP JUMPDEST CALLER PUSH0 SWAP1 DUP2 MSTORE PUSH1 0x1 PUSH1 0x20 MSTORE PUSH1 0x40 SWAP1 KECCAK256 SLOAD PUSH1 0xFF AND ISZERO PUSH2 0x685 JUMPI PUSH1 0x40 MLOAD PUSH3 0x461BCD PUSH1 0xE5 SHL DUP2 MSTORE PUSH1 0x20 PUSH1 0x4 DUP3 ADD MSTORE PUSH1 0x13 PUSH1 0x24 DUP3 ADD MSTORE PUSH19 0x2A32B0B69030B63932B0B23C9031B437B9B2B7 PUSH1 0x69 SHL PUSH1 0x44 DUP3 ADD MSTORE PUSH1 0x64 ADD PUSH2 0x23A JUMP JUMPDEST PUSH1 0x3 DUP2 PUSH1 0x2 DUP2 GT ISZERO PUSH2 0x699 JUMPI PUSH2 0x699 PUSH2 0x7A6 JUMP JUMPDEST LT PUSH2 0x6D5 JUMPI PUSH1 0x40 MLOAD PUSH3 0x461BCD PUSH1 0xE5 SHL DUP2 MSTORE PUSH1 0x20 PUSH1 0x4 DUP3 ADD MSTORE PUSH1 0xC PUSH1 0x24 DUP3 ADD MSTORE PUSH12 0x496E76616C6964207465616D PUSH1 0xA0 SHL PUSH1 0x44 DUP3 ADD MSTORE PUSH1 0x64 ADD PUSH2 0x23A JUMP JUMPDEST CALLER PUSH0 SWAP1 DUP2 MSTORE PUSH1 0x20 DUP2 SWAP1 MSTORE PUSH1 0x40 SWAP1 KECCAK256 DUP1 SLOAD DUP3 SWAP2 SWAP1 PUSH1 0xFF NOT AND PUSH1 0x1 DUP4 PUSH1 0x2 DUP2 GT ISZERO PUSH2 0x700 JUMPI PUSH2 0x700 PUSH2 0x7A6 JUMP JUMPDEST MUL OR SWAP1 SSTORE POP CALLER PUSH0 DUP2 DUP2 MSTORE PUSH1 0x1 PUSH1 0x20 DUP2 SWAP1 MSTORE PUSH1 0x40 SWAP2 DUP3 SWAP1 KECCAK256 DUP1 SLOAD PUSH1 0xFF NOT AND SWAP1 SWAP2 OR SWAP1 SSTORE MLOAD PUSH32 0xC818D15C14B0FEB9CE55D7B3BFA666741D9C6A6F6743F78F330DDED8DCDF59C9 SWAP1 PUSH2 0x750 SWAP1 DUP5 SWAP1 PUSH2 0x8BF JUMP JUMPDEST PUSH1 0x40 MLOAD DUP1 SWAP2 SUB SWAP1 LOG2 POP JUMP JUMPDEST PUSH0 PUSH1 0x20 DUP3 DUP5 SUB SLT ISZERO PUSH2 0x76B JUMPI PUSH0 PUSH0 REVERT JUMPDEST DUP2 CALLDATALOAD PUSH1 0x3 DUP2 LT PUSH2 0x779 JUMPI PUSH0 PUSH0 REVERT JUMPDEST SWAP4 SWAP3 POP POP POP JUMP JUMPDEST PUSH0 PUSH1 0x20 DUP3 DUP5 SUB SLT ISZERO PUSH2 0x790 JUMPI PUSH0 PUSH0 REVERT JUMPDEST DUP2 CALLDATALOAD PUSH1 0x1 PUSH1 0x1 PUSH1 0xA0 SHL SUB DUP2 AND DUP2 EQ PUSH2 0x779 JUMPI PUSH0 PUSH0 REVERT JUMPDEST PUSH4 0x4E487B71 PUSH1 0xE0 SHL PUSH0 MSTORE PUSH1 0x21 PUSH1 0x4 MSTORE PUSH1 0x24 PUSH0 REVERT JUMPDEST PUSH1 0x3 DUP2 LT PUSH2 0x7D6 JUMPI PUSH4 0x4E487B71 PUSH1 0xE0 SHL PUSH0 MSTORE PUSH1 0x21 PUSH1 0x4 MSTORE PUSH1 0x24 PUSH0 REVERT JUMPDEST SWAP1 MSTORE JUMP JUMPDEST DUP3 ISZERO ISZERO DUP2 MSTORE PUSH1 0x40 DUP2 ADD PUSH2 0x779 PUSH1 0x20 DUP4 ADD DUP5 PUSH2 0x7BA JUMP JUMPDEST PUSH0 PUSH1 0x20 DUP3 DUP5 SUB SLT ISZERO PUSH2 0x800 JUMPI PUSH0 PUSH0 REVERT JUMPDEST DUP2 CALLDATALOAD PUSH4 0xFFFFFFFF DUP2 AND DUP2 EQ PUSH2 0x779 JUMPI PUSH0 PUSH0 REVERT JUMPDEST PUSH4 0x4E487B71 PUSH1 0xE0 SHL PUSH0 MSTORE PUSH1 0x32 PUSH1 0x4 MSTORE PUSH1 0x24 PUSH0 REVERT JUMPDEST PUSH4 0x4E487B71 PUSH1 0xE0 SHL PUSH0 MSTORE PUSH1 0x11 PUSH1 0x4 MSTORE PUSH1 0x24 PUSH0 REVERT JUMPDEST DUP1 DUP3 ADD DUP1 DUP3 GT ISZERO PUSH2 0x84E JUMPI PUSH2 0x84E PUSH2 0x827 JUMP JUMPDEST SWAP3 SWAP2 POP POP JUMP JUMPDEST PUSH0 PUSH1 0x1 DUP3 ADD PUSH2 0x865 JUMPI PUSH2 0x865 PUSH2 0x827 JUMP JUMPDEST POP PUSH1 0x1 ADD SWAP1 JUMP JUMPDEST PUSH1 0x40 DUP2 ADD PUSH2 0x87A DUP3 DUP6 PUSH2 0x7BA JUMP JUMPDEST DUP3 PUSH1 0x20 DUP4 ADD MSTORE SWAP4 SWAP3 POP POP POP JUMP JUMPDEST DUP2 DUP2 SUB DUP2 DUP2 GT ISZERO PUSH2 0x84E JUMPI PUSH2 0x84E PUSH2 0x827 JUMP JUMPDEST PUSH1 0x60 DUP2 ADD PUSH2 0x8A8 DUP3 DUP7 PUSH2 0x7BA JUMP JUMPDEST PUSH4 0xFFFFFFFF SWAP4 SWAP1 SWAP4 AND PUSH1 0x20 DUP3 ADD MSTORE PUSH1 0x40 ADD MSTORE SWAP2 SWAP1 POP JUMP JUMPDEST PUSH1 0x20 DUP2 ADD PUSH2 0x84E DUP3 DUP5 PUSH2 0x7BA JUMP INVALID LOG2 PUSH5 0x6970667358 0x22 SLT KECCAK256 0xDD 0xEA 0xF8 0x4E 0xDD DELEGATECALL LOG3 LOG2 0xC2 EXTCODESIZE SWAP8 CALLVALUE SWAP1 0xE PUSH6 0x953D329653A2 DUP13 EXP SWAP14 0xD2 SIGNEXTEND 0xA6 0xD8 RETURN ISZERO PREVRANDAO SWAP2 PUSH5 0x736F6C6343 STOP ADDMOD SHR STOP CALLER "},"methodIdentifiers":{"chooseTeam(uint8)":"d6ebb352","getPlayerScore(address)":"e085c539","getScore(uint8)":"5bc5980c","getScores()":"1ea1380c","getTeam(address)":"87529f0f","owner()":"8da5cb5b","pop()":"a4ece52c","popBy(uint32)":"d4080f11","resetPlayer(address)":"c95e0909"}}}}}