{
  "_format": "hh3-artifact-1",
  "contractName": "PopKomodo",
  "sourceName": "contracts/PopKomodo.sol",
  "abi": [
    {
      "inputs": [],
      "stateMutability": "nonpayable",
      "type": "constructor"
    },
    {
      "anonymous": false,
      "inputs": [
        {
          "indexed": true,
          "internalType": "address",
          "name": "player",
          "type": "address"
        },
        {
          "indexed": false,
          "internalType": "enum PopKomodo.Team",
          "name": "team",
          "type": "uint8"
        },
        {
          "indexed": false,
          "internalType": "uint256",
          "name": "removed",
          "type": "uint256"
        }
      ],
      "name": "PlayerReset",
      "type": "event"
    },
    {
      "anonymous": false,
      "inputs": [
        {
          "indexed": true,
          "internalType": "address",
          "name": "player",
          "type": "address"
        },
        {
          "indexed": false,
          "internalType": "enum PopKomodo.Team",
          "name": "team",
          "type": "uint8"
        },
        {
          "indexed": false,
          "internalType": "uint256",
          "name": "newTeamScore",
          "type": "uint256"
        }
      ],
      "name": "Popped",
      "type": "event"
    },
    {
      "anonymous": false,
      "inputs": [
        {
          "indexed": true,
          "internalType": "address",
          "name": "player",
          "type": "address"
        },
        {
          "indexed": false,
          "internalType": "enum PopKomodo.Team",
          "name": "team",
          "type": "uint8"
        },
        {
          "indexed": false,
          "internalType": "uint32",
          "name": "amount",
          "type": "uint32"
        },
        {
          "indexed": false,
          "internalType": "uint256",
          "name": "newTeamScore",
          "type": "uint256"
        }
      ],
      "name": "PoppedBy",
      "type": "event"
    },
    {
      "anonymous": false,
      "inputs": [
        {
          "indexed": true,
          "internalType": "address",
          "name": "player",
          "type": "address"
        },
        {
          "indexed": false,
          "internalType": "enum PopKomodo.Team",
          "name": "team",
          "type": "uint8"
        }
      ],
      "name": "TeamChosen",
      "type": "event"
    },
    {
      "inputs": [
        {
          "internalType": "enum PopKomodo.Team",
          "name": "team",
          "type": "uint8"
        }
      ],
      "name": "chooseTeam",
      "outputs": [],
      "stateMutability": "nonpayable",
      "type": "function"
    },
    {
      "inputs": [
        {
          "internalType": "address",
          "name": "player",
          "type": "address"
        }
      ],
      "name": "getPlayerScore",
      "outputs": [
        {
          "internalType": "uint256",
          "name": "",
          "type": "uint256"
        }
      ],
      "stateMutability": "view",
      "type": "function"
    },
    {
      "inputs": [
        {
          "internalType": "enum PopKomodo.Team",
          "name": "team",
          "type": "uint8"
        }
      ],
      "name": "getScore",
      "outputs": [
        {
          "internalType": "uint256",
          "name": "",
          "type": "uint256"
        }
      ],
      "stateMutability": "view",
      "type": "function"
    },
    {
      "inputs": [],
      "name": "getScores",
      "outputs": [
        {
          "internalType": "uint256",
          "name": "ethScore",
          "type": "uint256"
        },
        {
          "internalType": "uint256",
          "name": "btcScore",
          "type": "uint256"
        },
        {
          "internalType": "uint256",
          "name": "monadScore",
          "type": "uint256"
        }
      ],
      "stateMutability": "view",
      "type": "function"
    },
    {
      "inputs": [
        {
          "internalType": "address",
          "name": "player",
          "type": "address"
        }
      ],
      "name": "getTeam",
      "outputs": [
        {
          "internalType": "bool",
          "name": "chosen",
          "type": "bool"
        },
        {
          "internalType": "enum PopKomodo.Team",
          "name": "team",
          "type": "uint8"
        }
      ],
      "stateMutability": "view",
      "type": "function"
    },
    {
      "inputs": [],
      "name": "owner",
      "outputs": [
        {
          "internalType": "address",
          "name": "",
          "type": "address"
        }
      ],
      "stateMutability": "view",
      "type": "function"
    },
    {
      "inputs": [],
      "name": "pop",
      "outputs": [],
      "stateMutability": "nonpayable",
      "type": "function"
    },
    {
      "inputs": [
        {
          "internalType": "uint32",
          "name": "amount",
          "type": "uint32"
        }
      ],
      "name": "popBy",
      "outputs": [],
      "stateMutability": "nonpayable",
      "type": "function"
    },
    {
      "inputs": [
        {
          "internalType": "address",
          "name": "player",
          "type": "address"
        }
      ],
      "name": "resetPlayer",
      "outputs": [],
      "stateMutability": "nonpayable",
      "type": "function"
    }
  ],
  "bytecode": "0x6080604052348015600e575f5ffd5b50600680546001600160a01b031916331790556109038061002e5f395ff3fe608060405234801561000f575f5ffd5b5060043610610090575f3560e01c8063a4ece52c11610063578063a4ece52c14610152578063c95e09091461015c578063d4080f111461016f578063d6ebb35214610182578063e085c53914610195575f5ffd5b80631ea1380c146100945780635bc5980c146100bd57806387529f0f146100de5780638da5cb5b14610127575b5f5ffd5b600354600454600554604080519384526020840192909252908201526060015b60405180910390f35b6100d06100cb36600461075b565b6101bd565b6040519081526020016100b4565b6101196100ec366004610780565b6001600160a01b03165f90815260016020908152604080832054918390529091205460ff91821692911690565b6040516100b49291906107da565b60065461013a906001600160a01b031681565b6040516001600160a01b0390911681526020016100b4565b61015a6101ea565b005b61015a61016a366004610780565b610302565b61015a61017d3660046107f0565b6104bf565b61015a61019036600461075b565b610630565b6100d06101a3366004610780565b6001600160a01b03165f9081526002602052604090205490565b5f60038260028111156101d2576101d26107a6565b600381106101e2576101e2610813565b015492915050565b335f9081526001602052604090205460ff166102435760405162461bcd60e51b815260206004820152601360248201527210da1bdbdcd94818481d19585b48199a5c9cdd606a1b60448201526064015b60405180910390fd5b335f9081526020819052604081205460ff1690816002811115610268576102686107a6565b335f908152600260205260408120805492935060019290919061028c90849061083b565b909155505f90506003828181106102a5576102a5610813565b015f81546102b290610854565b9190508190559050336001600160a01b03167fec5b73da1e228e82cf83011dddc4807d9a35f284ed56dc9b941648056cc2c3d684836040516102f592919061086c565b60405180910390a2505050565b6006546001600160a01b031633146103485760405162461bcd60e51b81526020600482015260096024820152682737ba1037bbb732b960b91b604482015260640161023a565b6001600160a01b0381165f9081526001602052604090205460ff166103995760405162461bcd60e51b81526020600482015260076024820152664e6f207465616d60c81b604482015260640161023a565b6001600160a01b0381165f90815260026020526040812054908190036103bd575050565b6001600160a01b0382165f9081526020819052604081205460ff16908160028111156103eb576103eb6107a6565b9050826003826003811061040157610401610813565b0154101561043d5760405162461bcd60e51b8152602060048201526009602482015268556e646572666c6f7760b81b604482015260640161023a565b826003826003811061045157610451610813565b015f8282546104609190610887565b90915550506001600160a01b0384165f8181526002602052604080822091909155517fcc3e35c67717913de4b2c3f349adba783790dc6c4558e4f576fd9aba77f81fa1906104b1908590879061086c565b60405180910390a250505050565b335f9081526001602052604090205460ff166105135760405162461bcd60e51b815260206004820152601360248201527210da1bdbdcd94818481d19585b48199a5c9cdd606a1b604482015260640161023a565b5f8163ffffffff161161055d5760405162461bcd60e51b81526020600482015260126024820152710416d6f756e74206d757374206265203e20360741b604482015260640161023a565b335f9081526020819052604081205460ff1690816002811115610582576105826107a6565b90508263ffffffff166003826003811061059e5761059e610813565b015f8282546105ad919061083b565b9091555050335f908152600260205260408120805463ffffffff861692906105d690849061083b565b909155505f90506003828181106105ef576105ef610813565b01549050336001600160a01b03167f9d92285d19ba085f1672f4710e6346c19a6ee71154e8fe442fd8b47963e5d2408486846040516104b19392919061089a565b335f9081526001602052604090205460ff16156106855760405162461bcd60e51b81526020600482015260136024820152722a32b0b69030b63932b0b23c9031b437b9b2b760691b604482015260640161023a565b6003816002811115610699576106996107a6565b106106d55760405162461bcd60e51b815260206004820152600c60248201526b496e76616c6964207465616d60a01b604482015260640161023a565b335f908152602081905260409020805482919060ff19166001836002811115610700576107006107a6565b0217905550335f81815260016020819052604091829020805460ff19169091179055517fc818d15c14b0feb9ce55d7b3bfa666741d9c6a6f6743f78f330dded8dcdf59c9906107509084906108bf565b60405180910390a250565b5f6020828403121561076b575f5ffd5b813560038110610779575f5ffd5b9392505050565b5f60208284031215610790575f5ffd5b81356001600160a01b0381168114610779575f5ffd5b634e487b7160e01b5f52602160045260245ffd5b600381106107d657634e487b7160e01b5f52602160045260245ffd5b9052565b82151581526040810161077960208301846107ba565b5f60208284031215610800575f5ffd5b813563ffffffff81168114610779575f5ffd5b634e487b7160e01b5f52603260045260245ffd5b634e487b7160e01b5f52601160045260245ffd5b8082018082111561084e5761084e610827565b92915050565b5f6001820161086557610865610827565b5060010190565b6040810161087a82856107ba565b8260208301529392505050565b8181038181111561084e5761084e610827565b606081016108a882866107ba565b63ffffffff93909316602082015260400152919050565b6020810161084e82846107ba56fea2646970667358221220ddeaf84eddf4a3a2c23b9734900e65953d329653a28c0a9dd20ba6d8f315449164736f6c634300081c0033",
  "linkReferences": {},
  "deployedLinkReferences": {},
  "immutableReferences": {},
  "inputSourceName": "project/contracts/PopKomodo.sol",
  "buildInfoId": "solc-0_8_28-e97d6b0e7e84504e8f0821bbf1c2658a79390718"
}