{
  "_format": "hh-sol-artifact-1",
  "contractName": "GameAssets",
  "sourceName": "contracts/GameAssets.sol",
  "abi": [
    {
      "inputs": [
        {
          "internalType": "address",
          "name": "owner_",
          "type": "address"
        }
      ],
      "stateMutability": "nonpayable",
      "type": "constructor"
    },
    {
      "inputs": [],
      "name": "NotManager",
      "type": "error"
    },
    {
      "inputs": [],
      "name": "NotOriginalOwner",
      "type": "error"
    },
    {
      "inputs": [
        {
          "internalType": "address",
          "name": "owner",
          "type": "address"
        }
      ],
      "name": "OwnableInvalidOwner",
      "type": "error"
    },
    {
      "inputs": [
        {
          "internalType": "address",
          "name": "account",
          "type": "address"
        }
      ],
      "name": "OwnableUnauthorizedAccount",
      "type": "error"
    },
    {
      "anonymous": false,
      "inputs": [
        {
          "indexed": true,
          "internalType": "address",
          "name": "previousOwner",
          "type": "address"
        },
        {
          "indexed": true,
          "internalType": "address",
          "name": "newOwner",
          "type": "address"
        }
      ],
      "name": "OwnershipTransferred",
      "type": "event"
    },
    {
      "anonymous": false,
      "inputs": [
        {
          "indexed": true,
          "internalType": "address",
          "name": "user",
          "type": "address"
        },
        {
          "indexed": true,
          "internalType": "address",
          "name": "nft",
          "type": "address"
        },
        {
          "indexed": true,
          "internalType": "uint256",
          "name": "tokenId",
          "type": "uint256"
        }
      ],
      "name": "Recorded",
      "type": "event"
    },
    {
      "anonymous": false,
      "inputs": [
        {
          "indexed": true,
          "internalType": "address",
          "name": "to",
          "type": "address"
        },
        {
          "indexed": true,
          "internalType": "address",
          "name": "nft",
          "type": "address"
        },
        {
          "indexed": true,
          "internalType": "uint256",
          "name": "tokenId",
          "type": "uint256"
        }
      ],
      "name": "Released",
      "type": "event"
    },
    {
      "inputs": [],
      "name": "manager",
      "outputs": [
        {
          "internalType": "address",
          "name": "",
          "type": "address"
        }
      ],
      "stateMutability": "view",
      "type": "function"
    },
    {
      "inputs": [
        {
          "internalType": "address",
          "name": "",
          "type": "address"
        },
        {
          "internalType": "address",
          "name": "from",
          "type": "address"
        },
        {
          "internalType": "uint256",
          "name": "tokenId",
          "type": "uint256"
        },
        {
          "internalType": "bytes",
          "name": "",
          "type": "bytes"
        }
      ],
      "name": "onERC721Received",
      "outputs": [
        {
          "internalType": "bytes4",
          "name": "",
          "type": "bytes4"
        }
      ],
      "stateMutability": "nonpayable",
      "type": "function"
    },
    {
      "inputs": [
        {
          "internalType": "address",
          "name": "",
          "type": "address"
        },
        {
          "internalType": "uint256",
          "name": "",
          "type": "uint256"
        }
      ],
      "name": "originalOwner",
      "outputs": [
        {
          "internalType": "address",
          "name": "",
          "type": "address"
        }
      ],
      "stateMutability": "view",
      "type": "function"
    },
    {
      "inputs": [],
      "name": "owner",
      "outputs": [
        {
          "internalType": "address",
          "name": "",
          "type": "address"
        }
      ],
      "stateMutability": "view",
      "type": "function"
    },
    {
      "inputs": [
        {
          "internalType": "address",
          "name": "nft",
          "type": "address"
        },
        {
          "internalType": "uint256",
          "name": "tokenId",
          "type": "uint256"
        },
        {
          "internalType": "address",
          "name": "to",
          "type": "address"
        }
      ],
      "name": "release",
      "outputs": [],
      "stateMutability": "nonpayable",
      "type": "function"
    },
    {
      "inputs": [],
      "name": "renounceOwnership",
      "outputs": [],
      "stateMutability": "nonpayable",
      "type": "function"
    },
    {
      "inputs": [
        {
          "internalType": "address",
          "name": "manager_",
          "type": "address"
        }
      ],
      "name": "setManager",
      "outputs": [],
      "stateMutability": "nonpayable",
      "type": "function"
    },
    {
      "inputs": [
        {
          "internalType": "address",
          "name": "newOwner",
          "type": "address"
        }
      ],
      "name": "transferOwnership",
      "outputs": [],
      "stateMutability": "nonpayable",
      "type": "function"
    }
  ],
  "bytecode": "0x608060405234801561001057600080fd5b506040516106a43803806106a483398101604081905261002f916100be565b806001600160a01b03811661005e57604051631e4fbdf760e01b81526000600482015260240160405180910390fd5b6100678161006e565b50506100ee565b600080546001600160a01b038381166001600160a01b0319831681178455604051919092169283917f8be0079c531659141344cd1fd0a4f28419497f9722a3daafe3b4186f6b6457e09190a35050565b6000602082840312156100d057600080fd5b81516001600160a01b03811681146100e757600080fd5b9392505050565b6105a7806100fd6000396000f3fe608060405234801561001057600080fd5b50600436106100885760003560e01c80638da5cb5b1161005b5780638da5cb5b14610106578063d0ebdbe714610117578063df06809f1461012a578063f2fde38b1461015e57600080fd5b8063150b7a021461008d57806315f41501146100be578063481c6a75146100d3578063715018a6146100fe575b600080fd5b6100a061009b36600461044c565b610171565b6040516001600160e01b031990911681526020015b60405180910390f35b6100d16100cc3660046104e9565b6101e9565b005b6002546100e6906001600160a01b031681565b6040516001600160a01b0390911681526020016100b5565b6100d1610332565b6000546001600160a01b03166100e6565b6100d1610125366004610525565b610346565b6100e6610138366004610547565b60016020908152600092835260408084209091529082529020546001600160a01b031681565b6100d161016c366004610525565b610370565b33600081815260016020908152604080832087845290915280822080546001600160a01b0319166001600160a01b0389169081179091559051919291869183917f659bc80bc242961c9afc63e72f9f54fb069796e4f72ad1ae148759957889ad68908690a450630a85bd0160e11b9695505050505050565b6002546001600160a01b031633146102145760405163607e454560e11b815260040160405180910390fd5b6001600160a01b03838116600090815260016020908152604080832086845290915290205481169082161461025c576040516323a7681d60e01b815260040160405180910390fd5b6001600160a01b0383811660008181526001602090815260408083208784529091529081902080546001600160a01b031916905551632142170760e11b8152306004820152918316602483015260448201849052906342842e0e90606401600060405180830381600087803b1580156102d457600080fd5b505af11580156102e8573d6000803e3d6000fd5b5050505081836001600160a01b0316826001600160a01b03167f2d87480f50083e2b2759522a8fdda59802650a8055e609a7772cf70c07748f5260405160405180910390a4505050565b61033a6103b3565b61034460006103e0565b565b61034e6103b3565b600280546001600160a01b0319166001600160a01b0392909216919091179055565b6103786103b3565b6001600160a01b0381166103a757604051631e4fbdf760e01b8152600060048201526024015b60405180910390fd5b6103b0816103e0565b50565b6000546001600160a01b031633146103445760405163118cdaa760e01b815233600482015260240161039e565b600080546001600160a01b038381166001600160a01b0319831681178455604051919092169283917f8be0079c531659141344cd1fd0a4f28419497f9722a3daafe3b4186f6b6457e09190a35050565b80356001600160a01b038116811461044757600080fd5b919050565b60008060008060006080868803121561046457600080fd5b61046d86610430565b945061047b60208701610430565b935060408601359250606086013567ffffffffffffffff81111561049e57600080fd5b8601601f810188136104af57600080fd5b803567ffffffffffffffff8111156104c657600080fd5b8860208284010111156104d857600080fd5b959894975092955050506020019190565b6000806000606084860312156104fe57600080fd5b61050784610430565b92506020840135915061051c60408501610430565b90509250925092565b60006020828403121561053757600080fd5b61054082610430565b9392505050565b6000806040838503121561055a57600080fd5b61056383610430565b94602093909301359350505056fea26469706673582212204446e6a4d972faf599565cff9a38d7853a057c6a3f7abe920b9a16528c59c85164736f6c634300081c0033",
  "linkReferences": {},
  "deployedLinkReferences": {}
}