{
  "_format": "hh-sol-artifact-1",
  "contractName": "GameBank",
  "sourceName": "contracts/GameBank.sol",
  "abi": [
    {
      "inputs": [
        {
          "internalType": "address",
          "name": "owner_",
          "type": "address"
        }
      ],
      "stateMutability": "nonpayable",
      "type": "constructor"
    },
    {
      "inputs": [],
      "name": "NotManager",
      "type": "error"
    },
    {
      "inputs": [
        {
          "internalType": "address",
          "name": "owner",
          "type": "address"
        }
      ],
      "name": "OwnableInvalidOwner",
      "type": "error"
    },
    {
      "inputs": [
        {
          "internalType": "address",
          "name": "account",
          "type": "address"
        }
      ],
      "name": "OwnableUnauthorizedAccount",
      "type": "error"
    },
    {
      "inputs": [],
      "name": "TransferFail",
      "type": "error"
    },
    {
      "anonymous": false,
      "inputs": [
        {
          "indexed": true,
          "internalType": "address",
          "name": "previousOwner",
          "type": "address"
        },
        {
          "indexed": true,
          "internalType": "address",
          "name": "newOwner",
          "type": "address"
        }
      ],
      "name": "OwnershipTransferred",
      "type": "event"
    },
    {
      "inputs": [],
      "name": "manager",
      "outputs": [
        {
          "internalType": "address",
          "name": "",
          "type": "address"
        }
      ],
      "stateMutability": "view",
      "type": "function"
    },
    {
      "inputs": [],
      "name": "owner",
      "outputs": [
        {
          "internalType": "address",
          "name": "",
          "type": "address"
        }
      ],
      "stateMutability": "view",
      "type": "function"
    },
    {
      "inputs": [],
      "name": "renounceOwnership",
      "outputs": [],
      "stateMutability": "nonpayable",
      "type": "function"
    },
    {
      "inputs": [
        {
          "internalType": "address",
          "name": "manager_",
          "type": "address"
        }
      ],
      "name": "setManager",
      "outputs": [],
      "stateMutability": "nonpayable",
      "type": "function"
    },
    {
      "inputs": [
        {
          "internalType": "address",
          "name": "token",
          "type": "address"
        },
        {
          "internalType": "address",
          "name": "to",
          "type": "address"
        },
        {
          "internalType": "uint256",
          "name": "amount",
          "type": "uint256"
        }
      ],
      "name": "transferOut",
      "outputs": [],
      "stateMutability": "nonpayable",
      "type": "function"
    },
    {
      "inputs": [
        {
          "internalType": "address",
          "name": "newOwner",
          "type": "address"
        }
      ],
      "name": "transferOwnership",
      "outputs": [],
      "stateMutability": "nonpayable",
      "type": "function"
    }
  ],
  "bytecode": "0x608060405234801561001057600080fd5b5060405161047738038061047783398101604081905261002f916100be565b806001600160a01b03811661005e57604051631e4fbdf760e01b81526000600482015260240160405180910390fd5b6100678161006e565b50506100ee565b600080546001600160a01b038381166001600160a01b0319831681178455604051919092169283917f8be0079c531659141344cd1fd0a4f28419497f9722a3daafe3b4186f6b6457e09190a35050565b6000602082840312156100d057600080fd5b81516001600160a01b03811681146100e757600080fd5b9392505050565b61037a806100fd6000396000f3fe608060405234801561001057600080fd5b50600436106100625760003560e01c8063078d3b7914610067578063481c6a751461007c578063715018a6146100ab5780638da5cb5b146100b3578063d0ebdbe7146100c4578063f2fde38b146100d7575b600080fd5b61007a6100753660046102c4565b6100ea565b005b60015461008f906001600160a01b031681565b6040516001600160a01b03909116815260200160405180910390f35b61007a6101aa565b6000546001600160a01b031661008f565b61007a6100d2366004610300565b6101be565b61007a6100e5366004610300565b6101e8565b6001546001600160a01b031633146101155760405163607e454560e11b815260040160405180910390fd5b60405163a9059cbb60e01b81526001600160a01b0383811660048301526024820183905284169063a9059cbb906044016020604051808303816000875af1158015610164573d6000803e3d6000fd5b505050506040513d601f19601f820116820180604052508101906101889190610322565b6101a557604051632727990760e21b815260040160405180910390fd5b505050565b6101b261022b565b6101bc6000610258565b565b6101c661022b565b600180546001600160a01b0319166001600160a01b0392909216919091179055565b6101f061022b565b6001600160a01b03811661021f57604051631e4fbdf760e01b8152600060048201526024015b60405180910390fd5b61022881610258565b50565b6000546001600160a01b031633146101bc5760405163118cdaa760e01b8152336004820152602401610216565b600080546001600160a01b038381166001600160a01b0319831681178455604051919092169283917f8be0079c531659141344cd1fd0a4f28419497f9722a3daafe3b4186f6b6457e09190a35050565b80356001600160a01b03811681146102bf57600080fd5b919050565b6000806000606084860312156102d957600080fd5b6102e2846102a8565b92506102f0602085016102a8565b9150604084013590509250925092565b60006020828403121561031257600080fd5b61031b826102a8565b9392505050565b60006020828403121561033457600080fd5b8151801515811461031b57600080fdfea2646970667358221220358c04c4ef662c5b7c7245ab854530b6f17dddbd0644ad9d266510e3be56767864736f6c634300081c0033",
  "linkReferences": {},
  "deployedLinkReferences": {}
}