{
  "_format": "hh-sol-artifact-1",
  "contractName": "Diamond",
  "sourceName": "contracts/Tokens/Diamond.sol",
  "abi": [
    {
      "inputs": [
        {
          "internalType": "address",
          "name": "owner_",
          "type": "address"
        }
      ],
      "stateMutability": "nonpayable",
      "type": "constructor"
    },
    {
      "inputs": [
        {
          "internalType": "address",
          "name": "spender",
          "type": "address"
        },
        {
          "internalType": "uint256",
          "name": "allowance",
          "type": "uint256"
        },
        {
          "internalType": "uint256",
          "name": "needed",
          "type": "uint256"
        }
      ],
      "name": "ERC20InsufficientAllowance",
      "type": "error"
    },
    {
      "inputs": [
        {
          "internalType": "address",
          "name": "sender",
          "type": "address"
        },
        {
          "internalType": "uint256",
          "name": "balance",
          "type": "uint256"
        },
        {
          "internalType": "uint256",
          "name": "needed",
          "type": "uint256"
        }
      ],
      "name": "ERC20InsufficientBalance",
      "type": "error"
    },
    {
      "inputs": [
        {
          "internalType": "address",
          "name": "approver",
          "type": "address"
        }
      ],
      "name": "ERC20InvalidApprover",
      "type": "error"
    },
    {
      "inputs": [
        {
          "internalType": "address",
          "name": "receiver",
          "type": "address"
        }
      ],
      "name": "ERC20InvalidReceiver",
      "type": "error"
    },
    {
      "inputs": [
        {
          "internalType": "address",
          "name": "sender",
          "type": "address"
        }
      ],
      "name": "ERC20InvalidSender",
      "type": "error"
    },
    {
      "inputs": [
        {
          "internalType": "address",
          "name": "spender",
          "type": "address"
        }
      ],
      "name": "ERC20InvalidSpender",
      "type": "error"
    },
    {
      "inputs": [
        {
          "internalType": "address",
          "name": "owner",
          "type": "address"
        }
      ],
      "name": "OwnableInvalidOwner",
      "type": "error"
    },
    {
      "inputs": [
        {
          "internalType": "address",
          "name": "account",
          "type": "address"
        }
      ],
      "name": "OwnableUnauthorizedAccount",
      "type": "error"
    },
    {
      "anonymous": false,
      "inputs": [
        {
          "indexed": true,
          "internalType": "address",
          "name": "owner",
          "type": "address"
        },
        {
          "indexed": true,
          "internalType": "address",
          "name": "spender",
          "type": "address"
        },
        {
          "indexed": false,
          "internalType": "uint256",
          "name": "value",
          "type": "uint256"
        }
      ],
      "name": "Approval",
      "type": "event"
    },
    {
      "anonymous": false,
      "inputs": [
        {
          "indexed": true,
          "internalType": "address",
          "name": "previousOwner",
          "type": "address"
        },
        {
          "indexed": true,
          "internalType": "address",
          "name": "newOwner",
          "type": "address"
        }
      ],
      "name": "OwnershipTransferred",
      "type": "event"
    },
    {
      "anonymous": false,
      "inputs": [
        {
          "indexed": true,
          "internalType": "address",
          "name": "from",
          "type": "address"
        },
        {
          "indexed": true,
          "internalType": "address",
          "name": "to",
          "type": "address"
        },
        {
          "indexed": false,
          "internalType": "uint256",
          "name": "value",
          "type": "uint256"
        }
      ],
      "name": "Transfer",
      "type": "event"
    },
    {
      "inputs": [
        {
          "internalType": "address",
          "name": "owner",
          "type": "address"
        },
        {
          "internalType": "address",
          "name": "spender",
          "type": "address"
        }
      ],
      "name": "allowance",
      "outputs": [
        {
          "internalType": "uint256",
          "name": "",
          "type": "uint256"
        }
      ],
      "stateMutability": "view",
      "type": "function"
    },
    {
      "inputs": [
        {
          "internalType": "address",
          "name": "spender",
          "type": "address"
        },
        {
          "internalType": "uint256",
          "name": "value",
          "type": "uint256"
        }
      ],
      "name": "approve",
      "outputs": [
        {
          "internalType": "bool",
          "name": "",
          "type": "bool"
        }
      ],
      "stateMutability": "nonpayable",
      "type": "function"
    },
    {
      "inputs": [
        {
          "internalType": "address",
          "name": "account",
          "type": "address"
        }
      ],
      "name": "balanceOf",
      "outputs": [
        {
          "internalType": "uint256",
          "name": "",
          "type": "uint256"
        }
      ],
      "stateMutability": "view",
      "type": "function"
    },
    {
      "inputs": [
        {
          "internalType": "uint256",
          "name": "value",
          "type": "uint256"
        }
      ],
      "name": "burn",
      "outputs": [],
      "stateMutability": "nonpayable",
      "type": "function"
    },
    {
      "inputs": [
        {
          "internalType": "address",
          "name": "account",
          "type": "address"
        },
        {
          "internalType": "uint256",
          "name": "value",
          "type": "uint256"
        }
      ],
      "name": "burnFrom",
      "outputs": [],
      "stateMutability": "nonpayable",
      "type": "function"
    },
    {
      "inputs": [],
      "name": "decimals",
      "outputs": [
        {
          "internalType": "uint8",
          "name": "",
          "type": "uint8"
        }
      ],
      "stateMutability": "view",
      "type": "function"
    },
    {
      "inputs": [
        {
          "internalType": "address",
          "name": "to",
          "type": "address"
        },
        {
          "internalType": "uint256",
          "name": "amount",
          "type": "uint256"
        }
      ],
      "name": "mint",
      "outputs": [],
      "stateMutability": "nonpayable",
      "type": "function"
    },
    {
      "inputs": [],
      "name": "name",
      "outputs": [
        {
          "internalType": "string",
          "name": "",
          "type": "string"
        }
      ],
      "stateMutability": "view",
      "type": "function"
    },
    {
      "inputs": [],
      "name": "owner",
      "outputs": [
        {
          "internalType": "address",
          "name": "",
          "type": "address"
        }
      ],
      "stateMutability": "view",
      "type": "function"
    },
    {
      "inputs": [],
      "name": "renounceOwnership",
      "outputs": [],
      "stateMutability": "nonpayable",
      "type": "function"
    },
    {
      "inputs": [],
      "name": "symbol",
      "outputs": [
        {
          "internalType": "string",
          "name": "",
          "type": "string"
        }
      ],
      "stateMutability": "view",
      "type": "function"
    },
    {
      "inputs": [],
      "name": "totalSupply",
      "outputs": [
        {
          "internalType": "uint256",
          "name": "",
          "type": "uint256"
        }
      ],
      "stateMutability": "view",
      "type": "function"
    },
    {
      "inputs": [
        {
          "internalType": "address",
          "name": "to",
          "type": "address"
        },
        {
          "internalType": "uint256",
          "name": "value",
          "type": "uint256"
        }
      ],
      "name": "transfer",
      "outputs": [
        {
          "internalType": "bool",
          "name": "",
          "type": "bool"
        }
      ],
      "stateMutability": "nonpayable",
      "type": "function"
    },
    {
      "inputs": [
        {
          "internalType": "address",
          "name": "from",
          "type": "address"
        },
        {
          "internalType": "address",
          "name": "to",
          "type": "address"
        },
        {
          "internalType": "uint256",
          "name": "value",
          "type": "uint256"
        }
      ],
      "name": "transferFrom",
      "outputs": [
        {
          "internalType": "bool",
          "name": "",
          "type": "bool"
        }
      ],
      "stateMutability": "nonpayable",
      "type": "function"
    },
    {
      "inputs": [
        {
          "internalType": "address",
          "name": "newOwner",
          "type": "address"
        }
      ],
      "name": "transferOwnership",
      "outputs": [],
      "stateMutability": "nonpayable",
      "type": "function"
    }
  ],
  "bytecode": "0x608060405234801561001057600080fd5b50604051610ddb380380610ddb83398101604081905261002f91610298565b806040518060400160405280600a81526020016911140b511a585b5bdb9960b21b815250604051806040016040528060048152602001634450444d60e01b815250816003908161007f9190610367565b50600461008c8282610367565b5050506001600160a01b0381166100be57604051631e4fbdf760e01b8152600060048201526024015b60405180910390fd5b6100c7816100e2565b506100dc8169d3c21bcecceda1000000610134565b5061044c565b600580546001600160a01b038381166001600160a01b0319831681179093556040519116919082907f8be0079c531659141344cd1fd0a4f28419497f9722a3daafe3b4186f6b6457e090600090a35050565b6001600160a01b03821661015e5760405163ec442f0560e01b8152600060048201526024016100b5565b61016a6000838361016e565b5050565b6001600160a01b03831661019957806002600082825461018e9190610425565b9091555061020b9050565b6001600160a01b038316600090815260208190526040902054818110156101ec5760405163391434e360e21b81526001600160a01b038516600482015260248101829052604481018390526064016100b5565b6001600160a01b03841660009081526020819052604090209082900390555b6001600160a01b03821661022757600280548290039055610246565b6001600160a01b03821660009081526020819052604090208054820190555b816001600160a01b0316836001600160a01b03167fddf252ad1be2c89b69c2b068fc378daa952ba7f163c4a11628f55a4df523b3ef8360405161028b91815260200190565b60405180910390a3505050565b6000602082840312156102aa57600080fd5b81516001600160a01b03811681146102c157600080fd5b9392505050565b634e487b7160e01b600052604160045260246000fd5b600181811c908216806102f257607f821691505b60208210810361031257634e487b7160e01b600052602260045260246000fd5b50919050565b601f82111561036257806000526020600020601f840160051c8101602085101561033f5750805b601f840160051c820191505b8181101561035f576000815560010161034b565b50505b505050565b81516001600160401b03811115610380576103806102c8565b6103948161038e84546102de565b84610318565b6020601f8211600181146103c857600083156103b05750848201515b600019600385901b1c1916600184901b17845561035f565b600084815260208120601f198516915b828110156103f857878501518255602094850194600190920191016103d8565b50848210156104165786840151600019600387901b60f8161c191681555b50505050600190811b01905550565b8082018082111561044657634e487b7160e01b600052601160045260246000fd5b92915050565b6109808061045b6000396000f3fe608060405234801561001057600080fd5b50600436106100f55760003560e01c806370a082311161009757806395d89b411161006657806395d89b41146101f6578063a9059cbb146101fe578063dd62ed3e14610211578063f2fde38b1461024a57600080fd5b806370a0823114610197578063715018a6146101c057806379cc6790146101c85780638da5cb5b146101db57600080fd5b806323b872dd116100d357806323b872dd1461014d578063313ce5671461016057806340c10f191461016f57806342966c681461018457600080fd5b806306fdde03146100fa578063095ea7b31461011857806318160ddd1461013b575b600080fd5b61010261025d565b60405161010f91906107b0565b60405180910390f35b61012b61012636600461081a565b6102ef565b604051901515815260200161010f565b6002545b60405190815260200161010f565b61012b61015b366004610844565b610309565b6040516012815260200161010f565b61018261017d36600461081a565b61032d565b005b610182610192366004610881565b610343565b61013f6101a536600461089a565b6001600160a01b031660009081526020819052604090205490565b610182610350565b6101826101d636600461081a565b610364565b6005546040516001600160a01b03909116815260200161010f565b610102610379565b61012b61020c36600461081a565b610388565b61013f61021f3660046108bc565b6001600160a01b03918216600090815260016020908152604080832093909416825291909152205490565b61018261025836600461089a565b610396565b60606003805461026c906108ef565b80601f0160208091040260200160405190810160405280929190818152602001828054610298906108ef565b80156102e55780601f106102ba576101008083540402835291602001916102e5565b820191906000526020600020905b8154815290600101906020018083116102c857829003601f168201915b5050505050905090565b6000336102fd8185856103d6565b60019150505b92915050565b6000336103178582856103e8565b610322858585610467565b506001949350505050565b6103356104c6565b61033f82826104f3565b5050565b61034d3382610529565b50565b6103586104c6565b610362600061055f565b565b61036f8233836103e8565b61033f8282610529565b60606004805461026c906108ef565b6000336102fd818585610467565b61039e6104c6565b6001600160a01b0381166103cd57604051631e4fbdf760e01b8152600060048201526024015b60405180910390fd5b61034d8161055f565b6103e383838360016105b1565b505050565b6001600160a01b03838116600090815260016020908152604080832093861683529290522054600019811015610461578181101561045257604051637dc7a0d960e11b81526001600160a01b038416600482015260248101829052604481018390526064016103c4565b610461848484840360006105b1565b50505050565b6001600160a01b03831661049157604051634b637e8f60e11b8152600060048201526024016103c4565b6001600160a01b0382166104bb5760405163ec442f0560e01b8152600060048201526024016103c4565b6103e3838383610686565b6005546001600160a01b031633146103625760405163118cdaa760e01b81523360048201526024016103c4565b6001600160a01b03821661051d5760405163ec442f0560e01b8152600060048201526024016103c4565b61033f60008383610686565b6001600160a01b03821661055357604051634b637e8f60e11b8152600060048201526024016103c4565b61033f82600083610686565b600580546001600160a01b038381166001600160a01b0319831681179093556040519116919082907f8be0079c531659141344cd1fd0a4f28419497f9722a3daafe3b4186f6b6457e090600090a35050565b6001600160a01b0384166105db5760405163e602df0560e01b8152600060048201526024016103c4565b6001600160a01b03831661060557604051634a1406b160e11b8152600060048201526024016103c4565b6001600160a01b038085166000908152600160209081526040808320938716835292905220829055801561046157826001600160a01b0316846001600160a01b03167f8c5be1e5ebec7d5bd14f71427d1e84f3dd0314c0f7b2291e5b200ac8c7c3b9258460405161067891815260200190565b60405180910390a350505050565b6001600160a01b0383166106b15780600260008282546106a69190610929565b909155506107239050565b6001600160a01b038316600090815260208190526040902054818110156107045760405163391434e360e21b81526001600160a01b038516600482015260248101829052604481018390526064016103c4565b6001600160a01b03841660009081526020819052604090209082900390555b6001600160a01b03821661073f5760028054829003905561075e565b6001600160a01b03821660009081526020819052604090208054820190555b816001600160a01b0316836001600160a01b03167fddf252ad1be2c89b69c2b068fc378daa952ba7f163c4a11628f55a4df523b3ef836040516107a391815260200190565b60405180910390a3505050565b602081526000825180602084015260005b818110156107de57602081860181015160408684010152016107c1565b506000604082850101526040601f19601f83011684010191505092915050565b80356001600160a01b038116811461081557600080fd5b919050565b6000806040838503121561082d57600080fd5b610836836107fe565b946020939093013593505050565b60008060006060848603121561085957600080fd5b610862846107fe565b9250610870602085016107fe565b929592945050506040919091013590565b60006020828403121561089357600080fd5b5035919050565b6000602082840312156108ac57600080fd5b6108b5826107fe565b9392505050565b600080604083850312156108cf57600080fd5b6108d8836107fe565b91506108e6602084016107fe565b90509250929050565b600181811c9082168061090357607f821691505b60208210810361092357634e487b7160e01b600052602260045260246000fd5b50919050565b8082018082111561030357634e487b7160e01b600052601160045260246000fdfea264697066735822122039e08a00d6ab0d2292c0e263dbc8a69a44c2659c50294c46fc7c6e96c9b6f1af64736f6c634300081c0033",
  "linkReferences": {},
  "deployedLinkReferences": {}
}