{
  "_format": "hh-sol-artifact-1",
  "contractName": "GameAssetManager",
  "sourceName": "contracts/GameAssetManager.sol",
  "abi": [
    {
      "inputs": [
        {
          "internalType": "address",
          "name": "owner_",
          "type": "address"
        },
        {
          "internalType": "address",
          "name": "diamond_",
          "type": "address"
        },
        {
          "internalType": "address",
          "name": "assets_",
          "type": "address"
        },
        {
          "internalType": "address",
          "name": "bank_",
          "type": "address"
        }
      ],
      "stateMutability": "nonpayable",
      "type": "constructor"
    },
    {
      "inputs": [
        {
          "internalType": "address",
          "name": "owner",
          "type": "address"
        }
      ],
      "name": "OwnableInvalidOwner",
      "type": "error"
    },
    {
      "inputs": [
        {
          "internalType": "address",
          "name": "account",
          "type": "address"
        }
      ],
      "name": "OwnableUnauthorizedAccount",
      "type": "error"
    },
    {
      "inputs": [],
      "name": "ReentrancyGuardReentrantCall",
      "type": "error"
    },
    {
      "inputs": [],
      "name": "TransferFail",
      "type": "error"
    },
    {
      "anonymous": false,
      "inputs": [
        {
          "indexed": true,
          "internalType": "address",
          "name": "user",
          "type": "address"
        },
        {
          "indexed": true,
          "internalType": "address",
          "name": "nft",
          "type": "address"
        },
        {
          "indexed": true,
          "internalType": "uint256",
          "name": "tokenId",
          "type": "uint256"
        },
        {
          "indexed": false,
          "internalType": "bytes32",
          "name": "txId",
          "type": "bytes32"
        },
        {
          "indexed": false,
          "internalType": "uint256",
          "name": "chainId",
          "type": "uint256"
        }
      ],
      "name": "NFTDeposited",
      "type": "event"
    },
    {
      "anonymous": false,
      "inputs": [
        {
          "indexed": true,
          "internalType": "address",
          "name": "user",
          "type": "address"
        },
        {
          "indexed": true,
          "internalType": "address",
          "name": "nft",
          "type": "address"
        },
        {
          "indexed": true,
          "internalType": "uint256",
          "name": "tokenId",
          "type": "uint256"
        },
        {
          "indexed": false,
          "internalType": "bytes32",
          "name": "txId",
          "type": "bytes32"
        },
        {
          "indexed": false,
          "internalType": "uint256",
          "name": "chainId",
          "type": "uint256"
        }
      ],
      "name": "NFTWithdrawn",
      "type": "event"
    },
    {
      "anonymous": false,
      "inputs": [
        {
          "indexed": true,
          "internalType": "address",
          "name": "previousOwner",
          "type": "address"
        },
        {
          "indexed": true,
          "internalType": "address",
          "name": "newOwner",
          "type": "address"
        }
      ],
      "name": "OwnershipTransferred",
      "type": "event"
    },
    {
      "anonymous": false,
      "inputs": [
        {
          "indexed": true,
          "internalType": "address",
          "name": "user",
          "type": "address"
        },
        {
          "indexed": false,
          "internalType": "uint256",
          "name": "amount",
          "type": "uint256"
        },
        {
          "indexed": false,
          "internalType": "bytes32",
          "name": "txId",
          "type": "bytes32"
        },
        {
          "indexed": false,
          "internalType": "uint256",
          "name": "chainId",
          "type": "uint256"
        }
      ],
      "name": "TokenDeposited",
      "type": "event"
    },
    {
      "anonymous": false,
      "inputs": [
        {
          "indexed": true,
          "internalType": "address",
          "name": "user",
          "type": "address"
        },
        {
          "indexed": false,
          "internalType": "uint256",
          "name": "amount",
          "type": "uint256"
        },
        {
          "indexed": false,
          "internalType": "bytes32",
          "name": "txId",
          "type": "bytes32"
        },
        {
          "indexed": false,
          "internalType": "uint256",
          "name": "chainId",
          "type": "uint256"
        }
      ],
      "name": "TokenWithdrawn",
      "type": "event"
    },
    {
      "inputs": [],
      "name": "assetsVault",
      "outputs": [
        {
          "internalType": "address",
          "name": "",
          "type": "address"
        }
      ],
      "stateMutability": "view",
      "type": "function"
    },
    {
      "inputs": [],
      "name": "bankVault",
      "outputs": [
        {
          "internalType": "address",
          "name": "",
          "type": "address"
        }
      ],
      "stateMutability": "view",
      "type": "function"
    },
    {
      "inputs": [],
      "name": "chainId",
      "outputs": [
        {
          "internalType": "uint256",
          "name": "",
          "type": "uint256"
        }
      ],
      "stateMutability": "view",
      "type": "function"
    },
    {
      "inputs": [
        {
          "internalType": "address",
          "name": "nft",
          "type": "address"
        },
        {
          "internalType": "uint256",
          "name": "tokenId",
          "type": "uint256"
        },
        {
          "internalType": "bytes32",
          "name": "clientRef",
          "type": "bytes32"
        }
      ],
      "name": "depositNFT",
      "outputs": [],
      "stateMutability": "nonpayable",
      "type": "function"
    },
    {
      "inputs": [
        {
          "internalType": "uint256",
          "name": "amount",
          "type": "uint256"
        },
        {
          "internalType": "bytes32",
          "name": "clientRef",
          "type": "bytes32"
        }
      ],
      "name": "depositToken",
      "outputs": [],
      "stateMutability": "nonpayable",
      "type": "function"
    },
    {
      "inputs": [],
      "name": "diamond",
      "outputs": [
        {
          "internalType": "address",
          "name": "",
          "type": "address"
        }
      ],
      "stateMutability": "view",
      "type": "function"
    },
    {
      "inputs": [],
      "name": "owner",
      "outputs": [
        {
          "internalType": "address",
          "name": "",
          "type": "address"
        }
      ],
      "stateMutability": "view",
      "type": "function"
    },
    {
      "inputs": [],
      "name": "renounceOwnership",
      "outputs": [],
      "stateMutability": "nonpayable",
      "type": "function"
    },
    {
      "inputs": [
        {
          "internalType": "address",
          "name": "newOwner",
          "type": "address"
        }
      ],
      "name": "transferOwnership",
      "outputs": [],
      "stateMutability": "nonpayable",
      "type": "function"
    },
    {
      "inputs": [
        {
          "internalType": "address",
          "name": "nft",
          "type": "address"
        },
        {
          "internalType": "uint256",
          "name": "tokenId",
          "type": "uint256"
        },
        {
          "internalType": "bytes32",
          "name": "clientRef",
          "type": "bytes32"
        }
      ],
      "name": "withdrawNFT",
      "outputs": [],
      "stateMutability": "nonpayable",
      "type": "function"
    },
    {
      "inputs": [
        {
          "internalType": "uint256",
          "name": "amount",
          "type": "uint256"
        },
        {
          "internalType": "bytes32",
          "name": "clientRef",
          "type": "bytes32"
        }
      ],
      "name": "withdrawToken",
      "outputs": [],
      "stateMutability": "nonpayable",
      "type": "function"
    }
  ],
  "bytecode": "0x61010060405234801561001157600080fd5b50604051610a02380380610a02833981016040819052610030916100fb565b836001600160a01b03811661005f57604051631e4fbdf760e01b81526000600482015260240160405180910390fd5b6100688161008f565b50600180556001600160a01b0392831660805290821660a0521660c052504660e05261014f565b600080546001600160a01b038381166001600160a01b0319831681178455604051919092169283917f8be0079c531659141344cd1fd0a4f28419497f9722a3daafe3b4186f6b6457e09190a35050565b80516001600160a01b03811681146100f657600080fd5b919050565b6000806000806080858703121561011157600080fd5b61011a856100df565b9350610128602086016100df565b9250610136604086016100df565b9150610144606086016100df565b905092959194509250565b60805160a05160c05160e0516108356101cd6000396000818161015f015281816102c1015281816103bd015281816104c3015261060e01526000818161012701528181610257015261054501526000818160bd0152818161034b01526104600152600081816101ba01528181610222015261057401526108356000f3fe608060405234801561001057600080fd5b50600436106100a95760003560e01c80638da5cb5b116100715780638da5cb5b146101495780639a8a05921461015a578063abfc72941461018f578063c1612c44146101a2578063f0b7db4e146101b5578063f2fde38b146101dc57600080fd5b8063715018a6146100ae5780637b0c1f29146100b85780637d34900a146100fc5780638ad435891461010f5780638bad535f14610122575b600080fd5b6100b66101ef565b005b6100df7f000000000000000000000000000000000000000000000000000000000000000081565b6040516001600160a01b0390911681526020015b60405180910390f35b6100b661010a36600461074a565b610203565b6100b661011d366004610788565b610326565b6100df7f000000000000000000000000000000000000000000000000000000000000000081565b6000546001600160a01b03166100df565b6101817f000000000000000000000000000000000000000000000000000000000000000081565b6040519081526020016100f3565b6100b661019d366004610788565b61042c565b6100b66101b036600461074a565b610520565b6100df7f000000000000000000000000000000000000000000000000000000000000000081565b6100b66101ea3660046107bb565b610660565b6101f76106a3565b61020160006106d0565b565b61020b610720565b60405163078d3b7960e01b81526001600160a01b037f000000000000000000000000000000000000000000000000000000000000000081166004830152336024830152604482018490527f0000000000000000000000000000000000000000000000000000000000000000169063078d3b7990606401600060405180830381600087803b15801561029b57600080fd5b505af11580156102af573d6000803e3d6000fd5b505060408051858152602081018590527f0000000000000000000000000000000000000000000000000000000000000000918101919091523392507f5bcfa3bbced9167cbf8823cfcf832f788b1142d9e94f4c52fb006a47988c0e8b91506060015b60405180910390a261032260018055565b5050565b61032e610720565b604051632142170760e11b81523360048201526001600160a01b037f000000000000000000000000000000000000000000000000000000000000000081166024830152604482018490528416906342842e0e90606401600060405180830381600087803b15801561039e57600080fd5b505af11580156103b2573d6000803e3d6000fd5b5050604080518481527f000000000000000000000000000000000000000000000000000000000000000060208201528593506001600160a01b038716925033917fa6eaf8eb5c24d58c4b4e7af90acc93c6e9040b8dcf3a053e766182c3228d72fd91015b60405180910390a461042760018055565b505050565b610434610720565b6040516315f4150160e01b81526001600160a01b038481166004830152602482018490523360448301527f000000000000000000000000000000000000000000000000000000000000000016906315f4150190606401600060405180830381600087803b1580156104a457600080fd5b505af11580156104b8573d6000803e3d6000fd5b5050604080518481527f000000000000000000000000000000000000000000000000000000000000000060208201528593506001600160a01b038716925033917f0b36eca06ad2abcf143437487b73e1c8b2e7ea0c901d826c1978cde8f2b045239101610416565b610528610720565b6040516323b872dd60e01b81523360048201526001600160a01b037f000000000000000000000000000000000000000000000000000000000000000081166024830152604482018490527f000000000000000000000000000000000000000000000000000000000000000016906323b872dd906064016020604051808303816000875af11580156105bd573d6000803e3d6000fd5b505050506040513d601f19601f820116820180604052508101906105e191906107dd565b6105fe57604051632727990760e21b815260040160405180910390fd5b60408051838152602081018390527f00000000000000000000000000000000000000000000000000000000000000009181019190915233907ff0436f9e3859cb24e8faad860f1d2cb4a3b6209b1aae4ab58d2ca538d9278ef690606001610311565b6106686106a3565b6001600160a01b03811661069757604051631e4fbdf760e01b8152600060048201526024015b60405180910390fd5b6106a0816106d0565b50565b6000546001600160a01b031633146102015760405163118cdaa760e01b815233600482015260240161068e565b600080546001600160a01b038381166001600160a01b0319831681178455604051919092169283917f8be0079c531659141344cd1fd0a4f28419497f9722a3daafe3b4186f6b6457e09190a35050565b60026001540361074357604051633ee5aeb560e01b815260040160405180910390fd5b6002600155565b6000806040838503121561075d57600080fd5b50508035926020909101359150565b80356001600160a01b038116811461078357600080fd5b919050565b60008060006060848603121561079d57600080fd5b6107a68461076c565b95602085013595506040909401359392505050565b6000602082840312156107cd57600080fd5b6107d68261076c565b9392505050565b6000602082840312156107ef57600080fd5b815180151581146107d657600080fdfea2646970667358221220232cb19e66f97541bd2de5e3bf099e2ba277840b11b7cc46f0344e9bd60b2ac164736f6c634300081c0033",
  "linkReferences": {},
  "deployedLinkReferences": {}
}