{"src/Arena.sol":{"Arena":{"abi":[{"inputs":[{"internalType":"address","name":"_gameToken","type":"address"},{"internalType":"address","name":"_oracle","type":"address"},{"internalType":"address","name":"_mempool","type":"address"}],"stateMutability":"nonpayable","type":"constructor"},{"anonymous":false,"inputs":[{"indexed":true,"internalType":"address","name":"player","type":"address"},{"indexed":true,"internalType":"bytes32","name":"matchId","type":"bytes32"},{"indexed":false,"internalType":"uint256","name":"amount","type":"uint256"}],"name":"EntryFeePaid","type":"event"},{"anonymous":false,"inputs":[{"indexed":true,"internalType":"bytes32","name":"matchId","type":"bytes32"},{"indexed":false,"internalType":"string","name":"reason","type":"string"}],"name":"MatchCancelled","type":"event"},{"anonymous":false,"inputs":[{"indexed":true,"internalType":"bytes32","name":"matchId","type":"bytes32"},{"indexed":true,"internalType":"address","name":"creator","type":"address"},{"indexed":false,"internalType":"enum Arena.MatchMode","name":"mode","type":"uint8"},{"indexed":false,"internalType":"uint256","name":"stakeAmount","type":"uint256"},{"indexed":false,"internalType":"bytes32","name":"challengeHash","type":"bytes32"}],"name":"MatchCreated","type":"event"},{"anonymous":false,"inputs":[{"indexed":true,"internalType":"bytes32","name":"matchId","type":"bytes32"},{"indexed":true,"internalType":"address","name":"opponent","type":"address"}],"name":"MatchJoined","type":"event"},{"anonymous":false,"inputs":[{"indexed":true,"internalType":"bytes32","name":"matchId","type":"bytes32"},{"indexed":true,"internalType":"address","name":"player","type":"address"},{"indexed":false,"internalType":"uint256","name":"amount","type":"uint256"}],"name":"MatchRefunded","type":"event"},{"anonymous":false,"inputs":[{"indexed":true,"internalType":"bytes32","name":"matchId","type":"bytes32"},{"indexed":true,"internalType":"address","name":"winner","type":"address"},{"indexed":true,"internalType":"address","name":"loser","type":"address"},{"indexed":false,"internalType":"uint256","name":"payout","type":"uint256"}],"name":"MatchResolved","type":"event"},{"anonymous":false,"inputs":[{"indexed":true,"internalType":"bytes32","name":"matchId","type":"bytes32"}],"name":"MatchStarted","type":"event"},{"anonymous":false,"inputs":[{"indexed":true,"internalType":"address","name":"oldMempool","type":"address"},{"indexed":true,"internalType":"address","name":"newMempool","type":"address"}],"name":"MempoolUpdated","type":"event"},{"anonymous":false,"inputs":[{"indexed":true,"internalType":"address","name":"oldOracle","type":"address"},{"indexed":true,"internalType":"address","name":"newOracle","type":"address"}],"name":"OracleUpdated","type":"event"},{"anonymous":false,"inputs":[{"indexed":true,"internalType":"address","name":"previousOwner","type":"address"},{"indexed":true,"internalType":"address","name":"newOwner","type":"address"}],"name":"OwnershipTransferred","type":"event"},{"anonymous":false,"inputs":[{"indexed":false,"internalType":"address","name":"account","type":"address"}],"name":"Paused","type":"event"},{"anonymous":false,"inputs":[{"indexed":false,"internalType":"uint256","name":"oldFee","type":"uint256"},{"indexed":false,"internalType":"uint256","name":"newFee","type":"uint256"}],"name":"ProtocolFeeUpdated","type":"event"},{"anonymous":false,"inputs":[{"indexed":true,"internalType":"address","name":"to","type":"address"},{"indexed":false,"internalType":"uint256","name":"amount","type":"uint256"}],"name":"TreasuryWithdrawal","type":"event"},{"anonymous":false,"inputs":[{"indexed":false,"internalType":"address","name":"account","type":"address"}],"name":"Unpaused","type":"event"},{"inputs":[],"name":"ENTRY_FEE","outputs":[{"internalType":"uint256","name":"","type":"uint256"}],"stateMutability":"view","type":"function"},{"inputs":[],"name":"MATCH_TIMEOUT","outputs":[{"internalType":"uint256","name":"","type":"uint256"}],"stateMutability":"view","type":"function"},{"inputs":[],"name":"MAX_PROTOCOL_FEE_BPS","outputs":[{"internalType":"uint256","name":"","type":"uint256"}],"stateMutability":"view","type":"function"},{"inputs":[{"internalType":"bytes32","name":"matchId","type":"bytes32"}],"name":"cancelMatch","outputs":[],"stateMutability":"nonpayable","type":"function"},{"inputs":[{"internalType":"enum Arena.MatchMode","name":"mode","type":"uint8"},{"internalType":"uint256","name":"stakeAmount","type":"uint256"},{"internalType":"bytes32","name":"challengeHash","type":"bytes32"},{"internalType":"uint256","name":"timeLimit","type":"uint256"}],"name":"createMatch","outputs":[{"internalType":"bytes32","name":"matchId","type":"bytes32"}],"stateMutability":"nonpayable","type":"function"},{"inputs":[],"name":"gameToken","outputs":[{"internalType":"contract IERC20","name":"","type":"address"}],"stateMutability":"view","type":"function"},{"inputs":[],"name":"getEntryFee","outputs":[{"internalType":"uint256","name":"","type":"uint256"}],"stateMutability":"pure","type":"function"},{"inputs":[{"internalType":"bytes32","name":"matchId","type":"bytes32"}],"name":"getMatch","outputs":[{"components":[{"internalType":"bytes32","name":"id","type":"bytes32"},{"internalType":"address","name":"creator","type":"address"},{"internalType":"address","name":"opponent","type":"address"},{"internalType":"enum Arena.MatchMode","name":"mode","type":"uint8"},{"internalType":"uint256","name":"stakeAmount","type":"uint256"},{"internalType":"bytes32","name":"challengeHash","type":"bytes32"},{"internalType":"enum Arena.MatchStatus","name":"status","type":"uint8"},{"internalType":"address","name":"winner","type":"address"},{"internalType":"uint256","name":"createdAt","type":"uint256"},{"internalType":"uint256","name":"resolvedAt","type":"uint256"},{"internalType":"uint256","name":"timeLimit","type":"uint256"}],"internalType":"struct Arena.Match","name":"","type":"tuple"}],"stateMutability":"view","type":"function"},{"inputs":[],"name":"getMempool","outputs":[{"internalType":"address","name":"","type":"address"}],"stateMutability":"view","type":"function"},{"inputs":[{"internalType":"bytes32","name":"matchId","type":"bytes32"}],"name":"joinMatch","outputs":[],"stateMutability":"payable","type":"function"},{"inputs":[],"name":"matchCounter","outputs":[{"internalType":"uint256","name":"","type":"uint256"}],"stateMutability":"view","type":"function"},{"inputs":[{"internalType":"bytes32","name":"","type":"bytes32"}],"name":"matches","outputs":[{"internalType":"bytes32","name":"id","type":"bytes32"},{"internalType":"address","name":"creator","type":"address"},{"internalType":"address","name":"opponent","type":"address"},{"internalType":"enum Arena.MatchMode","name":"mode","type":"uint8"},{"internalType":"uint256","name":"stakeAmount","type":"uint256"},{"internalType":"bytes32","name":"challengeHash","type":"bytes32"},{"internalType":"enum Arena.MatchStatus","name":"status","type":"uint8"},{"internalType":"address","name":"winner","type":"address"},{"internalType":"uint256","name":"createdAt","type":"uint256"},{"internalType":"uint256","name":"resolvedAt","type":"uint256"},{"internalType":"uint256","name":"timeLimit","type":"uint256"}],"stateMutability":"view","type":"function"},{"inputs":[],"name":"mempool","outputs":[{"internalType":"address","name":"","type":"address"}],"stateMutability":"view","type":"function"},{"inputs":[],"name":"oracle","outputs":[{"internalType":"address","name":"","type":"address"}],"stateMutability":"view","type":"function"},{"inputs":[],"name":"owner","outputs":[{"internalType":"address","name":"","type":"address"}],"stateMutability":"view","type":"function"},{"inputs":[],"name":"pause","outputs":[],"stateMutability":"nonpayable","type":"function"},{"inputs":[],"name":"paused","outputs":[{"internalType":"bool","name":"","type":"bool"}],"stateMutability":"view","type":"function"},{"inputs":[{"internalType":"address","name":"","type":"address"}],"name":"playerStakes","outputs":[{"internalType":"uint256","name":"","type":"uint256"}],"stateMutability":"view","type":"function"},{"inputs":[],"name":"protocolFeeBps","outputs":[{"internalType":"uint256","name":"","type":"uint256"}],"stateMutability":"view","type":"function"},{"inputs":[{"internalType":"bytes32","name":"matchId","type":"bytes32"}],"name":"refundExpiredMatch","outputs":[],"stateMutability":"nonpayable","type":"function"},{"inputs":[],"name":"renounceOwnership","outputs":[],"stateMutability":"nonpayable","type":"function"},{"inputs":[{"internalType":"bytes32","name":"matchId","type":"bytes32"},{"internalType":"address","name":"winner","type":"address"},{"internalType":"bytes","name":"signature","type":"bytes"}],"name":"resolveMatch","outputs":[],"stateMutability":"nonpayable","type":"function"},{"inputs":[],"name":"totalTreasuryFees","outputs":[{"internalType":"uint256","name":"","type":"uint256"}],"stateMutability":"view","type":"function"},{"inputs":[{"internalType":"address","name":"newOwner","type":"address"}],"name":"transferOwnership","outputs":[],"stateMutability":"nonpayable","type":"function"},{"inputs":[],"name":"unpause","outputs":[],"stateMutability":"nonpayable","type":"function"},{"inputs":[{"internalType":"address","name":"newMempool","type":"address"}],"name":"updateMempool","outputs":[],"stateMutability":"nonpayable","type":"function"},{"inputs":[{"internalType":"address","name":"newOracle","type":"address"}],"name":"updateOracle","outputs":[],"stateMutability":"nonpayable","type":"function"},{"inputs":[{"internalType":"uint256","name":"newFeeBps","type":"uint256"}],"name":"updateProtocolFee","outputs":[],"stateMutability":"nonpayable","type":"function"},{"inputs":[{"internalType":"address","name":"to","type":"address"}],"name":"withdrawTreasuryFees","outputs":[],"stateMutability":"nonpayable","type":"function"}],"evm":{"bytecode":{"linkReferences":{},"object":"60a060405260fa6004553480156200001657600080fd5b5060405162002af438038062002af483398101604081905262000039916200020d565b60016000819055805460ff19169055620000533362000196565b6001600160a01b038316620000af5760405162461bcd60e51b815260206004820152601960248201527f4172656e613a20696e76616c69642067616d6520746f6b656e0000000000000060448201526064015b60405180910390fd5b6001600160a01b038216620001075760405162461bcd60e51b815260206004820152601560248201527f4172656e613a20696e76616c6964206f7261636c6500000000000000000000006044820152606401620000a6565b6001600160a01b0381166200015f5760405162461bcd60e51b815260206004820152601660248201527f4172656e613a20696e76616c6964206d656d706f6f6c000000000000000000006044820152606401620000a6565b6001600160a01b03928316608052600280549284166001600160a01b03199384161790556003805491909316911617905562000257565b600180546001600160a01b03838116610100818102610100600160a81b031985161790945560405193909204169182907f8be0079c531659141344cd1fd0a4f28419497f9722a3daafe3b4186f6b6457e090600090a35050565b80516001600160a01b03811681146200020857600080fd5b919050565b6000806000606084860312156200022357600080fd5b6200022e84620001f0565b92506200023e60208501620001f0565b91506200024e60408501620001f0565b90509250925092565b608051612849620002ab600039600081816104c10152818161088101528181610d2701528181610f05015281816113930152818161157f015281816118d0015281816119120152611a2601526128496000f3fe6080604052600436106101c25760003560e01c80639fadfc06116100f7578063c82db8f911610095578063ea280be311610064578063ea280be31461055d578063f2fde38b14610573578063f6d361cc14610593578063fcc6077d146105ae57600080fd5b8063c82db8f9146104e3578063cde0153c14610503578063dbb0801614610523578063e586a4f01461054357600080fd5b8063a2d169be116100d1578063a2d169be14610442578063b7d4464414610462578063c3d8284c1461048f578063c3dfdae6146104af57600080fd5b80639fadfc06146103715780639fe9ada31461038f5780639ff694421461042f57600080fd5b8063715018a6116101645780638456cb591161013e5780638456cb59146103035780638613355d146103185780638da5cb5b14610338578063926590dd1461035b57600080fd5b8063715018a6146102965780637dc0d1d0146102ab5780637fa60ea5146102e357600080fd5b80633f4ba83a116101a05780633f4ba83a146102285780634256dd781461023d5780635c975abb1461025d5780636d947e4b1461028057600080fd5b806301fd1951146101c75780631cb44dfc146101f057806335659fb814610212575b600080fd5b3480156101d357600080fd5b506101dd60085481565b6040519081526020015b60405180910390f35b3480156101fc57600080fd5b5061021061020b36600461242e565b6105db565b005b34801561021e57600080fd5b506101dd60045481565b34801561023457600080fd5b50610210610690565b34801561024957600080fd5b50610210610258366004612450565b6106a2565b34801561026957600080fd5b5060015460ff1660405190151581526020016101e7565b34801561028c57600080fd5b506101dd6103e881565b3480156102a257600080fd5b50610210610737565b3480156102b757600080fd5b506002546102cb906001600160a01b031681565b6040516001600160a01b0390911681526020016101e7565b3480156102ef57600080fd5b506101dd6102fe366004612469565b610749565b34801561030f57600080fd5b50610210610a97565b34801561032457600080fd5b506003546102cb906001600160a01b031681565b34801561034457600080fd5b5060015461010090046001600160a01b03166102cb565b34801561036757600080fd5b506101dd610e1081565b34801561037d57600080fd5b506003546001600160a01b03166102cb565b34801561039b57600080fd5b506104186103aa366004612450565b600560208190526000918252604090912080546001820154600283015460038401546004850154958501546006860154600787015460089097015495976001600160a01b039586169786861697600160a01b90960460ff90811697959692959085169461010090041692918b565b6040516101e79b9a999897969594939291906124e2565b61021061043d366004612450565b610aa7565b34801561044e57600080fd5b5061021061045d36600461242e565b610e3f565b34801561046e57600080fd5b506101dd61047d36600461242e565b60066020526000908152604090205481565b34801561049b57600080fd5b506102106104aa366004612556565b610f73565b3480156104bb57600080fd5b506102cb7f000000000000000000000000000000000000000000000000000000000000000081565b3480156104ef57600080fd5b506102106104fe366004612450565b611416565b34801561050f57600080fd5b5061021061051e36600461242e565b61160d565b34801561052f57600080fd5b5061021061053e366004612450565b6116bd565b34801561054f57600080fd5b506658d15e176280006101dd565b34801561056957600080fd5b506101dd60075481565b34801561057f57600080fd5b5061021061058e36600461242e565b611a9d565b34801561059f57600080fd5b506101dd6658d15e1762800081565b3480156105ba57600080fd5b506105ce6105c9366004612450565b611b13565b6040516101e791906125dd565b6105e3611c6c565b6001600160a01b03811661063e5760405162461bcd60e51b815260206004820152601d60248201527f4172656e613a20696e76616c6964206f7261636c65206164647265737300000060448201526064015b60405180910390fd5b600280546001600160a01b038381166001600160a01b0319831681179093556040519116919082907f078c3b417dadf69374a59793b829c52001247130433427049317bde56607b1b790600090a35050565b610698611c6c565b6106a0611ccc565b565b6106aa611c6c565b6103e88111156106f25760405162461bcd60e51b8152602060048201526013602482015272082e4cadcc27440cccaca40e8dede40d0d2ced606b1b6044820152606401610635565b600480549082905560408051828152602081018490527fb404cac19fb1cbeff98d325795b08886e3cd8fe8cb1a2f193aac66f13fb239c3910160405180910390a15050565b61073f611c6c565b6106a06000611d1e565b6000610753611d78565b61075b611dd1565b600084116107b75760405162461bcd60e51b8152602060048201526024808201527f4172656e613a207374616b6520616d6f756e74206d75737420626520706f73696044820152637469766560e01b6064820152608401610635565b6000821180156107c95750610e108211155b6108155760405162461bcd60e51b815260206004820152601960248201527f4172656e613a20696e76616c69642074696d65206c696d6974000000000000006044820152606401610635565b6008805433914291906000610829836126b0565b9091555060405160609390931b6bffffffffffffffffffffffff191660208401526034830191909152605482015260740160408051601f19818403018152919052805160209091012090506108a96001600160a01b037f000000000000000000000000000000000000000000000000000000000000000016333087611e17565b33600090815260066020526040812080548692906108c89084906126c9565b9091555050604080516101608101825282815233602082015260009181019190915260608101866002811115610900576109006124a8565b81526020808201879052604080830187905260006060808501829052608085018290524260a086015260c0850182905260e09094018790528581526005835281902084518155918401516001830180546001600160a01b03199081166001600160a01b0393841617909155918501516002808501805494851692909316918217835594860151939491926001600160a81b0319161790600160a01b9084908111156109ad576109ad6124a8565b02179055506080820151600382015560a0820151600482015560c082015160058201805460ff191660018360068111156109e9576109e96124a8565b021790555060e08201518160050160016101000a8154816001600160a01b0302191690836001600160a01b03160217905550610100820151816006015561012082015181600701556101408201518160080155905050336001600160a01b0316817f2ed5141845480607073a427e42277bef482e6f2c0092f24c1914771177fe5ae9878787604051610a7d939291906126dc565b60405180910390a3610a8f6001600055565b949350505050565b610a9f611c6c565b6106a0611e88565b610aaf611d78565b610ab7611dd1565b60008181526005602052604090206001015481906001600160a01b0316610af05760405162461bcd60e51b8152600401610635906126fb565b600082815260056020526040812090600582015460ff166006811115610b1857610b186124a8565b14610b655760405162461bcd60e51b815260206004820152601a60248201527f4172656e613a206d61746368206e6f7420617661696c61626c650000000000006044820152606401610635565b6001810154336001600160a01b0390911603610bc35760405162461bcd60e51b815260206004820152601c60248201527f4172656e613a2063616e6e6f74206a6f696e206f776e206d61746368000000006044820152606401610635565b610e108160060154610bd591906126c9565b421115610c1b5760405162461bcd60e51b8152602060048201526014602482015273105c995b984e881b585d18da08195e1c1a5c995960621b6044820152606401610635565b6658d15e176280003414610c715760405162461bcd60e51b815260206004820152601a60248201527f4172656e613a20696e636f727265637420656e747279206665650000000000006044820152606401610635565b6003546040516000916001600160a01b03169034908381818185875af1925050503d8060008114610cbe576040519150601f19603f3d011682016040523d82523d6000602084013e610cc3565b606091505b5050905080610d145760405162461bcd60e51b815260206004820181905260248201527f4172656e613a20656e74727920666565207472616e73666572206661696c65646044820152606401610635565b6003820154610d51906001600160a01b037f0000000000000000000000000000000000000000000000000000000000000000169033903090611e17565b60038201543360009081526006602052604081208054909190610d759084906126c9565b9091555050600282018054336001600160a01b0319909116811790915560058301805460ff191660011790556040513481528591907f361ffc38447386ee8a2cb5ced4893f89c8b4c7abb26f4e17cb45ca78a66f36459060200160405180910390a3604051339085907fbc51cb30bdcb0766b64964ec76f45d9e4e9856f1558cbba8c7a6024fa7ec80fd90600090a360405184907ffe5068908070b6677e41bd36fc9ed44948dfc8bcb10e70944a0f8e9115db2e9790600090a2505050610e3c6001600055565b50565b610e47611c6c565b6001600160a01b038116610e9d5760405162461bcd60e51b815260206004820152601860248201527f4172656e613a20696e76616c696420726563697069656e7400000000000000006044820152606401610635565b600060075411610eef5760405162461bcd60e51b815260206004820152601a60248201527f4172656e613a206e6f206665657320746f2077697468647261770000000000006044820152606401610635565b600780546000909155610f2c6001600160a01b037f0000000000000000000000000000000000000000000000000000000000000000168383611ec3565b816001600160a01b03167f233c84dc0c19fbf51f9fa92214ffd8a59f512e0098bff5827455d02e401221c082604051610f6791815260200190565b60405180910390a25050565b6002546001600160a01b03163314610fcd5760405162461bcd60e51b815260206004820152601b60248201527f4172656e613a2063616c6c6572206973206e6f74206f7261636c6500000000006044820152606401610635565b60008481526005602052604090206001015484906001600160a01b03166110065760405162461bcd60e51b8152600401610635906126fb565b60008581526005602052604090206001600582015460ff16600681111561102f5761102f6124a8565b148061105357506002600582015460ff166006811115611051576110516124a8565b145b61109f5760405162461bcd60e51b815260206004820152601b60248201527f4172656e613a206d61746368206e6f74207265736f6c7661626c6500000000006044820152606401610635565b60018101546001600160a01b03868116911614806110cc575060028101546001600160a01b038681169116145b6111105760405162461bcd60e51b815260206004820152601560248201527420b932b7309d1034b73b30b634b2103bb4b73732b960591b6044820152606401610635565b6000868660405160200161114092919091825260601b6bffffffffffffffffffffffff1916602082015260340190565b6040516020818303038152906040528051906020012090506000611191827f19457468657265756d205369676e6564204d6573736167653a0a3332000000006000908152601c91909152603c902090565b600254604080516020601f8a018190048102820181019092528881529293506001600160a01b03909116916111e39189908990819084018382808284376000920191909152508693925050611ef39050565b6001600160a01b0316146112395760405162461bcd60e51b815260206004820152601860248201527f4172656e613a20696e76616c6964207369676e617475726500000000000000006044820152606401610635565b60018301546000906001600160a01b038981169116146112665760018401546001600160a01b0316611275565b60028401546001600160a01b03165b905060008460030154600261128a9190612732565b905060006127106004548361129f9190612732565b6112a99190612749565b905060006112b7828461276b565b6005880180546001600160a01b038e1661010002610100600160a81b031982168117835592935060049260ff19166001600160a81b0319909116176001830217905550426007880155600387015460018801546001600160a01b03166000908152600660205260408120805490919061133190849061276b565b9091555050600387015460028801546001600160a01b03166000908152600660205260408120805490919061136790849061276b565b92505081905550816007600082825461138091906126c9565b909155506113ba90506001600160a01b037f0000000000000000000000000000000000000000000000000000000000000000168c83611ec3565b836001600160a01b03168b6001600160a01b03168d7f010c7c1dea7387692cb8100b196cb70d74bb014bdacb8b19b8fe0db7c5684eda8460405161140091815260200190565b60405180910390a4505050505050505050505050565b60008181526005602052604090206001015481906001600160a01b031661144f5760405162461bcd60e51b8152600401610635906126fb565b600082815260056020526040902060018101546001600160a01b031633146114b95760405162461bcd60e51b815260206004820152601e60248201527f4172656e613a206f6e6c792063726561746f722063616e2063616e63656c00006044820152606401610635565b6000600582015460ff1660068111156114d4576114d46124a8565b146115215760405162461bcd60e51b815260206004820181905260248201527f4172656e613a206d617463682063616e6e6f742062652063616e63656c6c65646044820152606401610635565b6005818101805460ff19169091179055600381015460018201546001600160a01b03166000908152600660205260408120805490919061156290849061276b565b9091555050600181015460038201546115a9916001600160a01b037f0000000000000000000000000000000000000000000000000000000000000000811692911690611ec3565b827fab30b638cf85f207265a560a604a68ce9ed9a7599ce09737f380eb1dccba6b266040516116009060208082526014908201527321b0b731b2b63632b210313c9031b932b0ba37b960611b604082015260600190565b60405180910390a2505050565b611615611c6c565b6001600160a01b03811661166b5760405162461bcd60e51b815260206004820152601e60248201527f4172656e613a20696e76616c6964206d656d706f6f6c206164647265737300006044820152606401610635565b600380546001600160a01b038381166001600160a01b0319831681179093556040519116919082907f90ea440da841e401c689a62642a5198a6bb8c2ea9e7c5ba354c3a8874b90198790600090a35050565b60008181526005602052604090206001015481906001600160a01b03166116f65760405162461bcd60e51b8152600401610635906126fb565b6000828152600560205260409020600681015461171690610e10906126c9565b61172290610e106126c9565b421161177c5760405162461bcd60e51b815260206004820152602360248201527f4172656e613a206d61746368206e6f74206578706972656420666f72207265666044820152621d5b9960ea1b6064820152608401610635565b6000600582015460ff166006811115611797576117976124a8565b14806117bb57506001600582015460ff1660068111156117b9576117b96124a8565b145b806117de57506002600582015460ff1660068111156117dc576117dc6124a8565b145b61182a5760405162461bcd60e51b815260206004820152601b60248201527f4172656e613a206d61746368206e6f7420726566756e6461626c6500000000006044820152606401610635565b60058101805460ff1916600617905560028101546001600160a01b0316156119d857600381015460018201546001600160a01b03166000908152600660205260408120805490919061187d90849061276b565b9091555050600381015460028201546001600160a01b0316600090815260066020526040812080549091906118b390849061276b565b9091555050600181015460038201546118fa916001600160a01b037f0000000000000000000000000000000000000000000000000000000000000000811692911690611ec3565b6002810154600382015461193c916001600160a01b037f0000000000000000000000000000000000000000000000000000000000000000811692911690611ec3565b600181015460038201546040519081526001600160a01b039091169084907f0ccb50f386a2bba2829da1414813b7e8e1bbdb9bff8b15ba912a318d69ec0c269060200160405180910390a3600281015460038201546040519081526001600160a01b039091169084907f0ccb50f386a2bba2829da1414813b7e8e1bbdb9bff8b15ba912a318d69ec0c26906020015b60405180910390a3505050565b600381015460018201546001600160a01b031660009081526006602052604081208054909190611a0990849061276b565b909155505060018101546003820154611a50916001600160a01b037f0000000000000000000000000000000000000000000000000000000000000000811692911690611ec3565b600181015460038201546040519081526001600160a01b039091169084907f0ccb50f386a2bba2829da1414813b7e8e1bbdb9bff8b15ba912a318d69ec0c26906020016119cb565b505050565b611aa5611c6c565b6001600160a01b038116611b0a5760405162461bcd60e51b815260206004820152602660248201527f4f776e61626c653a206e6577206f776e657220697320746865207a65726f206160448201526564647265737360d01b6064820152608401610635565b610e3c81611d1e565b6040805161016081018252600080825260208201819052918101829052606081018290526080810182905260a0810182905260c0810182905260e08101829052610100810182905261012081018290526101408101919091526000828152600560209081526040918290208251610160810184528154815260018201546001600160a01b0390811693820193909352600280830154938416948201949094529290916060840191600160a01b90910460ff1690811115611bd557611bd56124a8565b6002811115611be657611be66124a8565b81526003820154602082015260048201546040820152600582015460609091019060ff166006811115611c1b57611c1b6124a8565b6006811115611c2c57611c2c6124a8565b8152600582015461010090046001600160a01b03166020820152600682015460408201526007820154606082015260089091015460809091015292915050565b6001546001600160a01b036101009091041633146106a05760405162461bcd60e51b815260206004820181905260248201527f4f776e61626c653a2063616c6c6572206973206e6f7420746865206f776e65726044820152606401610635565b611cd4611f19565b6001805460ff191690557f5db9ee0a495bf2e6ff9c91a7834c1ba4fdd244a5e8aa4e537bd38aeae4b073aa335b6040516001600160a01b03909116815260200160405180910390a1565b600180546001600160a01b03838116610100818102610100600160a81b031985161790945560405193909204169182907f8be0079c531659141344cd1fd0a4f28419497f9722a3daafe3b4186f6b6457e090600090a35050565b600260005403611dca5760405162461bcd60e51b815260206004820152601f60248201527f5265656e7472616e637947756172643a207265656e7472616e742063616c6c006044820152606401610635565b6002600055565b60015460ff16156106a05760405162461bcd60e51b815260206004820152601060248201526f14185d5cd8589b194e881c185d5cd95960821b6044820152606401610635565b6040516001600160a01b0380851660248301528316604482015260648101829052611e829085906323b872dd60e01b906084015b60408051601f198184030181529190526020810180516001600160e01b03166001600160e01b031990931692909217909152611f62565b50505050565b611e90611dd1565b6001805460ff1916811790557f62e78cea01bee320cd4e420270b5ea74000d11b0c9f74754ebdbfc544b05a25833611d01565b6040516001600160a01b038316602482015260448101829052611a9890849063a9059cbb60e01b90606401611e4b565b6000806000611f028585612037565b91509150611f0f8161207c565b5090505b92915050565b60015460ff166106a05760405162461bcd60e51b815260206004820152601460248201527314185d5cd8589b194e881b9bdd081c185d5cd95960621b6044820152606401610635565b6000611fb7826040518060400160405280602081526020017f5361666545524332303a206c6f772d6c6576656c2063616c6c206661696c6564815250856001600160a01b03166121c69092919063ffffffff16565b9050805160001480611fd8575080806020019051810190611fd8919061277e565b611a985760405162461bcd60e51b815260206004820152602a60248201527f5361666545524332303a204552433230206f7065726174696f6e20646964206e6044820152691bdd081cdd58d8d9595960b21b6064820152608401610635565b600080825160410361206d5760208301516040840151606085015160001a612061878285856121d5565b94509450505050612075565b506000905060025b9250929050565b6000816004811115612090576120906124a8565b036120985750565b60018160048111156120ac576120ac6124a8565b036120f95760405162461bcd60e51b815260206004820152601860248201527f45434453413a20696e76616c6964207369676e617475726500000000000000006044820152606401610635565b600281600481111561210d5761210d6124a8565b0361215a5760405162461bcd60e51b815260206004820152601f60248201527f45434453413a20696e76616c6964207369676e6174757265206c656e677468006044820152606401610635565b600381600481111561216e5761216e6124a8565b03610e3c5760405162461bcd60e51b815260206004820152602260248201527f45434453413a20696e76616c6964207369676e6174757265202773272076616c604482015261756560f01b6064820152608401610635565b6060610a8f8484600085612299565b6000807f7fffffffffffffffffffffffffffffff5d576e7357a4501ddfe92f46681b20a083111561220c5750600090506003612290565b6040805160008082526020820180845289905260ff881692820192909252606081018690526080810185905260019060a0016020604051602081039080840390855afa158015612260573d6000803e3d6000fd5b5050604051601f1901519150506001600160a01b03811661228957600060019250925050612290565b9150600090505b94509492505050565b6060824710156122fa5760405162461bcd60e51b815260206004820152602660248201527f416464726573733a20696e73756666696369656e742062616c616e636520666f6044820152651c8818d85b1b60d21b6064820152608401610635565b600080866001600160a01b0316858760405161231691906127c4565b60006040518083038185875af1925050503d8060008114612353576040519150601f19603f3d011682016040523d82523d6000602084013e612358565b606091505b509150915061236987838387612374565b979650505050505050565b606083156123e35782516000036123dc576001600160a01b0385163b6123dc5760405162461bcd60e51b815260206004820152601d60248201527f416464726573733a2063616c6c20746f206e6f6e2d636f6e74726163740000006044820152606401610635565b5081610a8f565b610a8f83838151156123f85781518083602001fd5b8060405162461bcd60e51b815260040161063591906127e0565b80356001600160a01b038116811461242957600080fd5b919050565b60006020828403121561244057600080fd5b61244982612412565b9392505050565b60006020828403121561246257600080fd5b5035919050565b6000806000806080858703121561247f57600080fd5b84356003811061248e57600080fd5b966020860135965060408601359560600135945092505050565b634e487b7160e01b600052602160045260246000fd5b600381106124ce576124ce6124a8565b9052565b600781106124ce576124ce6124a8565b8b81526001600160a01b038b811660208301528a81166040830152610160820190612510606084018c6124be565b8960808401528860a084015261252960c08401896124d2565b9590951660e082015261010081019390935261012083019190915261014090910152979650505050505050565b6000806000806060858703121561256c57600080fd5b8435935061257c60208601612412565b9250604085013567ffffffffffffffff8082111561259957600080fd5b818701915087601f8301126125ad57600080fd5b8135818111156125bc57600080fd5b8860208285010111156125ce57600080fd5b95989497505060200194505050565b81518152602080830151610160830191612601908401826001600160a01b03169052565b50604083015161261c60408401826001600160a01b03169052565b50606083015161262f60608401826124be565b506080830151608083015260a083015160a083015260c083015161265660c08401826124d2565b5060e083015161267160e08401826001600160a01b03169052565b506101008381015190830152610120808401519083015261014092830151929091019190915290565b634e487b7160e01b600052601160045260246000fd5b6000600182016126c2576126c261269a565b5060010190565b80820180821115611f1357611f1361269a565b606081016126ea82866124be565b602082019390935260400152919050565b6020808252601b908201527f4172656e613a206d6174636820646f6573206e6f742065786973740000000000604082015260600190565b8082028115828204841417611f1357611f1361269a565b60008261276657634e487b7160e01b600052601260045260246000fd5b500490565b81810381811115611f1357611f1361269a565b60006020828403121561279057600080fd5b8151801515811461244957600080fd5b60005b838110156127bb5781810151838201526020016127a3565b50506000910152565b600082516127d68184602087016127a0565b9190910192915050565b60208152600082518060208401526127ff8160408501602087016127a0565b601f01601f1916919091016040019291505056fea2646970667358221220125eaece2c11a661eea525c6cca190844ae7a940e2e95d474fb67bf7c2b69ee964736f6c63430008130033","opcodes":"PUSH1 0xA0 PUSH1 0x40 MSTORE PUSH1 0xFA PUSH1 0x4 SSTORE CALLVALUE DUP1 ISZERO PUSH3 0x16 JUMPI PUSH1 0x0 DUP1 REVERT JUMPDEST POP PUSH1 0x40 MLOAD PUSH3 0x2AF4 CODESIZE SUB DUP1 PUSH3 0x2AF4 DUP4 CODECOPY DUP2 ADD PUSH1 0x40 DUP2 SWAP1 MSTORE PUSH3 0x39 SWAP2 PUSH3 0x20D JUMP JUMPDEST PUSH1 0x1 PUSH1 0x0 DUP2 SWAP1 SSTORE DUP1 SLOAD PUSH1 0xFF NOT AND SWAP1 SSTORE PUSH3 0x53 CALLER PUSH3 0x196 JUMP JUMPDEST PUSH1 0x1 PUSH1 0x1 PUSH1 0xA0 SHL SUB DUP4 AND PUSH3 0xAF JUMPI PUSH1 0x40 MLOAD PUSH3 0x461BCD PUSH1 0xE5 SHL DUP2 MSTORE PUSH1 0x20 PUSH1 0x4 DUP3 ADD MSTORE PUSH1 0x19 PUSH1 0x24 DUP3 ADD MSTORE PUSH32 0x4172656E613A20696E76616C69642067616D6520746F6B656E00000000000000 PUSH1 0x44 DUP3 ADD MSTORE PUSH1 0x64 ADD JUMPDEST PUSH1 0x40 MLOAD DUP1 SWAP2 SUB SWAP1 REVERT JUMPDEST PUSH1 0x1 PUSH1 0x1 PUSH1 0xA0 SHL SUB DUP3 AND PUSH3 0x107 JUMPI PUSH1 0x40 MLOAD PUSH3 0x461BCD PUSH1 0xE5 SHL DUP2 MSTORE PUSH1 0x20 PUSH1 0x4 DUP3 ADD MSTORE PUSH1 0x15 PUSH1 0x24 DUP3 ADD MSTORE PUSH32 0x4172656E613A20696E76616C6964206F7261636C650000000000000000000000 PUSH1 0x44 DUP3 ADD MSTORE PUSH1 0x64 ADD PUSH3 0xA6 JUMP JUMPDEST PUSH1 0x1 PUSH1 0x1 PUSH1 0xA0 SHL SUB DUP2 AND PUSH3 0x15F JUMPI PUSH1 0x40 MLOAD PUSH3 0x461BCD PUSH1 0xE5 SHL DUP2 MSTORE PUSH1 0x20 PUSH1 0x4 DUP3 ADD MSTORE PUSH1 0x16 PUSH1 0x24 DUP3 ADD MSTORE PUSH32 0x4172656E613A20696E76616C6964206D656D706F6F6C00000000000000000000 PUSH1 0x44 DUP3 ADD MSTORE PUSH1 0x64 ADD PUSH3 0xA6 JUMP JUMPDEST PUSH1 0x1 PUSH1 0x1 PUSH1 0xA0 SHL SUB SWAP3 DUP4 AND PUSH1 0x80 MSTORE PUSH1 0x2 DUP1 SLOAD SWAP3 DUP5 AND PUSH1 0x1 PUSH1 0x1 PUSH1 0xA0 SHL SUB NOT SWAP4 DUP5 AND OR SWAP1 SSTORE PUSH1 0x3 DUP1 SLOAD SWAP2 SWAP1 SWAP4 AND SWAP2 AND OR SWAP1 SSTORE PUSH3 0x257 JUMP JUMPDEST PUSH1 0x1 DUP1 SLOAD PUSH1 0x1 PUSH1 0x1 PUSH1 0xA0 SHL SUB DUP4 DUP2 AND PUSH2 0x100 DUP2 DUP2 MUL PUSH2 0x100 PUSH1 0x1 PUSH1 0xA8 SHL SUB NOT DUP6 AND OR SWAP1 SWAP5 SSTORE PUSH1 0x40 MLOAD SWAP4 SWAP1 SWAP3 DIV AND SWAP2 DUP3 SWAP1 PUSH32 0x8BE0079C531659141344CD1FD0A4F28419497F9722A3DAAFE3B4186F6B6457E0 SWAP1 PUSH1 0x0 SWAP1 LOG3 POP POP JUMP JUMPDEST DUP1 MLOAD PUSH1 0x1 PUSH1 0x1 PUSH1 0xA0 SHL SUB DUP2 AND DUP2 EQ PUSH3 0x208 JUMPI PUSH1 0x0 DUP1 REVERT JUMPDEST SWAP2 SWAP1 POP JUMP JUMPDEST PUSH1 0x0 DUP1 PUSH1 0x0 PUSH1 0x60 DUP5 DUP7 SUB SLT ISZERO PUSH3 0x223 JUMPI PUSH1 0x0 DUP1 REVERT JUMPDEST PUSH3 0x22E DUP5 PUSH3 0x1F0 JUMP JUMPDEST SWAP3 POP PUSH3 0x23E PUSH1 0x20 DUP6 ADD PUSH3 0x1F0 JUMP JUMPDEST SWAP2 POP PUSH3 0x24E PUSH1 0x40 DUP6 ADD PUSH3 0x1F0 JUMP JUMPDEST SWAP1 POP SWAP3 POP SWAP3 POP SWAP3 JUMP JUMPDEST PUSH1 0x80 MLOAD PUSH2 0x2849 PUSH3 0x2AB PUSH1 0x0 CODECOPY PUSH1 0x0 DUP2 DUP2 PUSH2 0x4C1 ADD MSTORE DUP2 DUP2 PUSH2 0x881 ADD MSTORE DUP2 DUP2 PUSH2 0xD27 ADD MSTORE DUP2 DUP2 PUSH2 0xF05 ADD MSTORE DUP2 DUP2 PUSH2 0x1393 ADD MSTORE DUP2 DUP2 PUSH2 0x157F ADD MSTORE DUP2 DUP2 PUSH2 0x18D0 ADD MSTORE DUP2 DUP2 PUSH2 0x1912 ADD MSTORE PUSH2 0x1A26 ADD MSTORE PUSH2 0x2849 PUSH1 0x0 RETURN INVALID PUSH1 0x80 PUSH1 0x40 MSTORE PUSH1 0x4 CALLDATASIZE LT PUSH2 0x1C2 JUMPI PUSH1 0x0 CALLDATALOAD PUSH1 0xE0 SHR DUP1 PUSH4 0x9FADFC06 GT PUSH2 0xF7 JUMPI DUP1 PUSH4 0xC82DB8F9 GT PUSH2 0x95 JUMPI DUP1 PUSH4 0xEA280BE3 GT PUSH2 0x64 JUMPI DUP1 PUSH4 0xEA280BE3 EQ PUSH2 0x55D JUMPI DUP1 PUSH4 0xF2FDE38B EQ PUSH2 0x573 JUMPI DUP1 PUSH4 0xF6D361CC EQ PUSH2 0x593 JUMPI DUP1 PUSH4 0xFCC6077D EQ PUSH2 0x5AE JUMPI PUSH1 0x0 DUP1 REVERT JUMPDEST DUP1 PUSH4 0xC82DB8F9 EQ PUSH2 0x4E3 JUMPI DUP1 PUSH4 0xCDE0153C EQ PUSH2 0x503 JUMPI DUP1 PUSH4 0xDBB08016 EQ PUSH2 0x523 JUMPI DUP1 PUSH4 0xE586A4F0 EQ PUSH2 0x543 JUMPI PUSH1 0x0 DUP1 REVERT JUMPDEST DUP1 PUSH4 0xA2D169BE GT PUSH2 0xD1 JUMPI DUP1 PUSH4 0xA2D169BE EQ PUSH2 0x442 JUMPI DUP1 PUSH4 0xB7D44644 EQ PUSH2 0x462 JUMPI DUP1 PUSH4 0xC3D8284C EQ PUSH2 0x48F JUMPI DUP1 PUSH4 0xC3DFDAE6 EQ PUSH2 0x4AF JUMPI PUSH1 0x0 DUP1 REVERT JUMPDEST DUP1 PUSH4 0x9FADFC06 EQ PUSH2 0x371 JUMPI DUP1 PUSH4 0x9FE9ADA3 EQ PUSH2 0x38F JUMPI DUP1 PUSH4 0x9FF69442 EQ PUSH2 0x42F JUMPI PUSH1 0x0 DUP1 REVERT JUMPDEST DUP1 PUSH4 0x715018A6 GT PUSH2 0x164 JUMPI DUP1 PUSH4 0x8456CB59 GT PUSH2 0x13E JUMPI DUP1 PUSH4 0x8456CB59 EQ PUSH2 0x303 JUMPI DUP1 PUSH4 0x8613355D EQ PUSH2 0x318 JUMPI DUP1 PUSH4 0x8DA5CB5B EQ PUSH2 0x338 JUMPI DUP1 PUSH4 0x926590DD EQ PUSH2 0x35B JUMPI PUSH1 0x0 DUP1 REVERT JUMPDEST DUP1 PUSH4 0x715018A6 EQ PUSH2 0x296 JUMPI DUP1 PUSH4 0x7DC0D1D0 EQ PUSH2 0x2AB JUMPI DUP1 PUSH4 0x7FA60EA5 EQ PUSH2 0x2E3 JUMPI PUSH1 0x0 DUP1 REVERT JUMPDEST DUP1 PUSH4 0x3F4BA83A GT PUSH2 0x1A0 JUMPI DUP1 PUSH4 0x3F4BA83A EQ PUSH2 0x228 JUMPI DUP1 PUSH4 0x4256DD78 EQ PUSH2 0x23D JUMPI DUP1 PUSH4 0x5C975ABB EQ PUSH2 0x25D JUMPI DUP1 PUSH4 0x6D947E4B EQ PUSH2 0x280 JUMPI PUSH1 0x0 DUP1 REVERT JUMPDEST DUP1 PUSH4 0x1FD1951 EQ PUSH2 0x1C7 JUMPI DUP1 PUSH4 0x1CB44DFC EQ PUSH2 0x1F0 JUMPI DUP1 PUSH4 0x35659FB8 EQ PUSH2 0x212 JUMPI JUMPDEST PUSH1 0x0 DUP1 REVERT JUMPDEST CALLVALUE DUP1 ISZERO PUSH2 0x1D3 JUMPI PUSH1 0x0 DUP1 REVERT JUMPDEST POP PUSH2 0x1DD PUSH1 0x8 SLOAD DUP2 JUMP JUMPDEST PUSH1 0x40 MLOAD SWAP1 DUP2 MSTORE PUSH1 0x20 ADD JUMPDEST PUSH1 0x40 MLOAD DUP1 SWAP2 SUB SWAP1 RETURN JUMPDEST CALLVALUE DUP1 ISZERO PUSH2 0x1FC JUMPI PUSH1 0x0 DUP1 REVERT JUMPDEST POP PUSH2 0x210 PUSH2 0x20B CALLDATASIZE PUSH1 0x4 PUSH2 0x242E JUMP JUMPDEST PUSH2 0x5DB JUMP JUMPDEST STOP JUMPDEST CALLVALUE DUP1 ISZERO PUSH2 0x21E JUMPI PUSH1 0x0 DUP1 REVERT JUMPDEST POP PUSH2 0x1DD PUSH1 0x4 SLOAD DUP2 JUMP JUMPDEST CALLVALUE DUP1 ISZERO PUSH2 0x234 JUMPI PUSH1 0x0 DUP1 REVERT JUMPDEST POP PUSH2 0x210 PUSH2 0x690 JUMP JUMPDEST CALLVALUE DUP1 ISZERO PUSH2 0x249 JUMPI PUSH1 0x0 DUP1 REVERT JUMPDEST POP PUSH2 0x210 PUSH2 0x258 CALLDATASIZE PUSH1 0x4 PUSH2 0x2450 JUMP JUMPDEST PUSH2 0x6A2 JUMP JUMPDEST CALLVALUE DUP1 ISZERO PUSH2 0x269 JUMPI PUSH1 0x0 DUP1 REVERT JUMPDEST POP PUSH1 0x1 SLOAD PUSH1 0xFF AND PUSH1 0x40 MLOAD SWAP1 ISZERO ISZERO DUP2 MSTORE PUSH1 0x20 ADD PUSH2 0x1E7 JUMP JUMPDEST CALLVALUE DUP1 ISZERO PUSH2 0x28C JUMPI PUSH1 0x0 DUP1 REVERT JUMPDEST POP PUSH2 0x1DD PUSH2 0x3E8 DUP2 JUMP JUMPDEST CALLVALUE DUP1 ISZERO PUSH2 0x2A2 JUMPI PUSH1 0x0 DUP1 REVERT JUMPDEST POP PUSH2 0x210 PUSH2 0x737 JUMP JUMPDEST CALLVALUE DUP1 ISZERO PUSH2 0x2B7 JUMPI PUSH1 0x0 DUP1 REVERT JUMPDEST POP PUSH1 0x2 SLOAD PUSH2 0x2CB SWAP1 PUSH1 0x1 PUSH1 0x1 PUSH1 0xA0 SHL SUB AND DUP2 JUMP JUMPDEST PUSH1 0x40 MLOAD PUSH1 0x1 PUSH1 0x1 PUSH1 0xA0 SHL SUB SWAP1 SWAP2 AND DUP2 MSTORE PUSH1 0x20 ADD PUSH2 0x1E7 JUMP JUMPDEST CALLVALUE DUP1 ISZERO PUSH2 0x2EF JUMPI PUSH1 0x0 DUP1 REVERT JUMPDEST POP PUSH2 0x1DD PUSH2 0x2FE CALLDATASIZE PUSH1 0x4 PUSH2 0x2469 JUMP JUMPDEST PUSH2 0x749 JUMP JUMPDEST CALLVALUE DUP1 ISZERO PUSH2 0x30F JUMPI PUSH1 0x0 DUP1 REVERT JUMPDEST POP PUSH2 0x210 PUSH2 0xA97 JUMP JUMPDEST CALLVALUE DUP1 ISZERO PUSH2 0x324 JUMPI PUSH1 0x0 DUP1 REVERT JUMPDEST POP PUSH1 0x3 SLOAD PUSH2 0x2CB SWAP1 PUSH1 0x1 PUSH1 0x1 PUSH1 0xA0 SHL SUB AND DUP2 JUMP JUMPDEST CALLVALUE DUP1 ISZERO PUSH2 0x344 JUMPI PUSH1 0x0 DUP1 REVERT JUMPDEST POP PUSH1 0x1 SLOAD PUSH2 0x100 SWAP1 DIV PUSH1 0x1 PUSH1 0x1 PUSH1 0xA0 SHL SUB AND PUSH2 0x2CB JUMP JUMPDEST CALLVALUE DUP1 ISZERO PUSH2 0x367 JUMPI PUSH1 0x0 DUP1 REVERT JUMPDEST POP PUSH2 0x1DD PUSH2 0xE10 DUP2 JUMP JUMPDEST CALLVALUE DUP1 ISZERO PUSH2 0x37D JUMPI PUSH1 0x0 DUP1 REVERT JUMPDEST POP PUSH1 0x3 SLOAD PUSH1 0x1 PUSH1 0x1 PUSH1 0xA0 SHL SUB AND PUSH2 0x2CB JUMP JUMPDEST CALLVALUE DUP1 ISZERO PUSH2 0x39B JUMPI PUSH1 0x0 DUP1 REVERT JUMPDEST POP PUSH2 0x418 PUSH2 0x3AA CALLDATASIZE PUSH1 0x4 PUSH2 0x2450 JUMP JUMPDEST PUSH1 0x5 PUSH1 0x20 DUP2 SWAP1 MSTORE PUSH1 0x0 SWAP2 DUP3 MSTORE PUSH1 0x40 SWAP1 SWAP2 KECCAK256 DUP1 SLOAD PUSH1 0x1 DUP3 ADD SLOAD PUSH1 0x2 DUP4 ADD SLOAD PUSH1 0x3 DUP5 ADD SLOAD PUSH1 0x4 DUP6 ADD SLOAD SWAP6 DUP6 ADD SLOAD PUSH1 0x6 DUP7 ADD SLOAD PUSH1 0x7 DUP8 ADD SLOAD PUSH1 0x8 SWAP1 SWAP8 ADD SLOAD SWAP6 SWAP8 PUSH1 0x1 PUSH1 0x1 PUSH1 0xA0 SHL SUB SWAP6 DUP7 AND SWAP8 DUP7 DUP7 AND SWAP8 PUSH1 0x1 PUSH1 0xA0 SHL SWAP1 SWAP7 DIV PUSH1 0xFF SWAP1 DUP2 AND SWAP8 SWAP6 SWAP7 SWAP3 SWAP6 SWAP1 DUP6 AND SWAP5 PUSH2 0x100 SWAP1 DIV AND SWAP3 SWAP2 DUP12 JUMP JUMPDEST PUSH1 0x40 MLOAD PUSH2 0x1E7 SWAP12 SWAP11 SWAP10 SWAP9 SWAP8 SWAP7 SWAP6 SWAP5 SWAP4 SWAP3 SWAP2 SWAP1 PUSH2 0x24E2 JUMP JUMPDEST PUSH2 0x210 PUSH2 0x43D CALLDATASIZE PUSH1 0x4 PUSH2 0x2450 JUMP JUMPDEST PUSH2 0xAA7 JUMP JUMPDEST CALLVALUE DUP1 ISZERO PUSH2 0x44E JUMPI PUSH1 0x0 DUP1 REVERT JUMPDEST POP PUSH2 0x210 PUSH2 0x45D CALLDATASIZE PUSH1 0x4 PUSH2 0x242E JUMP JUMPDEST PUSH2 0xE3F JUMP JUMPDEST CALLVALUE DUP1 ISZERO PUSH2 0x46E JUMPI PUSH1 0x0 DUP1 REVERT JUMPDEST POP PUSH2 0x1DD PUSH2 0x47D CALLDATASIZE PUSH1 0x4 PUSH2 0x242E JUMP JUMPDEST PUSH1 0x6 PUSH1 0x20 MSTORE PUSH1 0x0 SWAP1 DUP2 MSTORE PUSH1 0x40 SWAP1 KECCAK256 SLOAD DUP2 JUMP JUMPDEST CALLVALUE DUP1 ISZERO PUSH2 0x49B JUMPI PUSH1 0x0 DUP1 REVERT JUMPDEST POP PUSH2 0x210 PUSH2 0x4AA CALLDATASIZE PUSH1 0x4 PUSH2 0x2556 JUMP JUMPDEST PUSH2 0xF73 JUMP JUMPDEST CALLVALUE DUP1 ISZERO PUSH2 0x4BB JUMPI PUSH1 0x0 DUP1 REVERT JUMPDEST POP PUSH2 0x2CB PUSH32 0x0 DUP2 JUMP JUMPDEST CALLVALUE DUP1 ISZERO PUSH2 0x4EF JUMPI PUSH1 0x0 DUP1 REVERT JUMPDEST POP PUSH2 0x210 PUSH2 0x4FE CALLDATASIZE PUSH1 0x4 PUSH2 0x2450 JUMP JUMPDEST PUSH2 0x1416 JUMP JUMPDEST CALLVALUE DUP1 ISZERO PUSH2 0x50F JUMPI PUSH1 0x0 DUP1 REVERT JUMPDEST POP PUSH2 0x210 PUSH2 0x51E CALLDATASIZE PUSH1 0x4 PUSH2 0x242E JUMP JUMPDEST PUSH2 0x160D JUMP JUMPDEST CALLVALUE DUP1 ISZERO PUSH2 0x52F JUMPI PUSH1 0x0 DUP1 REVERT JUMPDEST POP PUSH2 0x210 PUSH2 0x53E CALLDATASIZE PUSH1 0x4 PUSH2 0x2450 JUMP JUMPDEST PUSH2 0x16BD JUMP JUMPDEST CALLVALUE DUP1 ISZERO PUSH2 0x54F JUMPI PUSH1 0x0 DUP1 REVERT JUMPDEST POP PUSH7 0x58D15E17628000 PUSH2 0x1DD JUMP JUMPDEST CALLVALUE DUP1 ISZERO PUSH2 0x569 JUMPI PUSH1 0x0 DUP1 REVERT JUMPDEST POP PUSH2 0x1DD PUSH1 0x7 SLOAD DUP2 JUMP JUMPDEST CALLVALUE DUP1 ISZERO PUSH2 0x57F JUMPI PUSH1 0x0 DUP1 REVERT JUMPDEST POP PUSH2 0x210 PUSH2 0x58E CALLDATASIZE PUSH1 0x4 PUSH2 0x242E JUMP JUMPDEST PUSH2 0x1A9D JUMP JUMPDEST CALLVALUE DUP1 ISZERO PUSH2 0x59F JUMPI PUSH1 0x0 DUP1 REVERT JUMPDEST POP PUSH2 0x1DD PUSH7 0x58D15E17628000 DUP2 JUMP JUMPDEST CALLVALUE DUP1 ISZERO PUSH2 0x5BA JUMPI PUSH1 0x0 DUP1 REVERT JUMPDEST POP PUSH2 0x5CE PUSH2 0x5C9 CALLDATASIZE PUSH1 0x4 PUSH2 0x2450 JUMP JUMPDEST PUSH2 0x1B13 JUMP JUMPDEST PUSH1 0x40 MLOAD PUSH2 0x1E7 SWAP2 SWAP1 PUSH2 0x25DD JUMP JUMPDEST PUSH2 0x5E3 PUSH2 0x1C6C JUMP JUMPDEST PUSH1 0x1 PUSH1 0x1 PUSH1 0xA0 SHL SUB DUP2 AND PUSH2 0x63E JUMPI PUSH1 0x40 MLOAD PUSH3 0x461BCD PUSH1 0xE5 SHL DUP2 MSTORE PUSH1 0x20 PUSH1 0x4 DUP3 ADD MSTORE PUSH1 0x1D PUSH1 0x24 DUP3 ADD MSTORE PUSH32 0x4172656E613A20696E76616C6964206F7261636C652061646472657373000000 PUSH1 0x44 DUP3 ADD MSTORE PUSH1 0x64 ADD JUMPDEST PUSH1 0x40 MLOAD DUP1 SWAP2 SUB SWAP1 REVERT JUMPDEST PUSH1 0x2 DUP1 SLOAD PUSH1 0x1 PUSH1 0x1 PUSH1 0xA0 SHL SUB DUP4 DUP2 AND PUSH1 0x1 PUSH1 0x1 PUSH1 0xA0 SHL SUB NOT DUP4 AND DUP2 OR SWAP1 SWAP4 SSTORE PUSH1 0x40 MLOAD SWAP2 AND SWAP2 SWAP1 DUP3 SWAP1 PUSH32 0x78C3B417DADF69374A59793B829C52001247130433427049317BDE56607B1B7 SWAP1 PUSH1 0x0 SWAP1 LOG3 POP POP JUMP JUMPDEST PUSH2 0x698 PUSH2 0x1C6C JUMP JUMPDEST PUSH2 0x6A0 PUSH2 0x1CCC JUMP JUMPDEST JUMP JUMPDEST PUSH2 0x6AA PUSH2 0x1C6C JUMP JUMPDEST PUSH2 0x3E8 DUP2 GT ISZERO PUSH2 0x6F2 JUMPI PUSH1 0x40 MLOAD PUSH3 0x461BCD PUSH1 0xE5 SHL DUP2 MSTORE PUSH1 0x20 PUSH1 0x4 DUP3 ADD MSTORE PUSH1 0x13 PUSH1 0x24 DUP3 ADD MSTORE PUSH19 0x82E4CADCC27440CCCACA40E8DEDE40D0D2CED PUSH1 0x6B SHL PUSH1 0x44 DUP3 ADD MSTORE PUSH1 0x64 ADD PUSH2 0x635 JUMP JUMPDEST PUSH1 0x4 DUP1 SLOAD SWAP1 DUP3 SWAP1 SSTORE PUSH1 0x40 DUP1 MLOAD DUP3 DUP2 MSTORE PUSH1 0x20 DUP2 ADD DUP5 SWAP1 MSTORE PUSH32 0xB404CAC19FB1CBEFF98D325795B08886E3CD8FE8CB1A2F193AAC66F13FB239C3 SWAP2 ADD PUSH1 0x40 MLOAD DUP1 SWAP2 SUB SWAP1 LOG1 POP POP JUMP JUMPDEST PUSH2 0x73F PUSH2 0x1C6C JUMP JUMPDEST PUSH2 0x6A0 PUSH1 0x0 PUSH2 0x1D1E JUMP JUMPDEST PUSH1 0x0 PUSH2 0x753 PUSH2 0x1D78 JUMP JUMPDEST PUSH2 0x75B PUSH2 0x1DD1 JUMP JUMPDEST PUSH1 0x0 DUP5 GT PUSH2 0x7B7 JUMPI PUSH1 0x40 MLOAD PUSH3 0x461BCD PUSH1 0xE5 SHL DUP2 MSTORE PUSH1 0x20 PUSH1 0x4 DUP3 ADD MSTORE PUSH1 0x24 DUP1 DUP3 ADD MSTORE PUSH32 0x4172656E613A207374616B6520616D6F756E74206D75737420626520706F7369 PUSH1 0x44 DUP3 ADD MSTORE PUSH4 0x74697665 PUSH1 0xE0 SHL PUSH1 0x64 DUP3 ADD MSTORE PUSH1 0x84 ADD PUSH2 0x635 JUMP JUMPDEST PUSH1 0x0 DUP3 GT DUP1 ISZERO PUSH2 0x7C9 JUMPI POP PUSH2 0xE10 DUP3 GT ISZERO JUMPDEST PUSH2 0x815 JUMPI PUSH1 0x40 MLOAD PUSH3 0x461BCD PUSH1 0xE5 SHL DUP2 MSTORE PUSH1 0x20 PUSH1 0x4 DUP3 ADD MSTORE PUSH1 0x19 PUSH1 0x24 DUP3 ADD MSTORE PUSH32 0x4172656E613A20696E76616C69642074696D65206C696D697400000000000000 PUSH1 0x44 DUP3 ADD MSTORE PUSH1 0x64 ADD PUSH2 0x635 JUMP JUMPDEST PUSH1 0x8 DUP1 SLOAD CALLER SWAP2 TIMESTAMP SWAP2 SWAP1 PUSH1 0x0 PUSH2 0x829 DUP4 PUSH2 0x26B0 JUMP JUMPDEST SWAP1 SWAP2 SSTORE POP PUSH1 0x40 MLOAD PUSH1 0x60 SWAP4 SWAP1 SWAP4 SHL PUSH12 0xFFFFFFFFFFFFFFFFFFFFFFFF NOT AND PUSH1 0x20 DUP5 ADD MSTORE PUSH1 0x34 DUP4 ADD SWAP2 SWAP1 SWAP2 MSTORE PUSH1 0x54 DUP3 ADD MSTORE PUSH1 0x74 ADD PUSH1 0x40 DUP1 MLOAD PUSH1 0x1F NOT DUP2 DUP5 SUB ADD DUP2 MSTORE SWAP2 SWAP1 MSTORE DUP1 MLOAD PUSH1 0x20 SWAP1 SWAP2 ADD KECCAK256 SWAP1 POP PUSH2 0x8A9 PUSH1 0x1 PUSH1 0x1 PUSH1 0xA0 SHL SUB PUSH32 0x0 AND CALLER ADDRESS DUP8 PUSH2 0x1E17 JUMP JUMPDEST CALLER PUSH1 0x0 SWAP1 DUP2 MSTORE PUSH1 0x6 PUSH1 0x20 MSTORE PUSH1 0x40 DUP2 KECCAK256 DUP1 SLOAD DUP7 SWAP3 SWAP1 PUSH2 0x8C8 SWAP1 DUP5 SWAP1 PUSH2 0x26C9 JUMP JUMPDEST SWAP1 SWAP2 SSTORE POP POP PUSH1 0x40 DUP1 MLOAD PUSH2 0x160 DUP2 ADD DUP3 MSTORE DUP3 DUP2 MSTORE CALLER PUSH1 0x20 DUP3 ADD MSTORE PUSH1 0x0 SWAP2 DUP2 ADD SWAP2 SWAP1 SWAP2 MSTORE PUSH1 0x60 DUP2 ADD DUP7 PUSH1 0x2 DUP2 GT ISZERO PUSH2 0x900 JUMPI PUSH2 0x900 PUSH2 0x24A8 JUMP JUMPDEST DUP2 MSTORE PUSH1 0x20 DUP1 DUP3 ADD DUP8 SWAP1 MSTORE PUSH1 0x40 DUP1 DUP4 ADD DUP8 SWAP1 MSTORE PUSH1 0x0 PUSH1 0x60 DUP1 DUP6 ADD DUP3 SWAP1 MSTORE PUSH1 0x80 DUP6 ADD DUP3 SWAP1 MSTORE TIMESTAMP PUSH1 0xA0 DUP7 ADD MSTORE PUSH1 0xC0 DUP6 ADD DUP3 SWAP1 MSTORE PUSH1 0xE0 SWAP1 SWAP5 ADD DUP8 SWAP1 MSTORE DUP6 DUP2 MSTORE PUSH1 0x5 DUP4 MSTORE DUP2 SWAP1 KECCAK256 DUP5 MLOAD DUP2 SSTORE SWAP2 DUP5 ADD MLOAD PUSH1 0x1 DUP4 ADD DUP1 SLOAD PUSH1 0x1 PUSH1 0x1 PUSH1 0xA0 SHL SUB NOT SWAP1 DUP2 AND PUSH1 0x1 PUSH1 0x1 PUSH1 0xA0 SHL SUB SWAP4 DUP5 AND OR SWAP1 SWAP2 SSTORE SWAP2 DUP6 ADD MLOAD PUSH1 0x2 DUP1 DUP6 ADD DUP1 SLOAD SWAP5 DUP6 AND SWAP3 SWAP1 SWAP4 AND SWAP2 DUP3 OR DUP4 SSTORE SWAP5 DUP7 ADD MLOAD SWAP4 SWAP5 SWAP2 SWAP3 PUSH1 0x1 PUSH1 0x1 PUSH1 0xA8 SHL SUB NOT AND OR SWAP1 PUSH1 0x1 PUSH1 0xA0 SHL SWAP1 DUP5 SWAP1 DUP2 GT ISZERO PUSH2 0x9AD JUMPI PUSH2 0x9AD PUSH2 0x24A8 JUMP JUMPDEST MUL OR SWAP1 SSTORE POP PUSH1 0x80 DUP3 ADD MLOAD PUSH1 0x3 DUP3 ADD SSTORE PUSH1 0xA0 DUP3 ADD MLOAD PUSH1 0x4 DUP3 ADD SSTORE PUSH1 0xC0 DUP3 ADD MLOAD PUSH1 0x5 DUP3 ADD DUP1 SLOAD PUSH1 0xFF NOT AND PUSH1 0x1 DUP4 PUSH1 0x6 DUP2 GT ISZERO PUSH2 0x9E9 JUMPI PUSH2 0x9E9 PUSH2 0x24A8 JUMP JUMPDEST MUL OR SWAP1 SSTORE POP PUSH1 0xE0 DUP3 ADD MLOAD DUP2 PUSH1 0x5 ADD PUSH1 0x1 PUSH2 0x100 EXP DUP2 SLOAD DUP2 PUSH1 0x1 PUSH1 0x1 PUSH1 0xA0 SHL SUB MUL NOT AND SWAP1 DUP4 PUSH1 0x1 PUSH1 0x1 PUSH1 0xA0 SHL SUB AND MUL OR SWAP1 SSTORE POP PUSH2 0x100 DUP3 ADD MLOAD DUP2 PUSH1 0x6 ADD SSTORE PUSH2 0x120 DUP3 ADD MLOAD DUP2 PUSH1 0x7 ADD SSTORE PUSH2 0x140 DUP3 ADD MLOAD DUP2 PUSH1 0x8 ADD SSTORE SWAP1 POP POP CALLER PUSH1 0x1 PUSH1 0x1 PUSH1 0xA0 SHL SUB AND DUP2 PUSH32 0x2ED5141845480607073A427E42277BEF482E6F2C0092F24C1914771177FE5AE9 DUP8 DUP8 DUP8 PUSH1 0x40 MLOAD PUSH2 0xA7D SWAP4 SWAP3 SWAP2 SWAP1 PUSH2 0x26DC JUMP JUMPDEST PUSH1 0x40 MLOAD DUP1 SWAP2 SUB SWAP1 LOG3 PUSH2 0xA8F PUSH1 0x1 PUSH1 0x0 SSTORE JUMP JUMPDEST SWAP5 SWAP4 POP POP POP POP JUMP JUMPDEST PUSH2 0xA9F PUSH2 0x1C6C JUMP JUMPDEST PUSH2 0x6A0 PUSH2 0x1E88 JUMP JUMPDEST PUSH2 0xAAF PUSH2 0x1D78 JUMP JUMPDEST PUSH2 0xAB7 PUSH2 0x1DD1 JUMP JUMPDEST PUSH1 0x0 DUP2 DUP2 MSTORE PUSH1 0x5 PUSH1 0x20 MSTORE PUSH1 0x40 SWAP1 KECCAK256 PUSH1 0x1 ADD SLOAD DUP2 SWAP1 PUSH1 0x1 PUSH1 0x1 PUSH1 0xA0 SHL SUB AND PUSH2 0xAF0 JUMPI PUSH1 0x40 MLOAD PUSH3 0x461BCD PUSH1 0xE5 SHL DUP2 MSTORE PUSH1 0x4 ADD PUSH2 0x635 SWAP1 PUSH2 0x26FB JUMP JUMPDEST PUSH1 0x0 DUP3 DUP2 MSTORE PUSH1 0x5 PUSH1 0x20 MSTORE PUSH1 0x40 DUP2 KECCAK256 SWAP1 PUSH1 0x5 DUP3 ADD SLOAD PUSH1 0xFF AND PUSH1 0x6 DUP2 GT ISZERO PUSH2 0xB18 JUMPI PUSH2 0xB18 PUSH2 0x24A8 JUMP JUMPDEST EQ PUSH2 0xB65 JUMPI PUSH1 0x40 MLOAD PUSH3 0x461BCD PUSH1 0xE5 SHL DUP2 MSTORE PUSH1 0x20 PUSH1 0x4 DUP3 ADD MSTORE PUSH1 0x1A PUSH1 0x24 DUP3 ADD MSTORE PUSH32 0x4172656E613A206D61746368206E6F7420617661696C61626C65000000000000 PUSH1 0x44 DUP3 ADD MSTORE PUSH1 0x64 ADD PUSH2 0x635 JUMP JUMPDEST PUSH1 0x1 DUP2 ADD SLOAD CALLER PUSH1 0x1 PUSH1 0x1 PUSH1 0xA0 SHL SUB SWAP1 SWAP2 AND SUB PUSH2 0xBC3 JUMPI PUSH1 0x40 MLOAD PUSH3 0x461BCD PUSH1 0xE5 SHL DUP2 MSTORE PUSH1 0x20 PUSH1 0x4 DUP3 ADD MSTORE PUSH1 0x1C PUSH1 0x24 DUP3 ADD MSTORE PUSH32 0x4172656E613A2063616E6E6F74206A6F696E206F776E206D6174636800000000 PUSH1 0x44 DUP3 ADD MSTORE PUSH1 0x64 ADD PUSH2 0x635 JUMP JUMPDEST PUSH2 0xE10 DUP2 PUSH1 0x6 ADD SLOAD PUSH2 0xBD5 SWAP2 SWAP1 PUSH2 0x26C9 JUMP JUMPDEST TIMESTAMP GT ISZERO PUSH2 0xC1B JUMPI PUSH1 0x40 MLOAD PUSH3 0x461BCD PUSH1 0xE5 SHL DUP2 MSTORE PUSH1 0x20 PUSH1 0x4 DUP3 ADD MSTORE PUSH1 0x14 PUSH1 0x24 DUP3 ADD MSTORE PUSH20 0x105C995B984E881B585D18DA08195E1C1A5C9959 PUSH1 0x62 SHL PUSH1 0x44 DUP3 ADD MSTORE PUSH1 0x64 ADD PUSH2 0x635 JUMP JUMPDEST PUSH7 0x58D15E17628000 CALLVALUE EQ PUSH2 0xC71 JUMPI PUSH1 0x40 MLOAD PUSH3 0x461BCD PUSH1 0xE5 SHL DUP2 MSTORE PUSH1 0x20 PUSH1 0x4 DUP3 ADD MSTORE PUSH1 0x1A PUSH1 0x24 DUP3 ADD MSTORE PUSH32 0x4172656E613A20696E636F727265637420656E74727920666565000000000000 PUSH1 0x44 DUP3 ADD MSTORE PUSH1 0x64 ADD PUSH2 0x635 JUMP JUMPDEST PUSH1 0x3 SLOAD PUSH1 0x40 MLOAD PUSH1 0x0 SWAP2 PUSH1 0x1 PUSH1 0x1 PUSH1 0xA0 SHL SUB AND SWAP1 CALLVALUE SWAP1 DUP4 DUP2 DUP2 DUP2 DUP6 DUP8 GAS CALL SWAP3 POP POP POP RETURNDATASIZE DUP1 PUSH1 0x0 DUP2 EQ PUSH2 0xCBE JUMPI PUSH1 0x40 MLOAD SWAP2 POP PUSH1 0x1F NOT PUSH1 0x3F RETURNDATASIZE ADD AND DUP3 ADD PUSH1 0x40 MSTORE RETURNDATASIZE DUP3 MSTORE RETURNDATASIZE PUSH1 0x0 PUSH1 0x20 DUP5 ADD RETURNDATACOPY PUSH2 0xCC3 JUMP JUMPDEST PUSH1 0x60 SWAP2 POP JUMPDEST POP POP SWAP1 POP DUP1 PUSH2 0xD14 JUMPI PUSH1 0x40 MLOAD PUSH3 0x461BCD PUSH1 0xE5 SHL DUP2 MSTORE PUSH1 0x20 PUSH1 0x4 DUP3 ADD DUP2 SWAP1 MSTORE PUSH1 0x24 DUP3 ADD MSTORE PUSH32 0x4172656E613A20656E74727920666565207472616E73666572206661696C6564 PUSH1 0x44 DUP3 ADD MSTORE PUSH1 0x64 ADD PUSH2 0x635 JUMP JUMPDEST PUSH1 0x3 DUP3 ADD SLOAD PUSH2 0xD51 SWAP1 PUSH1 0x1 PUSH1 0x1 PUSH1 0xA0 SHL SUB PUSH32 0x0 AND SWAP1 CALLER SWAP1 ADDRESS SWAP1 PUSH2 0x1E17 JUMP JUMPDEST PUSH1 0x3 DUP3 ADD SLOAD CALLER PUSH1 0x0 SWAP1 DUP2 MSTORE PUSH1 0x6 PUSH1 0x20 MSTORE PUSH1 0x40 DUP2 KECCAK256 DUP1 SLOAD SWAP1 SWAP2 SWAP1 PUSH2 0xD75 SWAP1 DUP5 SWAP1 PUSH2 0x26C9 JUMP JUMPDEST SWAP1 SWAP2 SSTORE POP POP PUSH1 0x2 DUP3 ADD DUP1 SLOAD CALLER PUSH1 0x1 PUSH1 0x1 PUSH1 0xA0 SHL SUB NOT SWAP1 SWAP2 AND DUP2 OR SWAP1 SWAP2 SSTORE PUSH1 0x5 DUP4 ADD DUP1 SLOAD PUSH1 0xFF NOT AND PUSH1 0x1 OR SWAP1 SSTORE PUSH1 0x40 MLOAD CALLVALUE DUP2 MSTORE DUP6 SWAP2 SWAP1 PUSH32 0x361FFC38447386EE8A2CB5CED4893F89C8B4C7ABB26F4E17CB45CA78A66F3645 SWAP1 PUSH1 0x20 ADD PUSH1 0x40 MLOAD DUP1 SWAP2 SUB SWAP1 LOG3 PUSH1 0x40 MLOAD CALLER SWAP1 DUP6 SWAP1 PUSH32 0xBC51CB30BDCB0766B64964EC76F45D9E4E9856F1558CBBA8C7A6024FA7EC80FD SWAP1 PUSH1 0x0 SWAP1 LOG3 PUSH1 0x40 MLOAD DUP5 SWAP1 PUSH32 0xFE5068908070B6677E41BD36FC9ED44948DFC8BCB10E70944A0F8E9115DB2E97 SWAP1 PUSH1 0x0 SWAP1 LOG2 POP POP POP PUSH2 0xE3C PUSH1 0x1 PUSH1 0x0 SSTORE JUMP JUMPDEST POP JUMP JUMPDEST PUSH2 0xE47 PUSH2 0x1C6C JUMP JUMPDEST PUSH1 0x1 PUSH1 0x1 PUSH1 0xA0 SHL SUB DUP2 AND PUSH2 0xE9D JUMPI PUSH1 0x40 MLOAD PUSH3 0x461BCD PUSH1 0xE5 SHL DUP2 MSTORE PUSH1 0x20 PUSH1 0x4 DUP3 ADD MSTORE PUSH1 0x18 PUSH1 0x24 DUP3 ADD MSTORE PUSH32 0x4172656E613A20696E76616C696420726563697069656E740000000000000000 PUSH1 0x44 DUP3 ADD MSTORE PUSH1 0x64 ADD PUSH2 0x635 JUMP JUMPDEST PUSH1 0x0 PUSH1 0x7 SLOAD GT PUSH2 0xEEF JUMPI PUSH1 0x40 MLOAD PUSH3 0x461BCD PUSH1 0xE5 SHL DUP2 MSTORE PUSH1 0x20 PUSH1 0x4 DUP3 ADD MSTORE PUSH1 0x1A PUSH1 0x24 DUP3 ADD MSTORE PUSH32 0x4172656E613A206E6F206665657320746F207769746864726177000000000000 PUSH1 0x44 DUP3 ADD MSTORE PUSH1 0x64 ADD PUSH2 0x635 JUMP JUMPDEST PUSH1 0x7 DUP1 SLOAD PUSH1 0x0 SWAP1 SWAP2 SSTORE PUSH2 0xF2C PUSH1 0x1 PUSH1 0x1 PUSH1 0xA0 SHL SUB PUSH32 0x0 AND DUP4 DUP4 PUSH2 0x1EC3 JUMP JUMPDEST DUP2 PUSH1 0x1 PUSH1 0x1 PUSH1 0xA0 SHL SUB AND PUSH32 0x233C84DC0C19FBF51F9FA92214FFD8A59F512E0098BFF5827455D02E401221C0 DUP3 PUSH1 0x40 MLOAD PUSH2 0xF67 SWAP2 DUP2 MSTORE PUSH1 0x20 ADD SWAP1 JUMP JUMPDEST PUSH1 0x40 MLOAD DUP1 SWAP2 SUB SWAP1 LOG2 POP POP JUMP JUMPDEST PUSH1 0x2 SLOAD PUSH1 0x1 PUSH1 0x1 PUSH1 0xA0 SHL SUB AND CALLER EQ PUSH2 0xFCD JUMPI PUSH1 0x40 MLOAD PUSH3 0x461BCD PUSH1 0xE5 SHL DUP2 MSTORE PUSH1 0x20 PUSH1 0x4 DUP3 ADD MSTORE PUSH1 0x1B PUSH1 0x24 DUP3 ADD MSTORE PUSH32 0x4172656E613A2063616C6C6572206973206E6F74206F7261636C650000000000 PUSH1 0x44 DUP3 ADD MSTORE PUSH1 0x64 ADD PUSH2 0x635 JUMP JUMPDEST PUSH1 0x0 DUP5 DUP2 MSTORE PUSH1 0x5 PUSH1 0x20 MSTORE PUSH1 0x40 SWAP1 KECCAK256 PUSH1 0x1 ADD SLOAD DUP5 SWAP1 PUSH1 0x1 PUSH1 0x1 PUSH1 0xA0 SHL SUB AND PUSH2 0x1006 JUMPI PUSH1 0x40 MLOAD PUSH3 0x461BCD PUSH1 0xE5 SHL DUP2 MSTORE PUSH1 0x4 ADD PUSH2 0x635 SWAP1 PUSH2 0x26FB JUMP JUMPDEST PUSH1 0x0 DUP6 DUP2 MSTORE PUSH1 0x5 PUSH1 0x20 MSTORE PUSH1 0x40 SWAP1 KECCAK256 PUSH1 0x1 PUSH1 0x5 DUP3 ADD SLOAD PUSH1 0xFF AND PUSH1 0x6 DUP2 GT ISZERO PUSH2 0x102F JUMPI PUSH2 0x102F PUSH2 0x24A8 JUMP JUMPDEST EQ DUP1 PUSH2 0x1053 JUMPI POP PUSH1 0x2 PUSH1 0x5 DUP3 ADD SLOAD PUSH1 0xFF AND PUSH1 0x6 DUP2 GT ISZERO PUSH2 0x1051 JUMPI PUSH2 0x1051 PUSH2 0x24A8 JUMP JUMPDEST EQ JUMPDEST PUSH2 0x109F JUMPI PUSH1 0x40 MLOAD PUSH3 0x461BCD PUSH1 0xE5 SHL DUP2 MSTORE PUSH1 0x20 PUSH1 0x4 DUP3 ADD MSTORE PUSH1 0x1B PUSH1 0x24 DUP3 ADD MSTORE PUSH32 0x4172656E613A206D61746368206E6F74207265736F6C7661626C650000000000 PUSH1 0x44 DUP3 ADD MSTORE PUSH1 0x64 ADD PUSH2 0x635 JUMP JUMPDEST PUSH1 0x1 DUP2 ADD SLOAD PUSH1 0x1 PUSH1 0x1 PUSH1 0xA0 SHL SUB DUP7 DUP2 AND SWAP2 AND EQ DUP1 PUSH2 0x10CC JUMPI POP PUSH1 0x2 DUP2 ADD SLOAD PUSH1 0x1 PUSH1 0x1 PUSH1 0xA0 SHL SUB DUP7 DUP2 AND SWAP2 AND EQ JUMPDEST PUSH2 0x1110 JUMPI PUSH1 0x40 MLOAD PUSH3 0x461BCD PUSH1 0xE5 SHL DUP2 MSTORE PUSH1 0x20 PUSH1 0x4 DUP3 ADD MSTORE PUSH1 0x15 PUSH1 0x24 DUP3 ADD MSTORE PUSH21 0x20B932B7309D1034B73B30B634B2103BB4B73732B9 PUSH1 0x59 SHL PUSH1 0x44 DUP3 ADD MSTORE PUSH1 0x64 ADD PUSH2 0x635 JUMP JUMPDEST PUSH1 0x0 DUP7 DUP7 PUSH1 0x40 MLOAD PUSH1 0x20 ADD PUSH2 0x1140 SWAP3 SWAP2 SWAP1 SWAP2 DUP3 MSTORE PUSH1 0x60 SHL PUSH12 0xFFFFFFFFFFFFFFFFFFFFFFFF NOT AND PUSH1 0x20 DUP3 ADD MSTORE PUSH1 0x34 ADD SWAP1 JUMP JUMPDEST PUSH1 0x40 MLOAD PUSH1 0x20 DUP2 DUP4 SUB SUB DUP2 MSTORE SWAP1 PUSH1 0x40 MSTORE DUP1 MLOAD SWAP1 PUSH1 0x20 ADD KECCAK256 SWAP1 POP PUSH1 0x0 PUSH2 0x1191 DUP3 PUSH32 0x19457468657265756D205369676E6564204D6573736167653A0A333200000000 PUSH1 0x0 SWAP1 DUP2 MSTORE PUSH1 0x1C SWAP2 SWAP1 SWAP2 MSTORE PUSH1 0x3C SWAP1 KECCAK256 SWAP1 JUMP JUMPDEST PUSH1 0x2 SLOAD PUSH1 0x40 DUP1 MLOAD PUSH1 0x20 PUSH1 0x1F DUP11 ADD DUP2 SWAP1 DIV DUP2 MUL DUP3 ADD DUP2 ADD SWAP1 SWAP3 MSTORE DUP9 DUP2 MSTORE SWAP3 SWAP4 POP PUSH1 0x1 PUSH1 0x1 PUSH1 0xA0 SHL SUB SWAP1 SWAP2 AND SWAP2 PUSH2 0x11E3 SWAP2 DUP10 SWAP1 DUP10 SWAP1 DUP2 SWAP1 DUP5 ADD DUP4 DUP3 DUP1 DUP3 DUP5 CALLDATACOPY PUSH1 0x0 SWAP3 ADD SWAP2 SWAP1 SWAP2 MSTORE POP DUP7 SWAP4 SWAP3 POP POP PUSH2 0x1EF3 SWAP1 POP JUMP JUMPDEST PUSH1 0x1 PUSH1 0x1 PUSH1 0xA0 SHL SUB AND EQ PUSH2 0x1239 JUMPI PUSH1 0x40 MLOAD PUSH3 0x461BCD PUSH1 0xE5 SHL DUP2 MSTORE PUSH1 0x20 PUSH1 0x4 DUP3 ADD MSTORE PUSH1 0x18 PUSH1 0x24 DUP3 ADD MSTORE PUSH32 0x4172656E613A20696E76616C6964207369676E61747572650000000000000000 PUSH1 0x44 DUP3 ADD MSTORE PUSH1 0x64 ADD PUSH2 0x635 JUMP JUMPDEST PUSH1 0x1 DUP4 ADD SLOAD PUSH1 0x0 SWAP1 PUSH1 0x1 PUSH1 0x1 PUSH1 0xA0 SHL SUB DUP10 DUP2 AND SWAP2 AND EQ PUSH2 0x1266 JUMPI PUSH1 0x1 DUP5 ADD SLOAD PUSH1 0x1 PUSH1 0x1 PUSH1 0xA0 SHL SUB AND PUSH2 0x1275 JUMP JUMPDEST PUSH1 0x2 DUP5 ADD SLOAD PUSH1 0x1 PUSH1 0x1 PUSH1 0xA0 SHL SUB AND JUMPDEST SWAP1 POP PUSH1 0x0 DUP5 PUSH1 0x3 ADD SLOAD PUSH1 0x2 PUSH2 0x128A SWAP2 SWAP1 PUSH2 0x2732 JUMP JUMPDEST SWAP1 POP PUSH1 0x0 PUSH2 0x2710 PUSH1 0x4 SLOAD DUP4 PUSH2 0x129F SWAP2 SWAP1 PUSH2 0x2732 JUMP JUMPDEST PUSH2 0x12A9 SWAP2 SWAP1 PUSH2 0x2749 JUMP JUMPDEST SWAP1 POP PUSH1 0x0 PUSH2 0x12B7 DUP3 DUP5 PUSH2 0x276B JUMP JUMPDEST PUSH1 0x5 DUP9 ADD DUP1 SLOAD PUSH1 0x1 PUSH1 0x1 PUSH1 0xA0 SHL SUB DUP15 AND PUSH2 0x100 MUL PUSH2 0x100 PUSH1 0x1 PUSH1 0xA8 SHL SUB NOT DUP3 AND DUP2 OR DUP4 SSTORE SWAP3 SWAP4 POP PUSH1 0x4 SWAP3 PUSH1 0xFF NOT AND PUSH1 0x1 PUSH1 0x1 PUSH1 0xA8 SHL SUB NOT SWAP1 SWAP2 AND OR PUSH1 0x1 DUP4 MUL OR SWAP1 SSTORE POP TIMESTAMP PUSH1 0x7 DUP9 ADD SSTORE PUSH1 0x3 DUP8 ADD SLOAD PUSH1 0x1 DUP9 ADD SLOAD PUSH1 0x1 PUSH1 0x1 PUSH1 0xA0 SHL SUB AND PUSH1 0x0 SWAP1 DUP2 MSTORE PUSH1 0x6 PUSH1 0x20 MSTORE PUSH1 0x40 DUP2 KECCAK256 DUP1 SLOAD SWAP1 SWAP2 SWAP1 PUSH2 0x1331 SWAP1 DUP5 SWAP1 PUSH2 0x276B JUMP JUMPDEST SWAP1 SWAP2 SSTORE POP POP PUSH1 0x3 DUP8 ADD SLOAD PUSH1 0x2 DUP9 ADD SLOAD PUSH1 0x1 PUSH1 0x1 PUSH1 0xA0 SHL SUB AND PUSH1 0x0 SWAP1 DUP2 MSTORE PUSH1 0x6 PUSH1 0x20 MSTORE PUSH1 0x40 DUP2 KECCAK256 DUP1 SLOAD SWAP1 SWAP2 SWAP1 PUSH2 0x1367 SWAP1 DUP5 SWAP1 PUSH2 0x276B JUMP JUMPDEST SWAP3 POP POP DUP2 SWAP1 SSTORE POP DUP2 PUSH1 0x7 PUSH1 0x0 DUP3 DUP3 SLOAD PUSH2 0x1380 SWAP2 SWAP1 PUSH2 0x26C9 JUMP JUMPDEST SWAP1 SWAP2 SSTORE POP PUSH2 0x13BA SWAP1 POP PUSH1 0x1 PUSH1 0x1 PUSH1 0xA0 SHL SUB PUSH32 0x0 AND DUP13 DUP4 PUSH2 0x1EC3 JUMP JUMPDEST DUP4 PUSH1 0x1 PUSH1 0x1 PUSH1 0xA0 SHL SUB AND DUP12 PUSH1 0x1 PUSH1 0x1 PUSH1 0xA0 SHL SUB AND DUP14 PUSH32 0x10C7C1DEA7387692CB8100B196CB70D74BB014BDACB8B19B8FE0DB7C5684EDA DUP5 PUSH1 0x40 MLOAD PUSH2 0x1400 SWAP2 DUP2 MSTORE PUSH1 0x20 ADD SWAP1 JUMP JUMPDEST PUSH1 0x40 MLOAD DUP1 SWAP2 SUB SWAP1 LOG4 POP POP POP POP POP POP POP POP POP POP POP POP JUMP JUMPDEST PUSH1 0x0 DUP2 DUP2 MSTORE PUSH1 0x5 PUSH1 0x20 MSTORE PUSH1 0x40 SWAP1 KECCAK256 PUSH1 0x1 ADD SLOAD DUP2 SWAP1 PUSH1 0x1 PUSH1 0x1 PUSH1 0xA0 SHL SUB AND PUSH2 0x144F JUMPI PUSH1 0x40 MLOAD PUSH3 0x461BCD PUSH1 0xE5 SHL DUP2 MSTORE PUSH1 0x4 ADD PUSH2 0x635 SWAP1 PUSH2 0x26FB JUMP JUMPDEST PUSH1 0x0 DUP3 DUP2 MSTORE PUSH1 0x5 PUSH1 0x20 MSTORE PUSH1 0x40 SWAP1 KECCAK256 PUSH1 0x1 DUP2 ADD SLOAD PUSH1 0x1 PUSH1 0x1 PUSH1 0xA0 SHL SUB AND CALLER EQ PUSH2 0x14B9 JUMPI PUSH1 0x40 MLOAD PUSH3 0x461BCD PUSH1 0xE5 SHL DUP2 MSTORE PUSH1 0x20 PUSH1 0x4 DUP3 ADD MSTORE PUSH1 0x1E PUSH1 0x24 DUP3 ADD MSTORE PUSH32 0x4172656E613A206F6E6C792063726561746F722063616E2063616E63656C0000 PUSH1 0x44 DUP3 ADD MSTORE PUSH1 0x64 ADD PUSH2 0x635 JUMP JUMPDEST PUSH1 0x0 PUSH1 0x5 DUP3 ADD SLOAD PUSH1 0xFF AND PUSH1 0x6 DUP2 GT ISZERO PUSH2 0x14D4 JUMPI PUSH2 0x14D4 PUSH2 0x24A8 JUMP JUMPDEST EQ PUSH2 0x1521 JUMPI PUSH1 0x40 MLOAD PUSH3 0x461BCD PUSH1 0xE5 SHL DUP2 MSTORE PUSH1 0x20 PUSH1 0x4 DUP3 ADD DUP2 SWAP1 MSTORE PUSH1 0x24 DUP3 ADD MSTORE PUSH32 0x4172656E613A206D617463682063616E6E6F742062652063616E63656C6C6564 PUSH1 0x44 DUP3 ADD MSTORE PUSH1 0x64 ADD PUSH2 0x635 JUMP JUMPDEST PUSH1 0x5 DUP2 DUP2 ADD DUP1 SLOAD PUSH1 0xFF NOT AND SWAP1 SWAP2 OR SWAP1 SSTORE PUSH1 0x3 DUP2 ADD SLOAD PUSH1 0x1 DUP3 ADD SLOAD PUSH1 0x1 PUSH1 0x1 PUSH1 0xA0 SHL SUB AND PUSH1 0x0 SWAP1 DUP2 MSTORE PUSH1 0x6 PUSH1 0x20 MSTORE PUSH1 0x40 DUP2 KECCAK256 DUP1 SLOAD SWAP1 SWAP2 SWAP1 PUSH2 0x1562 SWAP1 DUP5 SWAP1 PUSH2 0x276B JUMP JUMPDEST SWAP1 SWAP2 SSTORE POP POP PUSH1 0x1 DUP2 ADD SLOAD PUSH1 0x3 DUP3 ADD SLOAD PUSH2 0x15A9 SWAP2 PUSH1 0x1 PUSH1 0x1 PUSH1 0xA0 SHL SUB PUSH32 0x0 DUP2 AND SWAP3 SWAP2 AND SWAP1 PUSH2 0x1EC3 JUMP JUMPDEST DUP3 PUSH32 0xAB30B638CF85F207265A560A604A68CE9ED9A7599CE09737F380EB1DCCBA6B26 PUSH1 0x40 MLOAD PUSH2 0x1600 SWAP1 PUSH1 0x20 DUP1 DUP3 MSTORE PUSH1 0x14 SWAP1 DUP3 ADD MSTORE PUSH20 0x21B0B731B2B63632B210313C9031B932B0BA37B9 PUSH1 0x61 SHL PUSH1 0x40 DUP3 ADD MSTORE PUSH1 0x60 ADD SWAP1 JUMP JUMPDEST PUSH1 0x40 MLOAD DUP1 SWAP2 SUB SWAP1 LOG2 POP POP POP JUMP JUMPDEST PUSH2 0x1615 PUSH2 0x1C6C JUMP JUMPDEST PUSH1 0x1 PUSH1 0x1 PUSH1 0xA0 SHL SUB DUP2 AND PUSH2 0x166B JUMPI PUSH1 0x40 MLOAD PUSH3 0x461BCD PUSH1 0xE5 SHL DUP2 MSTORE PUSH1 0x20 PUSH1 0x4 DUP3 ADD MSTORE PUSH1 0x1E PUSH1 0x24 DUP3 ADD MSTORE PUSH32 0x4172656E613A20696E76616C6964206D656D706F6F6C20616464726573730000 PUSH1 0x44 DUP3 ADD MSTORE PUSH1 0x64 ADD PUSH2 0x635 JUMP JUMPDEST PUSH1 0x3 DUP1 SLOAD PUSH1 0x1 PUSH1 0x1 PUSH1 0xA0 SHL SUB DUP4 DUP2 AND PUSH1 0x1 PUSH1 0x1 PUSH1 0xA0 SHL SUB NOT DUP4 AND DUP2 OR SWAP1 SWAP4 SSTORE PUSH1 0x40 MLOAD SWAP2 AND SWAP2 SWAP1 DUP3 SWAP1 PUSH32 0x90EA440DA841E401C689A62642A5198A6BB8C2EA9E7C5BA354C3A8874B901987 SWAP1 PUSH1 0x0 SWAP1 LOG3 POP POP JUMP JUMPDEST PUSH1 0x0 DUP2 DUP2 MSTORE PUSH1 0x5 PUSH1 0x20 MSTORE PUSH1 0x40 SWAP1 KECCAK256 PUSH1 0x1 ADD SLOAD DUP2 SWAP1 PUSH1 0x1 PUSH1 0x1 PUSH1 0xA0 SHL SUB AND PUSH2 0x16F6 JUMPI PUSH1 0x40 MLOAD PUSH3 0x461BCD PUSH1 0xE5 SHL DUP2 MSTORE PUSH1 0x4 ADD PUSH2 0x635 SWAP1 PUSH2 0x26FB JUMP JUMPDEST PUSH1 0x0 DUP3 DUP2 MSTORE PUSH1 0x5 PUSH1 0x20 MSTORE PUSH1 0x40 SWAP1 KECCAK256 PUSH1 0x6 DUP2 ADD SLOAD PUSH2 0x1716 SWAP1 PUSH2 0xE10 SWAP1 PUSH2 0x26C9 JUMP JUMPDEST PUSH2 0x1722 SWAP1 PUSH2 0xE10 PUSH2 0x26C9 JUMP JUMPDEST TIMESTAMP GT PUSH2 0x177C JUMPI PUSH1 0x40 MLOAD PUSH3 0x461BCD PUSH1 0xE5 SHL DUP2 MSTORE PUSH1 0x20 PUSH1 0x4 DUP3 ADD MSTORE PUSH1 0x23 PUSH1 0x24 DUP3 ADD MSTORE PUSH32 0x4172656E613A206D61746368206E6F74206578706972656420666F7220726566 PUSH1 0x44 DUP3 ADD MSTORE PUSH3 0x1D5B99 PUSH1 0xEA SHL PUSH1 0x64 DUP3 ADD MSTORE PUSH1 0x84 ADD PUSH2 0x635 JUMP JUMPDEST PUSH1 0x0 PUSH1 0x5 DUP3 ADD SLOAD PUSH1 0xFF AND PUSH1 0x6 DUP2 GT ISZERO PUSH2 0x1797 JUMPI PUSH2 0x1797 PUSH2 0x24A8 JUMP JUMPDEST EQ DUP1 PUSH2 0x17BB JUMPI POP PUSH1 0x1 PUSH1 0x5 DUP3 ADD SLOAD PUSH1 0xFF AND PUSH1 0x6 DUP2 GT ISZERO PUSH2 0x17B9 JUMPI PUSH2 0x17B9 PUSH2 0x24A8 JUMP JUMPDEST EQ JUMPDEST DUP1 PUSH2 0x17DE JUMPI POP PUSH1 0x2 PUSH1 0x5 DUP3 ADD SLOAD PUSH1 0xFF AND PUSH1 0x6 DUP2 GT ISZERO PUSH2 0x17DC JUMPI PUSH2 0x17DC PUSH2 0x24A8 JUMP JUMPDEST EQ JUMPDEST PUSH2 0x182A JUMPI PUSH1 0x40 MLOAD PUSH3 0x461BCD PUSH1 0xE5 SHL DUP2 MSTORE PUSH1 0x20 PUSH1 0x4 DUP3 ADD MSTORE PUSH1 0x1B PUSH1 0x24 DUP3 ADD MSTORE PUSH32 0x4172656E613A206D61746368206E6F7420726566756E6461626C650000000000 PUSH1 0x44 DUP3 ADD MSTORE PUSH1 0x64 ADD PUSH2 0x635 JUMP JUMPDEST PUSH1 0x5 DUP2 ADD DUP1 SLOAD PUSH1 0xFF NOT AND PUSH1 0x6 OR SWAP1 SSTORE PUSH1 0x2 DUP2 ADD SLOAD PUSH1 0x1 PUSH1 0x1 PUSH1 0xA0 SHL SUB AND ISZERO PUSH2 0x19D8 JUMPI PUSH1 0x3 DUP2 ADD SLOAD PUSH1 0x1 DUP3 ADD SLOAD PUSH1 0x1 PUSH1 0x1 PUSH1 0xA0 SHL SUB AND PUSH1 0x0 SWAP1 DUP2 MSTORE PUSH1 0x6 PUSH1 0x20 MSTORE PUSH1 0x40 DUP2 KECCAK256 DUP1 SLOAD SWAP1 SWAP2 SWAP1 PUSH2 0x187D SWAP1 DUP5 SWAP1 PUSH2 0x276B JUMP JUMPDEST SWAP1 SWAP2 SSTORE POP POP PUSH1 0x3 DUP2 ADD SLOAD PUSH1 0x2 DUP3 ADD SLOAD PUSH1 0x1 PUSH1 0x1 PUSH1 0xA0 SHL SUB AND PUSH1 0x0 SWAP1 DUP2 MSTORE PUSH1 0x6 PUSH1 0x20 MSTORE PUSH1 0x40 DUP2 KECCAK256 DUP1 SLOAD SWAP1 SWAP2 SWAP1 PUSH2 0x18B3 SWAP1 DUP5 SWAP1 PUSH2 0x276B JUMP JUMPDEST SWAP1 SWAP2 SSTORE POP POP PUSH1 0x1 DUP2 ADD SLOAD PUSH1 0x3 DUP3 ADD SLOAD PUSH2 0x18FA SWAP2 PUSH1 0x1 PUSH1 0x1 PUSH1 0xA0 SHL SUB PUSH32 0x0 DUP2 AND SWAP3 SWAP2 AND SWAP1 PUSH2 0x1EC3 JUMP JUMPDEST PUSH1 0x2 DUP2 ADD SLOAD PUSH1 0x3 DUP3 ADD SLOAD PUSH2 0x193C SWAP2 PUSH1 0x1 PUSH1 0x1 PUSH1 0xA0 SHL SUB PUSH32 0x0 DUP2 AND SWAP3 SWAP2 AND SWAP1 PUSH2 0x1EC3 JUMP JUMPDEST PUSH1 0x1 DUP2 ADD SLOAD PUSH1 0x3 DUP3 ADD SLOAD PUSH1 0x40 MLOAD SWAP1 DUP2 MSTORE PUSH1 0x1 PUSH1 0x1 PUSH1 0xA0 SHL SUB SWAP1 SWAP2 AND SWAP1 DUP5 SWAP1 PUSH32 0xCCB50F386A2BBA2829DA1414813B7E8E1BBDB9BFF8B15BA912A318D69EC0C26 SWAP1 PUSH1 0x20 ADD PUSH1 0x40 MLOAD DUP1 SWAP2 SUB SWAP1 LOG3 PUSH1 0x2 DUP2 ADD SLOAD PUSH1 0x3 DUP3 ADD SLOAD PUSH1 0x40 MLOAD SWAP1 DUP2 MSTORE PUSH1 0x1 PUSH1 0x1 PUSH1 0xA0 SHL SUB SWAP1 SWAP2 AND SWAP1 DUP5 SWAP1 PUSH32 0xCCB50F386A2BBA2829DA1414813B7E8E1BBDB9BFF8B15BA912A318D69EC0C26 SWAP1 PUSH1 0x20 ADD JUMPDEST PUSH1 0x40 MLOAD DUP1 SWAP2 SUB SWAP1 LOG3 POP POP POP JUMP JUMPDEST PUSH1 0x3 DUP2 ADD SLOAD PUSH1 0x1 DUP3 ADD SLOAD PUSH1 0x1 PUSH1 0x1 PUSH1 0xA0 SHL SUB AND PUSH1 0x0 SWAP1 DUP2 MSTORE PUSH1 0x6 PUSH1 0x20 MSTORE PUSH1 0x40 DUP2 KECCAK256 DUP1 SLOAD SWAP1 SWAP2 SWAP1 PUSH2 0x1A09 SWAP1 DUP5 SWAP1 PUSH2 0x276B JUMP JUMPDEST SWAP1 SWAP2 SSTORE POP POP PUSH1 0x1 DUP2 ADD SLOAD PUSH1 0x3 DUP3 ADD SLOAD PUSH2 0x1A50 SWAP2 PUSH1 0x1 PUSH1 0x1 PUSH1 0xA0 SHL SUB PUSH32 0x0 DUP2 AND SWAP3 SWAP2 AND SWAP1 PUSH2 0x1EC3 JUMP JUMPDEST PUSH1 0x1 DUP2 ADD SLOAD PUSH1 0x3 DUP3 ADD SLOAD PUSH1 0x40 MLOAD SWAP1 DUP2 MSTORE PUSH1 0x1 PUSH1 0x1 PUSH1 0xA0 SHL SUB SWAP1 SWAP2 AND SWAP1 DUP5 SWAP1 PUSH32 0xCCB50F386A2BBA2829DA1414813B7E8E1BBDB9BFF8B15BA912A318D69EC0C26 SWAP1 PUSH1 0x20 ADD PUSH2 0x19CB JUMP JUMPDEST POP POP POP JUMP JUMPDEST PUSH2 0x1AA5 PUSH2 0x1C6C JUMP JUMPDEST PUSH1 0x1 PUSH1 0x1 PUSH1 0xA0 SHL SUB DUP2 AND PUSH2 0x1B0A JUMPI PUSH1 0x40 MLOAD PUSH3 0x461BCD PUSH1 0xE5 SHL DUP2 MSTORE PUSH1 0x20 PUSH1 0x4 DUP3 ADD MSTORE PUSH1 0x26 PUSH1 0x24 DUP3 ADD MSTORE PUSH32 0x4F776E61626C653A206E6577206F776E657220697320746865207A65726F2061 PUSH1 0x44 DUP3 ADD MSTORE PUSH6 0x646472657373 PUSH1 0xD0 SHL PUSH1 0x64 DUP3 ADD MSTORE PUSH1 0x84 ADD PUSH2 0x635 JUMP JUMPDEST PUSH2 0xE3C DUP2 PUSH2 0x1D1E JUMP JUMPDEST PUSH1 0x40 DUP1 MLOAD PUSH2 0x160 DUP2 ADD DUP3 MSTORE PUSH1 0x0 DUP1 DUP3 MSTORE PUSH1 0x20 DUP3 ADD DUP2 SWAP1 MSTORE SWAP2 DUP2 ADD DUP3 SWAP1 MSTORE PUSH1 0x60 DUP2 ADD DUP3 SWAP1 MSTORE PUSH1 0x80 DUP2 ADD DUP3 SWAP1 MSTORE PUSH1 0xA0 DUP2 ADD DUP3 SWAP1 MSTORE PUSH1 0xC0 DUP2 ADD DUP3 SWAP1 MSTORE PUSH1 0xE0 DUP2 ADD DUP3 SWAP1 MSTORE PUSH2 0x100 DUP2 ADD DUP3 SWAP1 MSTORE PUSH2 0x120 DUP2 ADD DUP3 SWAP1 MSTORE PUSH2 0x140 DUP2 ADD SWAP2 SWAP1 SWAP2 MSTORE PUSH1 0x0 DUP3 DUP2 MSTORE PUSH1 0x5 PUSH1 0x20 SWAP1 DUP2 MSTORE PUSH1 0x40 SWAP2 DUP3 SWAP1 KECCAK256 DUP3 MLOAD PUSH2 0x160 DUP2 ADD DUP5 MSTORE DUP2 SLOAD DUP2 MSTORE PUSH1 0x1 DUP3 ADD SLOAD PUSH1 0x1 PUSH1 0x1 PUSH1 0xA0 SHL SUB SWAP1 DUP2 AND SWAP4 DUP3 ADD SWAP4 SWAP1 SWAP4 MSTORE PUSH1 0x2 DUP1 DUP4 ADD SLOAD SWAP4 DUP5 AND SWAP5 DUP3 ADD SWAP5 SWAP1 SWAP5 MSTORE SWAP3 SWAP1 SWAP2 PUSH1 0x60 DUP5 ADD SWAP2 PUSH1 0x1 PUSH1 0xA0 SHL SWAP1 SWAP2 DIV PUSH1 0xFF AND SWAP1 DUP2 GT ISZERO PUSH2 0x1BD5 JUMPI PUSH2 0x1BD5 PUSH2 0x24A8 JUMP JUMPDEST PUSH1 0x2 DUP2 GT ISZERO PUSH2 0x1BE6 JUMPI PUSH2 0x1BE6 PUSH2 0x24A8 JUMP JUMPDEST DUP2 MSTORE PUSH1 0x3 DUP3 ADD SLOAD PUSH1 0x20 DUP3 ADD MSTORE PUSH1 0x4 DUP3 ADD SLOAD PUSH1 0x40 DUP3 ADD MSTORE PUSH1 0x5 DUP3 ADD SLOAD PUSH1 0x60 SWAP1 SWAP2 ADD SWAP1 PUSH1 0xFF AND PUSH1 0x6 DUP2 GT ISZERO PUSH2 0x1C1B JUMPI PUSH2 0x1C1B PUSH2 0x24A8 JUMP JUMPDEST PUSH1 0x6 DUP2 GT ISZERO PUSH2 0x1C2C JUMPI PUSH2 0x1C2C PUSH2 0x24A8 JUMP JUMPDEST DUP2 MSTORE PUSH1 0x5 DUP3 ADD SLOAD PUSH2 0x100 SWAP1 DIV PUSH1 0x1 PUSH1 0x1 PUSH1 0xA0 SHL SUB AND PUSH1 0x20 DUP3 ADD MSTORE PUSH1 0x6 DUP3 ADD SLOAD PUSH1 0x40 DUP3 ADD MSTORE PUSH1 0x7 DUP3 ADD SLOAD PUSH1 0x60 DUP3 ADD MSTORE PUSH1 0x8 SWAP1 SWAP2 ADD SLOAD PUSH1 0x80 SWAP1 SWAP2 ADD MSTORE SWAP3 SWAP2 POP POP JUMP JUMPDEST PUSH1 0x1 SLOAD PUSH1 0x1 PUSH1 0x1 PUSH1 0xA0 SHL SUB PUSH2 0x100 SWAP1 SWAP2 DIV AND CALLER EQ PUSH2 0x6A0 JUMPI PUSH1 0x40 MLOAD PUSH3 0x461BCD PUSH1 0xE5 SHL DUP2 MSTORE PUSH1 0x20 PUSH1 0x4 DUP3 ADD DUP2 SWAP1 MSTORE PUSH1 0x24 DUP3 ADD MSTORE PUSH32 0x4F776E61626C653A2063616C6C6572206973206E6F7420746865206F776E6572 PUSH1 0x44 DUP3 ADD MSTORE PUSH1 0x64 ADD PUSH2 0x635 JUMP JUMPDEST PUSH2 0x1CD4 PUSH2 0x1F19 JUMP JUMPDEST PUSH1 0x1 DUP1 SLOAD PUSH1 0xFF NOT AND SWAP1 SSTORE PUSH32 0x5DB9EE0A495BF2E6FF9C91A7834C1BA4FDD244A5E8AA4E537BD38AEAE4B073AA CALLER JUMPDEST PUSH1 0x40 MLOAD PUSH1 0x1 PUSH1 0x1 PUSH1 0xA0 SHL SUB SWAP1 SWAP2 AND DUP2 MSTORE PUSH1 0x20 ADD PUSH1 0x40 MLOAD DUP1 SWAP2 SUB SWAP1 LOG1 JUMP JUMPDEST PUSH1 0x1 DUP1 SLOAD PUSH1 0x1 PUSH1 0x1 PUSH1 0xA0 SHL SUB DUP4 DUP2 AND PUSH2 0x100 DUP2 DUP2 MUL PUSH2 0x100 PUSH1 0x1 PUSH1 0xA8 SHL SUB NOT DUP6 AND OR SWAP1 SWAP5 SSTORE PUSH1 0x40 MLOAD SWAP4 SWAP1 SWAP3 DIV AND SWAP2 DUP3 SWAP1 PUSH32 0x8BE0079C531659141344CD1FD0A4F28419497F9722A3DAAFE3B4186F6B6457E0 SWAP1 PUSH1 0x0 SWAP1 LOG3 POP POP JUMP JUMPDEST PUSH1 0x2 PUSH1 0x0 SLOAD SUB PUSH2 0x1DCA JUMPI PUSH1 0x40 MLOAD PUSH3 0x461BCD PUSH1 0xE5 SHL DUP2 MSTORE PUSH1 0x20 PUSH1 0x4 DUP3 ADD MSTORE PUSH1 0x1F PUSH1 0x24 DUP3 ADD MSTORE PUSH32 0x5265656E7472616E637947756172643A207265656E7472616E742063616C6C00 PUSH1 0x44 DUP3 ADD MSTORE PUSH1 0x64 ADD PUSH2 0x635 JUMP JUMPDEST PUSH1 0x2 PUSH1 0x0 SSTORE JUMP JUMPDEST PUSH1 0x1 SLOAD PUSH1 0xFF AND ISZERO PUSH2 0x6A0 JUMPI PUSH1 0x40 MLOAD PUSH3 0x461BCD PUSH1 0xE5 SHL DUP2 MSTORE PUSH1 0x20 PUSH1 0x4 DUP3 ADD MSTORE PUSH1 0x10 PUSH1 0x24 DUP3 ADD MSTORE PUSH16 0x14185D5CD8589B194E881C185D5CD959 PUSH1 0x82 SHL PUSH1 0x44 DUP3 ADD MSTORE PUSH1 0x64 ADD PUSH2 0x635 JUMP JUMPDEST PUSH1 0x40 MLOAD PUSH1 0x1 PUSH1 0x1 PUSH1 0xA0 SHL SUB DUP1 DUP6 AND PUSH1 0x24 DUP4 ADD MSTORE DUP4 AND PUSH1 0x44 DUP3 ADD MSTORE PUSH1 0x64 DUP2 ADD DUP3 SWAP1 MSTORE PUSH2 0x1E82 SWAP1 DUP6 SWAP1 PUSH4 0x23B872DD PUSH1 0xE0 SHL SWAP1 PUSH1 0x84 ADD JUMPDEST PUSH1 0x40 DUP1 MLOAD PUSH1 0x1F NOT DUP2 DUP5 SUB ADD DUP2 MSTORE SWAP2 SWAP1 MSTORE PUSH1 0x20 DUP2 ADD DUP1 MLOAD PUSH1 0x1 PUSH1 0x1 PUSH1 0xE0 SHL SUB AND PUSH1 0x1 PUSH1 0x1 PUSH1 0xE0 SHL SUB NOT SWAP1 SWAP4 AND SWAP3 SWAP1 SWAP3 OR SWAP1 SWAP2 MSTORE PUSH2 0x1F62 JUMP JUMPDEST POP POP POP POP JUMP JUMPDEST PUSH2 0x1E90 PUSH2 0x1DD1 JUMP JUMPDEST PUSH1 0x1 DUP1 SLOAD PUSH1 0xFF NOT AND DUP2 OR SWAP1 SSTORE PUSH32 0x62E78CEA01BEE320CD4E420270B5EA74000D11B0C9F74754EBDBFC544B05A258 CALLER PUSH2 0x1D01 JUMP JUMPDEST PUSH1 0x40 MLOAD PUSH1 0x1 PUSH1 0x1 PUSH1 0xA0 SHL SUB DUP4 AND PUSH1 0x24 DUP3 ADD MSTORE PUSH1 0x44 DUP2 ADD DUP3 SWAP1 MSTORE PUSH2 0x1A98 SWAP1 DUP5 SWAP1 PUSH4 0xA9059CBB PUSH1 0xE0 SHL SWAP1 PUSH1 0x64 ADD PUSH2 0x1E4B JUMP JUMPDEST PUSH1 0x0 DUP1 PUSH1 0x0 PUSH2 0x1F02 DUP6 DUP6 PUSH2 0x2037 JUMP JUMPDEST SWAP2 POP SWAP2 POP PUSH2 0x1F0F DUP2 PUSH2 0x207C JUMP JUMPDEST POP SWAP1 POP JUMPDEST SWAP3 SWAP2 POP POP JUMP JUMPDEST PUSH1 0x1 SLOAD PUSH1 0xFF AND PUSH2 0x6A0 JUMPI PUSH1 0x40 MLOAD PUSH3 0x461BCD PUSH1 0xE5 SHL DUP2 MSTORE PUSH1 0x20 PUSH1 0x4 DUP3 ADD MSTORE PUSH1 0x14 PUSH1 0x24 DUP3 ADD MSTORE PUSH20 0x14185D5CD8589B194E881B9BDD081C185D5CD959 PUSH1 0x62 SHL PUSH1 0x44 DUP3 ADD MSTORE PUSH1 0x64 ADD PUSH2 0x635 JUMP JUMPDEST PUSH1 0x0 PUSH2 0x1FB7 DUP3 PUSH1 0x40 MLOAD DUP1 PUSH1 0x40 ADD PUSH1 0x40 MSTORE DUP1 PUSH1 0x20 DUP2 MSTORE PUSH1 0x20 ADD PUSH32 0x5361666545524332303A206C6F772D6C6576656C2063616C6C206661696C6564 DUP2 MSTORE POP DUP6 PUSH1 0x1 PUSH1 0x1 PUSH1 0xA0 SHL SUB AND PUSH2 0x21C6 SWAP1 SWAP3 SWAP2 SWAP1 PUSH4 0xFFFFFFFF AND JUMP JUMPDEST SWAP1 POP DUP1 MLOAD PUSH1 0x0 EQ DUP1 PUSH2 0x1FD8 JUMPI POP DUP1 DUP1 PUSH1 0x20 ADD SWAP1 MLOAD DUP2 ADD SWAP1 PUSH2 0x1FD8 SWAP2 SWAP1 PUSH2 0x277E JUMP JUMPDEST PUSH2 0x1A98 JUMPI PUSH1 0x40 MLOAD PUSH3 0x461BCD PUSH1 0xE5 SHL DUP2 MSTORE PUSH1 0x20 PUSH1 0x4 DUP3 ADD MSTORE PUSH1 0x2A PUSH1 0x24 DUP3 ADD MSTORE PUSH32 0x5361666545524332303A204552433230206F7065726174696F6E20646964206E PUSH1 0x44 DUP3 ADD MSTORE PUSH10 0x1BDD081CDD58D8D95959 PUSH1 0xB2 SHL PUSH1 0x64 DUP3 ADD MSTORE PUSH1 0x84 ADD PUSH2 0x635 JUMP JUMPDEST PUSH1 0x0 DUP1 DUP3 MLOAD PUSH1 0x41 SUB PUSH2 0x206D JUMPI PUSH1 0x20 DUP4 ADD MLOAD PUSH1 0x40 DUP5 ADD MLOAD PUSH1 0x60 DUP6 ADD MLOAD PUSH1 0x0 BYTE PUSH2 0x2061 DUP8 DUP3 DUP6 DUP6 PUSH2 0x21D5 JUMP JUMPDEST SWAP5 POP SWAP5 POP POP POP POP PUSH2 0x2075 JUMP JUMPDEST POP PUSH1 0x0 SWAP1 POP PUSH1 0x2 JUMPDEST SWAP3 POP SWAP3 SWAP1 POP JUMP JUMPDEST PUSH1 0x0 DUP2 PUSH1 0x4 DUP2 GT ISZERO PUSH2 0x2090 JUMPI PUSH2 0x2090 PUSH2 0x24A8 JUMP JUMPDEST SUB PUSH2 0x2098 JUMPI POP JUMP JUMPDEST PUSH1 0x1 DUP2 PUSH1 0x4 DUP2 GT ISZERO PUSH2 0x20AC JUMPI PUSH2 0x20AC PUSH2 0x24A8 JUMP JUMPDEST SUB PUSH2 0x20F9 JUMPI PUSH1 0x40 MLOAD PUSH3 0x461BCD PUSH1 0xE5 SHL DUP2 MSTORE PUSH1 0x20 PUSH1 0x4 DUP3 ADD MSTORE PUSH1 0x18 PUSH1 0x24 DUP3 ADD MSTORE PUSH32 0x45434453413A20696E76616C6964207369676E61747572650000000000000000 PUSH1 0x44 DUP3 ADD MSTORE PUSH1 0x64 ADD PUSH2 0x635 JUMP JUMPDEST PUSH1 0x2 DUP2 PUSH1 0x4 DUP2 GT ISZERO PUSH2 0x210D JUMPI PUSH2 0x210D PUSH2 0x24A8 JUMP JUMPDEST SUB PUSH2 0x215A JUMPI PUSH1 0x40 MLOAD PUSH3 0x461BCD PUSH1 0xE5 SHL DUP2 MSTORE PUSH1 0x20 PUSH1 0x4 DUP3 ADD MSTORE PUSH1 0x1F PUSH1 0x24 DUP3 ADD MSTORE PUSH32 0x45434453413A20696E76616C6964207369676E6174757265206C656E67746800 PUSH1 0x44 DUP3 ADD MSTORE PUSH1 0x64 ADD PUSH2 0x635 JUMP JUMPDEST PUSH1 0x3 DUP2 PUSH1 0x4 DUP2 GT ISZERO PUSH2 0x216E JUMPI PUSH2 0x216E PUSH2 0x24A8 JUMP JUMPDEST SUB PUSH2 0xE3C JUMPI PUSH1 0x40 MLOAD PUSH3 0x461BCD PUSH1 0xE5 SHL DUP2 MSTORE PUSH1 0x20 PUSH1 0x4 DUP3 ADD MSTORE PUSH1 0x22 PUSH1 0x24 DUP3 ADD MSTORE PUSH32 0x45434453413A20696E76616C6964207369676E6174757265202773272076616C PUSH1 0x44 DUP3 ADD MSTORE PUSH2 0x7565 PUSH1 0xF0 SHL PUSH1 0x64 DUP3 ADD MSTORE PUSH1 0x84 ADD PUSH2 0x635 JUMP JUMPDEST PUSH1 0x60 PUSH2 0xA8F DUP5 DUP5 PUSH1 0x0 DUP6 PUSH2 0x2299 JUMP JUMPDEST PUSH1 0x0 DUP1 PUSH32 0x7FFFFFFFFFFFFFFFFFFFFFFFFFFFFFFF5D576E7357A4501DDFE92F46681B20A0 DUP4 GT ISZERO PUSH2 0x220C JUMPI POP PUSH1 0x0 SWAP1 POP PUSH1 0x3 PUSH2 0x2290 JUMP JUMPDEST PUSH1 0x40 DUP1 MLOAD PUSH1 0x0 DUP1 DUP3 MSTORE PUSH1 0x20 DUP3 ADD DUP1 DUP5 MSTORE DUP10 SWAP1 MSTORE PUSH1 0xFF DUP9 AND SWAP3 DUP3 ADD SWAP3 SWAP1 SWAP3 MSTORE PUSH1 0x60 DUP2 ADD DUP7 SWAP1 MSTORE PUSH1 0x80 DUP2 ADD DUP6 SWAP1 MSTORE PUSH1 0x1 SWAP1 PUSH1 0xA0 ADD PUSH1 0x20 PUSH1 0x40 MLOAD PUSH1 0x20 DUP2 SUB SWAP1 DUP1 DUP5 SUB SWAP1 DUP6 GAS STATICCALL ISZERO DUP1 ISZERO PUSH2 0x2260 JUMPI RETURNDATASIZE PUSH1 0x0 DUP1 RETURNDATACOPY RETURNDATASIZE PUSH1 0x0 REVERT JUMPDEST POP POP PUSH1 0x40 MLOAD PUSH1 0x1F NOT ADD MLOAD SWAP2 POP POP PUSH1 0x1 PUSH1 0x1 PUSH1 0xA0 SHL SUB DUP2 AND PUSH2 0x2289 JUMPI PUSH1 0x0 PUSH1 0x1 SWAP3 POP SWAP3 POP POP PUSH2 0x2290 JUMP JUMPDEST SWAP2 POP PUSH1 0x0 SWAP1 POP JUMPDEST SWAP5 POP SWAP5 SWAP3 POP POP POP JUMP JUMPDEST PUSH1 0x60 DUP3 SELFBALANCE LT ISZERO PUSH2 0x22FA JUMPI PUSH1 0x40 MLOAD PUSH3 0x461BCD PUSH1 0xE5 SHL DUP2 MSTORE PUSH1 0x20 PUSH1 0x4 DUP3 ADD MSTORE PUSH1 0x26 PUSH1 0x24 DUP3 ADD MSTORE PUSH32 0x416464726573733A20696E73756666696369656E742062616C616E636520666F PUSH1 0x44 DUP3 ADD MSTORE PUSH6 0x1C8818D85B1B PUSH1 0xD2 SHL PUSH1 0x64 DUP3 ADD MSTORE PUSH1 0x84 ADD PUSH2 0x635 JUMP JUMPDEST PUSH1 0x0 DUP1 DUP7 PUSH1 0x1 PUSH1 0x1 PUSH1 0xA0 SHL SUB AND DUP6 DUP8 PUSH1 0x40 MLOAD PUSH2 0x2316 SWAP2 SWAP1 PUSH2 0x27C4 JUMP JUMPDEST PUSH1 0x0 PUSH1 0x40 MLOAD DUP1 DUP4 SUB DUP2 DUP6 DUP8 GAS CALL SWAP3 POP POP POP RETURNDATASIZE DUP1 PUSH1 0x0 DUP2 EQ PUSH2 0x2353 JUMPI PUSH1 0x40 MLOAD SWAP2 POP PUSH1 0x1F NOT PUSH1 0x3F RETURNDATASIZE ADD AND DUP3 ADD PUSH1 0x40 MSTORE RETURNDATASIZE DUP3 MSTORE RETURNDATASIZE PUSH1 0x0 PUSH1 0x20 DUP5 ADD RETURNDATACOPY PUSH2 0x2358 JUMP JUMPDEST PUSH1 0x60 SWAP2 POP JUMPDEST POP SWAP2 POP SWAP2 POP PUSH2 0x2369 DUP8 DUP4 DUP4 DUP8 PUSH2 0x2374 JUMP JUMPDEST SWAP8 SWAP7 POP POP POP POP POP POP POP JUMP JUMPDEST PUSH1 0x60 DUP4 ISZERO PUSH2 0x23E3 JUMPI DUP3 MLOAD PUSH1 0x0 SUB PUSH2 0x23DC JUMPI PUSH1 0x1 PUSH1 0x1 PUSH1 0xA0 SHL SUB DUP6 AND EXTCODESIZE PUSH2 0x23DC JUMPI PUSH1 0x40 MLOAD PUSH3 0x461BCD PUSH1 0xE5 SHL DUP2 MSTORE PUSH1 0x20 PUSH1 0x4 DUP3 ADD MSTORE PUSH1 0x1D PUSH1 0x24 DUP3 ADD MSTORE PUSH32 0x416464726573733A2063616C6C20746F206E6F6E2D636F6E7472616374000000 PUSH1 0x44 DUP3 ADD MSTORE PUSH1 0x64 ADD PUSH2 0x635 JUMP JUMPDEST POP DUP2 PUSH2 0xA8F JUMP JUMPDEST PUSH2 0xA8F DUP4 DUP4 DUP2 MLOAD ISZERO PUSH2 0x23F8 JUMPI DUP2 MLOAD DUP1 DUP4 PUSH1 0x20 ADD REVERT JUMPDEST DUP1 PUSH1 0x40 MLOAD PUSH3 0x461BCD PUSH1 0xE5 SHL DUP2 MSTORE PUSH1 0x4 ADD PUSH2 0x635 SWAP2 SWAP1 PUSH2 0x27E0 JUMP JUMPDEST DUP1 CALLDATALOAD PUSH1 0x1 PUSH1 0x1 PUSH1 0xA0 SHL SUB DUP2 AND DUP2 EQ PUSH2 0x2429 JUMPI PUSH1 0x0 DUP1 REVERT JUMPDEST SWAP2 SWAP1 POP JUMP JUMPDEST PUSH1 0x0 PUSH1 0x20 DUP3 DUP5 SUB SLT ISZERO PUSH2 0x2440 JUMPI PUSH1 0x0 DUP1 REVERT JUMPDEST PUSH2 0x2449 DUP3 PUSH2 0x2412 JUMP JUMPDEST SWAP4 SWAP3 POP POP POP JUMP JUMPDEST PUSH1 0x0 PUSH1 0x20 DUP3 DUP5 SUB SLT ISZERO PUSH2 0x2462 JUMPI PUSH1 0x0 DUP1 REVERT JUMPDEST POP CALLDATALOAD SWAP2 SWAP1 POP JUMP JUMPDEST PUSH1 0x0 DUP1 PUSH1 0x0 DUP1 PUSH1 0x80 DUP6 DUP8 SUB SLT ISZERO PUSH2 0x247F JUMPI PUSH1 0x0 DUP1 REVERT JUMPDEST DUP5 CALLDATALOAD PUSH1 0x3 DUP2 LT PUSH2 0x248E JUMPI PUSH1 0x0 DUP1 REVERT JUMPDEST SWAP7 PUSH1 0x20 DUP7 ADD CALLDATALOAD SWAP7 POP PUSH1 0x40 DUP7 ADD CALLDATALOAD SWAP6 PUSH1 0x60 ADD CALLDATALOAD SWAP5 POP SWAP3 POP POP POP JUMP JUMPDEST PUSH4 0x4E487B71 PUSH1 0xE0 SHL PUSH1 0x0 MSTORE PUSH1 0x21 PUSH1 0x4 MSTORE PUSH1 0x24 PUSH1 0x0 REVERT JUMPDEST PUSH1 0x3 DUP2 LT PUSH2 0x24CE JUMPI PUSH2 0x24CE PUSH2 0x24A8 JUMP JUMPDEST SWAP1 MSTORE JUMP JUMPDEST PUSH1 0x7 DUP2 LT PUSH2 0x24CE JUMPI PUSH2 0x24CE PUSH2 0x24A8 JUMP JUMPDEST DUP12 DUP2 MSTORE PUSH1 0x1 PUSH1 0x1 PUSH1 0xA0 SHL SUB DUP12 DUP2 AND PUSH1 0x20 DUP4 ADD MSTORE DUP11 DUP2 AND PUSH1 0x40 DUP4 ADD MSTORE PUSH2 0x160 DUP3 ADD SWAP1 PUSH2 0x2510 PUSH1 0x60 DUP5 ADD DUP13 PUSH2 0x24BE JUMP JUMPDEST DUP10 PUSH1 0x80 DUP5 ADD MSTORE DUP9 PUSH1 0xA0 DUP5 ADD MSTORE PUSH2 0x2529 PUSH1 0xC0 DUP5 ADD DUP10 PUSH2 0x24D2 JUMP JUMPDEST SWAP6 SWAP1 SWAP6 AND PUSH1 0xE0 DUP3 ADD MSTORE PUSH2 0x100 DUP2 ADD SWAP4 SWAP1 SWAP4 MSTORE PUSH2 0x120 DUP4 ADD SWAP2 SWAP1 SWAP2 MSTORE PUSH2 0x140 SWAP1 SWAP2 ADD MSTORE SWAP8 SWAP7 POP POP POP POP POP POP POP JUMP JUMPDEST PUSH1 0x0 DUP1 PUSH1 0x0 DUP1 PUSH1 0x60 DUP6 DUP8 SUB SLT ISZERO PUSH2 0x256C JUMPI PUSH1 0x0 DUP1 REVERT JUMPDEST DUP5 CALLDATALOAD SWAP4 POP PUSH2 0x257C PUSH1 0x20 DUP7 ADD PUSH2 0x2412 JUMP JUMPDEST SWAP3 POP PUSH1 0x40 DUP6 ADD CALLDATALOAD PUSH8 0xFFFFFFFFFFFFFFFF DUP1 DUP3 GT ISZERO PUSH2 0x2599 JUMPI PUSH1 0x0 DUP1 REVERT JUMPDEST DUP2 DUP8 ADD SWAP2 POP DUP8 PUSH1 0x1F DUP4 ADD SLT PUSH2 0x25AD JUMPI PUSH1 0x0 DUP1 REVERT JUMPDEST DUP2 CALLDATALOAD DUP2 DUP2 GT ISZERO PUSH2 0x25BC JUMPI PUSH1 0x0 DUP1 REVERT JUMPDEST DUP9 PUSH1 0x20 DUP3 DUP6 ADD ADD GT ISZERO PUSH2 0x25CE JUMPI PUSH1 0x0 DUP1 REVERT JUMPDEST SWAP6 SWAP9 SWAP5 SWAP8 POP POP PUSH1 0x20 ADD SWAP5 POP POP POP JUMP JUMPDEST DUP2 MLOAD DUP2 MSTORE PUSH1 0x20 DUP1 DUP4 ADD MLOAD PUSH2 0x160 DUP4 ADD SWAP2 PUSH2 0x2601 SWAP1 DUP5 ADD DUP3 PUSH1 0x1 PUSH1 0x1 PUSH1 0xA0 SHL SUB AND SWAP1 MSTORE JUMP JUMPDEST POP PUSH1 0x40 DUP4 ADD MLOAD PUSH2 0x261C PUSH1 0x40 DUP5 ADD DUP3 PUSH1 0x1 PUSH1 0x1 PUSH1 0xA0 SHL SUB AND SWAP1 MSTORE JUMP JUMPDEST POP PUSH1 0x60 DUP4 ADD MLOAD PUSH2 0x262F PUSH1 0x60 DUP5 ADD DUP3 PUSH2 0x24BE JUMP JUMPDEST POP PUSH1 0x80 DUP4 ADD MLOAD PUSH1 0x80 DUP4 ADD MSTORE PUSH1 0xA0 DUP4 ADD MLOAD PUSH1 0xA0 DUP4 ADD MSTORE PUSH1 0xC0 DUP4 ADD MLOAD PUSH2 0x2656 PUSH1 0xC0 DUP5 ADD DUP3 PUSH2 0x24D2 JUMP JUMPDEST POP PUSH1 0xE0 DUP4 ADD MLOAD PUSH2 0x2671 PUSH1 0xE0 DUP5 ADD DUP3 PUSH1 0x1 PUSH1 0x1 PUSH1 0xA0 SHL SUB AND SWAP1 MSTORE JUMP JUMPDEST POP PUSH2 0x100 DUP4 DUP2 ADD MLOAD SWAP1 DUP4 ADD MSTORE PUSH2 0x120 DUP1 DUP5 ADD MLOAD SWAP1 DUP4 ADD MSTORE PUSH2 0x140 SWAP3 DUP4 ADD MLOAD SWAP3 SWAP1 SWAP2 ADD SWAP2 SWAP1 SWAP2 MSTORE SWAP1 JUMP JUMPDEST PUSH4 0x4E487B71 PUSH1 0xE0 SHL PUSH1 0x0 MSTORE PUSH1 0x11 PUSH1 0x4 MSTORE PUSH1 0x24 PUSH1 0x0 REVERT JUMPDEST PUSH1 0x0 PUSH1 0x1 DUP3 ADD PUSH2 0x26C2 JUMPI PUSH2 0x26C2 PUSH2 0x269A JUMP JUMPDEST POP PUSH1 0x1 ADD SWAP1 JUMP JUMPDEST DUP1 DUP3 ADD DUP1 DUP3 GT ISZERO PUSH2 0x1F13 JUMPI PUSH2 0x1F13 PUSH2 0x269A JUMP JUMPDEST PUSH1 0x60 DUP2 ADD PUSH2 0x26EA DUP3 DUP7 PUSH2 0x24BE JUMP JUMPDEST PUSH1 0x20 DUP3 ADD SWAP4 SWAP1 SWAP4 MSTORE PUSH1 0x40 ADD MSTORE SWAP2 SWAP1 POP JUMP JUMPDEST PUSH1 0x20 DUP1 DUP3 MSTORE PUSH1 0x1B SWAP1 DUP3 ADD MSTORE PUSH32 0x4172656E613A206D6174636820646F6573206E6F742065786973740000000000 PUSH1 0x40 DUP3 ADD MSTORE PUSH1 0x60 ADD SWAP1 JUMP JUMPDEST DUP1 DUP3 MUL DUP2 ISZERO DUP3 DUP3 DIV DUP5 EQ OR PUSH2 0x1F13 JUMPI PUSH2 0x1F13 PUSH2 0x269A JUMP JUMPDEST PUSH1 0x0 DUP3 PUSH2 0x2766 JUMPI PUSH4 0x4E487B71 PUSH1 0xE0 SHL PUSH1 0x0 MSTORE PUSH1 0x12 PUSH1 0x4 MSTORE PUSH1 0x24 PUSH1 0x0 REVERT JUMPDEST POP DIV SWAP1 JUMP JUMPDEST DUP2 DUP2 SUB DUP2 DUP2 GT ISZERO PUSH2 0x1F13 JUMPI PUSH2 0x1F13 PUSH2 0x269A JUMP JUMPDEST PUSH1 0x0 PUSH1 0x20 DUP3 DUP5 SUB SLT ISZERO PUSH2 0x2790 JUMPI PUSH1 0x0 DUP1 REVERT JUMPDEST DUP2 MLOAD DUP1 ISZERO ISZERO DUP2 EQ PUSH2 0x2449 JUMPI PUSH1 0x0 DUP1 REVERT JUMPDEST PUSH1 0x0 JUMPDEST DUP4 DUP2 LT ISZERO PUSH2 0x27BB JUMPI DUP2 DUP2 ADD MLOAD DUP4 DUP3 ADD MSTORE PUSH1 0x20 ADD PUSH2 0x27A3 JUMP JUMPDEST POP POP PUSH1 0x0 SWAP2 ADD MSTORE JUMP JUMPDEST PUSH1 0x0 DUP3 MLOAD PUSH2 0x27D6 DUP2 DUP5 PUSH1 0x20 DUP8 ADD PUSH2 0x27A0 JUMP JUMPDEST SWAP2 SWAP1 SWAP2 ADD SWAP3 SWAP2 POP POP JUMP JUMPDEST PUSH1 0x20 DUP2 MSTORE PUSH1 0x0 DUP3 MLOAD DUP1 PUSH1 0x20 DUP5 ADD MSTORE PUSH2 0x27FF DUP2 PUSH1 0x40 DUP6 ADD PUSH1 0x20 DUP8 ADD PUSH2 0x27A0 JUMP JUMPDEST PUSH1 0x1F ADD PUSH1 0x1F NOT AND SWAP2 SWAP1 SWAP2 ADD PUSH1 0x40 ADD SWAP3 SWAP2 POP POP JUMP INVALID LOG2 PUSH5 0x6970667358 0x22 SLT KECCAK256 SLT 0x5E 0xAE 0xCE 0x2C GT 0xA6 PUSH2 0xEEA5 0x25 0xC6 0xCC LOG1 SWAP1 DUP5 0x4A 0xE7 0xA9 BLOCKHASH 0xE2 0xE9 0x5D SELFBALANCE 0x4F 0xB6 PUSH28 0xF7C2B69EE964736F6C63430008130033000000000000000000000000 "},"methodIdentifiers":{"ENTRY_FEE()":"f6d361cc","MATCH_TIMEOUT()":"926590dd","MAX_PROTOCOL_FEE_BPS()":"6d947e4b","cancelMatch(bytes32)":"c82db8f9","createMatch(uint8,uint256,bytes32,uint256)":"7fa60ea5","gameToken()":"c3dfdae6","getEntryFee()":"e586a4f0","getMatch(bytes32)":"fcc6077d","getMempool()":"9fadfc06","joinMatch(bytes32)":"9ff69442","matchCounter()":"01fd1951","matches(bytes32)":"9fe9ada3","mempool()":"8613355d","oracle()":"7dc0d1d0","owner()":"8da5cb5b","pause()":"8456cb59","paused()":"5c975abb","playerStakes(address)":"b7d44644","protocolFeeBps()":"35659fb8","refundExpiredMatch(bytes32)":"dbb08016","renounceOwnership()":"715018a6","resolveMatch(bytes32,address,bytes)":"c3d8284c","totalTreasuryFees()":"ea280be3","transferOwnership(address)":"f2fde38b","unpause()":"3f4ba83a","updateMempool(address)":"cde0153c","updateOracle(address)":"1cb44dfc","updateProtocolFee(uint256)":"4256dd78","withdrawTreasuryFees(address)":"a2d169be"}},"storageLayout":{"storage":[{"astId":231,"contract":"src/Arena.sol:Arena","label":"_status","offset":0,"slot":"0","type":"t_uint256"},{"astId":130,"contract":"src/Arena.sol:Arena","label":"_paused","offset":0,"slot":"1","type":"t_bool"},{"astId":7,"contract":"src/Arena.sol:Arena","label":"_owner","offset":1,"slot":"1","type":"t_address"},{"astId":4895,"contract":"src/Arena.sol:Arena","label":"oracle","offset":0,"slot":"2","type":"t_address"},{"astId":4897,"contract":"src/Arena.sol:Arena","label":"mempool","offset":0,"slot":"3","type":"t_address"},{"astId":4900,"contract":"src/Arena.sol:Arena","label":"protocolFeeBps","offset":0,"slot":"4","type":"t_uint256"},{"astId":4951,"contract":"src/Arena.sol:Arena","label":"matches","offset":0,"slot":"5","type":"t_mapping(t_bytes32,t_struct(Match)4946_storage)"},{"astId":4955,"contract":"src/Arena.sol:Arena","label":"playerStakes","offset":0,"slot":"6","type":"t_mapping(t_address,t_uint256)"},{"astId":4957,"contract":"src/Arena.sol:Arena","label":"totalTreasuryFees","offset":0,"slot":"7","type":"t_uint256"},{"astId":4959,"contract":"src/Arena.sol:Arena","label":"matchCounter","offset":0,"slot":"8","type":"t_uint256"}],"types":{"t_address":{"encoding":"inplace","label":"address","numberOfBytes":"20"},"t_bool":{"encoding":"inplace","label":"bool","numberOfBytes":"1"},"t_bytes32":{"encoding":"inplace","label":"bytes32","numberOfBytes":"32"},"t_enum(MatchMode)4921":{"encoding":"inplace","label":"enum Arena.MatchMode","numberOfBytes":"1"},"t_enum(MatchStatus)4917":{"encoding":"inplace","label":"enum Arena.MatchStatus","numberOfBytes":"1"},"t_mapping(t_address,t_uint256)":{"encoding":"mapping","key":"t_address","label":"mapping(address => uint256)","numberOfBytes":"32","value":"t_uint256"},"t_mapping(t_bytes32,t_struct(Match)4946_storage)":{"encoding":"mapping","key":"t_bytes32","label":"mapping(bytes32 => struct Arena.Match)","numberOfBytes":"32","value":"t_struct(Match)4946_storage"},"t_struct(Match)4946_storage":{"encoding":"inplace","label":"struct Arena.Match","members":[{"astId":4923,"contract":"src/Arena.sol:Arena","label":"id","offset":0,"slot":"0","type":"t_bytes32"},{"astId":4925,"contract":"src/Arena.sol:Arena","label":"creator","offset":0,"slot":"1","type":"t_address"},{"astId":4927,"contract":"src/Arena.sol:Arena","label":"opponent","offset":0,"slot":"2","type":"t_address"},{"astId":4930,"contract":"src/Arena.sol:Arena","label":"mode","offset":20,"slot":"2","type":"t_enum(MatchMode)4921"},{"astId":4932,"contract":"src/Arena.sol:Arena","label":"stakeAmount","offset":0,"slot":"3","type":"t_uint256"},{"astId":4934,"contract":"src/Arena.sol:Arena","label":"challengeHash","offset":0,"slot":"4","type":"t_bytes32"},{"astId":4937,"contract":"src/Arena.sol:Arena","label":"status","offset":0,"slot":"5","type":"t_enum(MatchStatus)4917"},{"astId":4939,"contract":"src/Arena.sol:Arena","label":"winner","offset":1,"slot":"5","type":"t_address"},{"astId":4941,"contract":"src/Arena.sol:Arena","label":"createdAt","offset":0,"slot":"6","type":"t_uint256"},{"astId":4943,"contract":"src/Arena.sol:Arena","label":"resolvedAt","offset":0,"slot":"7","type":"t_uint256"},{"astId":4945,"contract":"src/Arena.sol:Arena","label":"timeLimit","offset":0,"slot":"8","type":"t_uint256"}],"numberOfBytes":"288"},"t_uint256":{"encoding":"inplace","label":"uint256","numberOfBytes":"32"}}}}}}