{
  "_format": "hh-sol-artifact-1",
  "contractName": "GameLogic",
  "sourceName": "contracts/GameLogic.sol",
  "abi": [
    {
      "inputs": [
        {
          "internalType": "address",
          "name": "owner_",
          "type": "address"
        },
        {
          "internalType": "address",
          "name": "diamond_",
          "type": "address"
        },
        {
          "internalType": "address",
          "name": "bank_",
          "type": "address"
        },
        {
          "internalType": "address",
          "name": "server_",
          "type": "address"
        }
      ],
      "stateMutability": "nonpayable",
      "type": "constructor"
    },
    {
      "inputs": [
        {
          "internalType": "address",
          "name": "owner",
          "type": "address"
        }
      ],
      "name": "OwnableInvalidOwner",
      "type": "error"
    },
    {
      "inputs": [
        {
          "internalType": "address",
          "name": "account",
          "type": "address"
        }
      ],
      "name": "OwnableUnauthorizedAccount",
      "type": "error"
    },
    {
      "inputs": [],
      "name": "ReentrancyGuardReentrantCall",
      "type": "error"
    },
    {
      "anonymous": false,
      "inputs": [
        {
          "indexed": true,
          "internalType": "address",
          "name": "player",
          "type": "address"
        },
        {
          "indexed": true,
          "internalType": "uint8",
          "name": "rank",
          "type": "uint8"
        },
        {
          "indexed": false,
          "internalType": "uint256",
          "name": "amount",
          "type": "uint256"
        },
        {
          "indexed": true,
          "internalType": "bytes32",
          "name": "matchId",
          "type": "bytes32"
        },
        {
          "indexed": false,
          "internalType": "uint256",
          "name": "chainId",
          "type": "uint256"
        }
      ],
      "name": "EndgameRewardClaimed",
      "type": "event"
    },
    {
      "anonymous": false,
      "inputs": [
        {
          "indexed": false,
          "internalType": "uint8",
          "name": "oldMax",
          "type": "uint8"
        },
        {
          "indexed": false,
          "internalType": "uint8",
          "name": "newMax",
          "type": "uint8"
        }
      ],
      "name": "MaxRankUpdated",
      "type": "event"
    },
    {
      "anonymous": false,
      "inputs": [
        {
          "indexed": true,
          "internalType": "address",
          "name": "previousOwner",
          "type": "address"
        },
        {
          "indexed": true,
          "internalType": "address",
          "name": "newOwner",
          "type": "address"
        }
      ],
      "name": "OwnershipTransferred",
      "type": "event"
    },
    {
      "anonymous": false,
      "inputs": [
        {
          "indexed": true,
          "internalType": "uint8",
          "name": "rank",
          "type": "uint8"
        },
        {
          "indexed": false,
          "internalType": "uint256",
          "name": "amount",
          "type": "uint256"
        }
      ],
      "name": "RewardsUpdated",
      "type": "event"
    },
    {
      "anonymous": false,
      "inputs": [
        {
          "indexed": true,
          "internalType": "address",
          "name": "oldServer",
          "type": "address"
        },
        {
          "indexed": true,
          "internalType": "address",
          "name": "newServer",
          "type": "address"
        }
      ],
      "name": "ServerUpdated",
      "type": "event"
    },
    {
      "inputs": [],
      "name": "bank",
      "outputs": [
        {
          "internalType": "address",
          "name": "",
          "type": "address"
        }
      ],
      "stateMutability": "view",
      "type": "function"
    },
    {
      "inputs": [],
      "name": "chainId",
      "outputs": [
        {
          "internalType": "uint256",
          "name": "",
          "type": "uint256"
        }
      ],
      "stateMutability": "view",
      "type": "function"
    },
    {
      "inputs": [
        {
          "internalType": "bytes32",
          "name": "matchId",
          "type": "bytes32"
        },
        {
          "internalType": "uint8",
          "name": "rank",
          "type": "uint8"
        }
      ],
      "name": "claimEndgameReward",
      "outputs": [],
      "stateMutability": "nonpayable",
      "type": "function"
    },
    {
      "inputs": [
        {
          "internalType": "address",
          "name": "player",
          "type": "address"
        },
        {
          "internalType": "bytes32",
          "name": "matchId",
          "type": "bytes32"
        },
        {
          "internalType": "uint8",
          "name": "rank",
          "type": "uint8"
        }
      ],
      "name": "claimEndgameRewardFor",
      "outputs": [],
      "stateMutability": "nonpayable",
      "type": "function"
    },
    {
      "inputs": [
        {
          "internalType": "bytes32",
          "name": "",
          "type": "bytes32"
        },
        {
          "internalType": "address",
          "name": "",
          "type": "address"
        }
      ],
      "name": "claimed",
      "outputs": [
        {
          "internalType": "bool",
          "name": "",
          "type": "bool"
        }
      ],
      "stateMutability": "view",
      "type": "function"
    },
    {
      "inputs": [],
      "name": "diamond",
      "outputs": [
        {
          "internalType": "address",
          "name": "",
          "type": "address"
        }
      ],
      "stateMutability": "view",
      "type": "function"
    },
    {
      "inputs": [],
      "name": "maxRank",
      "outputs": [
        {
          "internalType": "uint8",
          "name": "",
          "type": "uint8"
        }
      ],
      "stateMutability": "view",
      "type": "function"
    },
    {
      "inputs": [],
      "name": "owner",
      "outputs": [
        {
          "internalType": "address",
          "name": "",
          "type": "address"
        }
      ],
      "stateMutability": "view",
      "type": "function"
    },
    {
      "inputs": [],
      "name": "renounceOwnership",
      "outputs": [],
      "stateMutability": "nonpayable",
      "type": "function"
    },
    {
      "inputs": [
        {
          "internalType": "uint8",
          "name": "",
          "type": "uint8"
        }
      ],
      "name": "rewards",
      "outputs": [
        {
          "internalType": "uint256",
          "name": "",
          "type": "uint256"
        }
      ],
      "stateMutability": "view",
      "type": "function"
    },
    {
      "inputs": [],
      "name": "server",
      "outputs": [
        {
          "internalType": "address",
          "name": "",
          "type": "address"
        }
      ],
      "stateMutability": "view",
      "type": "function"
    },
    {
      "inputs": [
        {
          "internalType": "uint8",
          "name": "newMax",
          "type": "uint8"
        }
      ],
      "name": "setMaxRank",
      "outputs": [],
      "stateMutability": "nonpayable",
      "type": "function"
    },
    {
      "inputs": [
        {
          "internalType": "uint8",
          "name": "rank",
          "type": "uint8"
        },
        {
          "internalType": "uint256",
          "name": "amount",
          "type": "uint256"
        }
      ],
      "name": "setReward",
      "outputs": [],
      "stateMutability": "nonpayable",
      "type": "function"
    },
    {
      "inputs": [
        {
          "internalType": "uint8[]",
          "name": "ranks",
          "type": "uint8[]"
        },
        {
          "internalType": "uint256[]",
          "name": "amounts",
          "type": "uint256[]"
        }
      ],
      "name": "setRewardBatch",
      "outputs": [],
      "stateMutability": "nonpayable",
      "type": "function"
    },
    {
      "inputs": [
        {
          "internalType": "address",
          "name": "newServer",
          "type": "address"
        }
      ],
      "name": "setServer",
      "outputs": [],
      "stateMutability": "nonpayable",
      "type": "function"
    },
    {
      "inputs": [
        {
          "internalType": "address",
          "name": "newOwner",
          "type": "address"
        }
      ],
      "name": "transferOwnership",
      "outputs": [],
      "stateMutability": "nonpayable",
      "type": "function"
    }
  ],
  "bytecode": "0x60e06040526002805460ff60a01b1916600360a01b17905534801561002357600080fd5b506040516111cf3803806111cf83398101604081905261004291610231565b836001600160a01b03811661007257604051631e4fbdf760e01b8152600060048201526024015b60405180910390fd5b61007b816101c5565b50600180556001600160a01b038316158015906100a057506001600160a01b03821615155b6100da5760405162461bcd60e51b815260206004820152600b60248201526a5a65726f4164647265737360a81b6044820152606401610069565b6001600160a01b0383811660805282811660a052600280546001600160a01b0319169183169190911790554660c0819052670de0b6b3a764000061011f816064610285565b600160005260036020527fa15bc60c955c405d20d9149c709e2460f1c2d9a497496a7f46004d1772c3054c55610156816032610285565b600260005260036020527fc3a24b0501bd2c13a7e57f2db4369ec4c223447539fc0724a9d55ac4a06ebd4d5561018d816019610285565b600360008190526020527fcbc4e5fb02c3d1de23a9f1e014b4d2ee5aeaea9505df5e855c9210bf472495af55506102b0945050505050565b600080546001600160a01b038381166001600160a01b0319831681178455604051919092169283917f8be0079c531659141344cd1fd0a4f28419497f9722a3daafe3b4186f6b6457e09190a35050565b80516001600160a01b038116811461022c57600080fd5b919050565b6000806000806080858703121561024757600080fd5b61025085610215565b935061025e60208601610215565b925061026c60408601610215565b915061027a60608601610215565b905092959194509250565b80820281158282048414176102aa57634e487b7160e01b600052601160045260246000fd5b92915050565b60805160a05160c051610ebf610310600039600081816101db0152818161047c015261089b01526000818161016501528181610419015281816108380152610a5a015260008181610281015281816103e401526108010152610ebf6000f3fe608060405234801561001057600080fd5b50600436106101005760003560e01c80639a8a059211610097578063f0b7db4e11610066578063f0b7db4e1461027c578063f19a0b54146102a3578063f2fde38b146102b6578063fd922a42146102c957600080fd5b80639a8a0592146101d65780639b317cc41461020b578063d01a1dde1461022b578063dfcae6221461023e57600080fd5b806376cdb03b116100d357806376cdb03b1461016057806380033daf1461019f5780638da5cb5b146101b257806394a9cf83146101c357600080fd5b8063477e292d14610105578063602d9b3414610130578063715018a61461014557806371ed57b21461014d575b600080fd5b60025461011990600160a01b900460ff1681565b60405160ff90911681526020015b60405180910390f35b61014361013e366004610c81565b6102dc565b005b610143610392565b61014361015b366004610ca3565b6103a6565b6101877f000000000000000000000000000000000000000000000000000000000000000081565b6040516001600160a01b039091168152602001610127565b6101436101ad366004610ccf565b6104e4565b6000546001600160a01b0316610187565b6101436101d1366004610d45565b610581565b6101fd7f000000000000000000000000000000000000000000000000000000000000000081565b604051908152602001610127565b6101fd610219366004610c81565b60036020526000908152604090205481565b610143610239366004610dcb565b61071e565b61026c61024c366004610e09565b600460209081526000928352604080842090915290825290205460ff1681565b6040519015158152602001610127565b6101877f000000000000000000000000000000000000000000000000000000000000000081565b6101436102b1366004610e39565b61090d565b6101436102c4366004610e39565b610971565b600254610187906001600160a01b031681565b6102e46109af565b60018160ff16101561032a5760405162461bcd60e51b815260206004820152600a602482015269092dcecc2d8d2c89ac2f60b31b60448201526064015b60405180910390fd5b6002546040805160ff600160a01b9093048316815291831660208301527f47552e87e8e940dd63e27ef3386b15d76c81dda95eb2471f8f42b653eadffae7910160405180910390a16002805460ff909216600160a01b0260ff60a01b19909216919091179055565b61039a6109af565b6103a460006109dc565b565b6103ae610a2c565b6103b6610a56565b60006103c182610b28565b90506103cd8333610bdc565b60405163078d3b7960e01b81526001600160a01b037f000000000000000000000000000000000000000000000000000000000000000081166004830152336024830152604482018390527f0000000000000000000000000000000000000000000000000000000000000000169063078d3b7990606401600060405180830381600087803b15801561045d57600080fd5b505af1158015610471573d6000803e3d6000fd5b5050604080518481527f0000000000000000000000000000000000000000000000000000000000000000602082015286935060ff8616925033917f753abdb4b45b5449f6e5873ea95873469074358c9f92a044c96ced638f7f860f910160405180910390a4506104e060018055565b5050565b6104ec6109af565b60018260ff16101561052e5760405162461bcd60e51b815260206004820152600b60248201526a496e76616c696452616e6b60a81b6044820152606401610321565b60ff821660008181526003602052604090819020839055517f65b21497f270d7aabfee23049bd5fe49bedbd2f3f7ce957e0f7f19044b489106906105759084815260200190565b60405180910390a25050565b6105896109af565b8281146105c95760405162461bcd60e51b815260206004820152600e60248201526d098cadccee8d09ad2e6dac2e8c6d60931b6044820152606401610321565b60005b838110156107175760018585838181106105e8576105e8610e56565b90506020020160208101906105fd9190610c81565b60ff16101561063c5760405162461bcd60e51b815260206004820152600b60248201526a496e76616c696452616e6b60a81b6044820152606401610321565b82828281811061064e5761064e610e56565b905060200201356003600087878581811061066b5761066b610e56565b90506020020160208101906106809190610c81565b60ff1681526020810191909152604001600020558484828181106106a6576106a6610e56565b90506020020160208101906106bb9190610c81565b60ff167f65b21497f270d7aabfee23049bd5fe49bedbd2f3f7ce957e0f7f19044b4891068484848181106106f1576106f1610e56565b9050602002013560405161070791815260200190565b60405180910390a26001016105cc565b5050505050565b6002546001600160a01b031633148061074157506000546001600160a01b031633145b6107805760405162461bcd60e51b815260206004820152601060248201526f2737ba29b2b93b32b927b927bbb732b960811b6044820152606401610321565b610788610a2c565b6001600160a01b0383166107cb5760405162461bcd60e51b815260206004820152600a6024820152692d32b937a83630bcb2b960b11b6044820152606401610321565b6107d3610a56565b60006107de82610b28565b90506107ea8385610bdc565b60405163078d3b7960e01b81526001600160a01b037f0000000000000000000000000000000000000000000000000000000000000000811660048301528581166024830152604482018390527f0000000000000000000000000000000000000000000000000000000000000000169063078d3b7990606401600060405180830381600087803b15801561087c57600080fd5b505af1158015610890573d6000803e3d6000fd5b5050604080518481527f0000000000000000000000000000000000000000000000000000000000000000602082015286935060ff861692506001600160a01b038816917f753abdb4b45b5449f6e5873ea95873469074358c9f92a044c96ced638f7f860f910160405180910390a45061090860018055565b505050565b6109156109af565b6002546040516001600160a01b038084169216907f6379682f9986faf25ab24412b08cf7e5bebecd128d540126cb6c1852fa20f75a90600090a3600280546001600160a01b0319166001600160a01b0392909216919091179055565b6109796109af565b6001600160a01b0381166109a357604051631e4fbdf760e01b815260006004820152602401610321565b6109ac816109dc565b50565b6000546001600160a01b031633146103a45760405163118cdaa760e01b8152336004820152602401610321565b600080546001600160a01b038381166001600160a01b0319831681178455604051919092169283917f8be0079c531659141344cd1fd0a4f28419497f9722a3daafe3b4186f6b6457e09190a35050565b600260015403610a4f57604051633ee5aeb560e01b815260040160405180910390fd5b6002600155565b60007f00000000000000000000000000000000000000000000000000000000000000006001600160a01b031663481c6a756040518163ffffffff1660e01b8152600401602060405180830381865afa158015610ab6573d6000803e3d6000fd5b505050506040513d601f19601f82011682018060405250810190610ada9190610e6c565b90506001600160a01b03811630146109ac5760405162461bcd60e51b815260206004820152601160248201527010985b9ad39bdd105d5d1a1bdc9a5e9959607a1b6044820152606401610321565b600060018260ff1610158015610b4e575060025460ff600160a01b909104811690831611155b610b8b5760405162461bcd60e51b815260206004820152600e60248201526d52616e6b4f75744f6652616e676560901b6044820152606401610321565b5060ff811660009081526003602052604090205480610bd75760405162461bcd60e51b8152602060048201526008602482015267139bd4995dd85c9960c21b6044820152606401610321565b919050565b60008281526004602090815260408083206001600160a01b038516845290915290205460ff1615610c405760405162461bcd60e51b815260206004820152600e60248201526d105b1c9958591e50db185a5b595960921b6044820152606401610321565b60009182526004602090815260408084206001600160a01b0390931684529190529020805460ff19166001179055565b803560ff81168114610bd757600080fd5b600060208284031215610c9357600080fd5b610c9c82610c70565b9392505050565b60008060408385031215610cb657600080fd5b82359150610cc660208401610c70565b90509250929050565b60008060408385031215610ce257600080fd5b610ceb83610c70565b946020939093013593505050565b60008083601f840112610d0b57600080fd5b50813567ffffffffffffffff811115610d2357600080fd5b6020830191508360208260051b8501011115610d3e57600080fd5b9250929050565b60008060008060408587031215610d5b57600080fd5b843567ffffffffffffffff811115610d7257600080fd5b610d7e87828801610cf9565b909550935050602085013567ffffffffffffffff811115610d9e57600080fd5b610daa87828801610cf9565b95989497509550505050565b6001600160a01b03811681146109ac57600080fd5b600080600060608486031215610de057600080fd5b8335610deb81610db6565b925060208401359150610e0060408501610c70565b90509250925092565b60008060408385031215610e1c57600080fd5b823591506020830135610e2e81610db6565b809150509250929050565b600060208284031215610e4b57600080fd5b8135610c9c81610db6565b634e487b7160e01b600052603260045260246000fd5b600060208284031215610e7e57600080fd5b8151610c9c81610db656fea264697066735822122026f21d055c43ab7d439ac05b30ce01dca7555cf7043026ad11f192c004c886be64736f6c634300081c0033",
  "linkReferences": {},
  "deployedLinkReferences": {}
}