{
  "address": "0xBb57bCCE28BDb523f57c15831bf36A202e8c9b37",
  "abi": [
    {
      "inputs": [
        {
          "internalType": "address",
          "name": "_owner",
          "type": "address"
        }
      ],
      "stateMutability": "nonpayable",
      "type": "constructor"
    },
    {
      "anonymous": false,
      "inputs": [
        {
          "indexed": true,
          "internalType": "address",
          "name": "miner",
          "type": "address"
        },
        {
          "indexed": false,
          "internalType": "uint256",
          "name": "completionTime",
          "type": "uint256"
        }
      ],
      "name": "MiningCompleted",
      "type": "event"
    },
    {
      "anonymous": false,
      "inputs": [
        {
          "indexed": true,
          "internalType": "address",
          "name": "miner",
          "type": "address"
        },
        {
          "indexed": false,
          "internalType": "uint256",
          "name": "claimTime",
          "type": "uint256"
        }
      ],
      "name": "MiningStarted",
      "type": "event"
    },
    {
      "inputs": [],
      "name": "CLAIM_PERIOD",
      "outputs": [
        {
          "internalType": "uint256",
          "name": "",
          "type": "uint256"
        }
      ],
      "stateMutability": "view",
      "type": "function"
    },
    {
      "inputs": [],
      "name": "claimTime",
      "outputs": [
        {
          "internalType": "uint256",
          "name": "",
          "type": "uint256"
        }
      ],
      "stateMutability": "view",
      "type": "function"
    },
    {
      "inputs": [],
      "name": "completeMine",
      "outputs": [],
      "stateMutability": "nonpayable",
      "type": "function"
    },
    {
      "inputs": [],
      "name": "isMiningStarted",
      "outputs": [
        {
          "internalType": "bool",
          "name": "",
          "type": "bool"
        }
      ],
      "stateMutability": "view",
      "type": "function"
    },
    {
      "inputs": [],
      "name": "owner",
      "outputs": [
        {
          "internalType": "address",
          "name": "",
          "type": "address"
        }
      ],
      "stateMutability": "view",
      "type": "function"
    },
    {
      "inputs": [],
      "name": "startMine",
      "outputs": [],
      "stateMutability": "nonpayable",
      "type": "function"
    },
    {
      "stateMutability": "payable",
      "type": "receive"
    }
  ],
  "transactionHash": "0x92523d5229da5e83f02e27987e7dabea6fc9665c2bd673a6a39f47159d6a9216",
  "args": [
    "0xeb981047dC92C0C408f283a8B424d10d6cf6ff8D"
  ],
  "numDeployments": 1,
  "solcInputHash": "fbe5490b99a9ebed2425bd2de63eb1a0",
  "bytecode": "0x60a06040526000805460ff1916815560015534801561001d57600080fd5b5060405161053f38038061053f83398101604081905261003c9161004d565b6001600160a01b031660805261007d565b60006020828403121561005f57600080fd5b81516001600160a01b038116811461007657600080fd5b9392505050565b6080516104a8610097600039600060f601526104a86000f3fe6080604052600436106100595760003560e01c80630f5079831461006557806321241dfe1461009457806327b3bf11146100b7578063824814ef146100cd5780638da5cb5b146100e4578063ed73ee251461013057600080fd5b3661006057005b600080fd5b34801561007157600080fd5b5060005461007f9060ff1681565b60405190151581526020015b60405180910390f35b3480156100a057600080fd5b506100a9600a81565b60405190815260200161008b565b3480156100c357600080fd5b506100a960015481565b3480156100d957600080fd5b506100e2610145565b005b3480156100f057600080fd5b506101187f000000000000000000000000000000000000000000000000000000000000000081565b6040516001600160a01b03909116815260200161008b565b34801561013c57600080fd5b506100e2610272565b60005460ff1661019c5760405162461bcd60e51b815260206004820152601a60248201527f4d696e696e6720686173206e6f7420737461727465642079657400000000000060448201526064015b60405180910390fd5b6001544210156101ee5760405162461bcd60e51b815260206004820152601f60248201527f436c61696d20706572696f6420686173206e6f742070617373656420796574006044820152606401610193565b61022e6040518060400160405280601c81526020017f4d696e696e6720636f6d706c65746564206279202573206174202573000000008152503342610342565b60405142815233907ff5fe99eae6f3a43a5b7caedc1c3738701929b94183f3caba206f95c2bf43b8ab9060200160405180910390a26000805460ff19168155600155565b60005460ff16156102c55760405162461bcd60e51b815260206004820152601a60248201527f4d696e696e672068617320616c726561647920737461727465640000000000006044820152606401610193565b6000805460ff191660011790556102dd600a426103bb565b6001819055506103086040518060600160405280602a8152602001610449602a913933600154610342565b60015460405190815233907f371d1d217e089d8abb6eb4453f63564ad157fa1e149bfc4f8348d4496d82406a9060200160405180910390a2565b61038983838360405160240161035a939291906103e2565b60408051601f198184030181529190526020810180516001600160e01b0316630d26b92560e01b17905261038e565b505050565b6103978161039a565b50565b60006a636f6e736f6c652e6c6f679050600080835160208501845afa505050565b808201808211156103dc57634e487b7160e01b600052601160045260246000fd5b92915050565b606081526000845180606084015260005b8181101561041057602081880181015160808684010152016103f3565b50600060808285018101919091526001600160a01b03959095166020840152604083019390935250601f909101601f1916010191905056fe4d696e696e6720737461727465642062792025732c20636c61696d2074696d652073657420746f202573a2646970667358221220e624d2289bc7ead7b5723da7b2f0d2064367310e7c7a8925e7a8632f88a8048e64736f6c63430008140033",
  "devdoc": {
    "author": "BuidlGuidl",
    "kind": "dev",
    "methods": {},
    "version": 1
  },
  "userdoc": {
    "kind": "user",
    "methods": {
      "completeMine()": {
        "notice": "Function that allows anyone to complete mining Can only be called if mining has started and the claim period has passed"
      },
      "startMine()": {
        "notice": "Function that allows anyone to start mining Can only be called if mining hasn't started yet Sets the claim time to 10 seconds from now"
      }
    },
    "notice": "A smart contract that allows users to start mining and complete mining after a claim period",
    "version": 1
  },
  "storageLayout": {
    "storage": [
      {
        "astId": 8,
        "contract": "contracts/Miner.sol:Miner",
        "label": "isMiningStarted",
        "offset": 0,
        "slot": "0",
        "type": "t_bool"
      },
      {
        "astId": 11,
        "contract": "contracts/Miner.sol:Miner",
        "label": "claimTime",
        "offset": 0,
        "slot": "1",
        "type": "t_uint256"
      }
    ],
    "types": {
      "t_bool": {
        "encoding": "inplace",
        "label": "bool",
        "numberOfBytes": "1"
      },
      "t_uint256": {
        "encoding": "inplace",
        "label": "uint256",
        "numberOfBytes": "32"
      }
    }
  }
}