{
  "_format": "hh-sol-artifact-1",
  "contractName": "GameReward",
  "sourceName": "contracts/GameReward.sol",
  "abi": [
    {
      "inputs": [
        {
          "internalType": "address",
          "name": "diamondToken",
          "type": "address"
        }
      ],
      "stateMutability": "nonpayable",
      "type": "constructor"
    },
    {
      "inputs": [],
      "name": "InvalidRank",
      "type": "error"
    },
    {
      "inputs": [],
      "name": "ReentrancyGuardReentrantCall",
      "type": "error"
    },
    {
      "inputs": [
        {
          "internalType": "address",
          "name": "token",
          "type": "address"
        }
      ],
      "name": "SafeERC20FailedOperation",
      "type": "error"
    },
    {
      "anonymous": false,
      "inputs": [
        {
          "indexed": true,
          "internalType": "address",
          "name": "player",
          "type": "address"
        },
        {
          "indexed": true,
          "internalType": "uint8",
          "name": "rank",
          "type": "uint8"
        },
        {
          "indexed": false,
          "internalType": "uint256",
          "name": "amount",
          "type": "uint256"
        }
      ],
      "name": "RewardClaimed",
      "type": "event"
    },
    {
      "inputs": [
        {
          "internalType": "uint8",
          "name": "rank",
          "type": "uint8"
        }
      ],
      "name": "claimReward",
      "outputs": [],
      "stateMutability": "nonpayable",
      "type": "function"
    },
    {
      "inputs": [],
      "name": "contractDiamondBalance",
      "outputs": [
        {
          "internalType": "uint256",
          "name": "",
          "type": "uint256"
        }
      ],
      "stateMutability": "view",
      "type": "function"
    },
    {
      "inputs": [],
      "name": "diamond",
      "outputs": [
        {
          "internalType": "contract IERC20",
          "name": "",
          "type": "address"
        }
      ],
      "stateMutability": "view",
      "type": "function"
    },
    {
      "inputs": [],
      "name": "diamondDecimals",
      "outputs": [
        {
          "internalType": "uint8",
          "name": "",
          "type": "uint8"
        }
      ],
      "stateMutability": "view",
      "type": "function"
    }
  ],
  "bytecode": "0x60e060405234801561001057600080fd5b506040516106fb3803806106fb83398101604081905261002f91610132565b60016000556001600160a01b03811661008e5760405162461bcd60e51b815260206004820152601560248201527f4469616d6f6e6420746f6b656e206973207a65726f0000000000000000000000604482015260640160405180910390fd5b806001600160a01b03166080816001600160a01b0316815250506000816001600160a01b031663313ce5676040518163ffffffff1660e01b8152600401602060405180830381865afa925050508015610104575060408051601f3d908101601f1916820190925261010191810190610162565b60015b61011057506012610113565b90505b60ff811660a081905261012790600a610284565b60c052506102909050565b60006020828403121561014457600080fd5b81516001600160a01b038116811461015b57600080fd5b9392505050565b60006020828403121561017457600080fd5b815160ff8116811461015b57600080fd5b634e487b7160e01b600052601160045260246000fd5b6001815b60018411156101d6578085048111156101ba576101ba610185565b60018416156101c857908102905b60019390931c92800261019f565b935093915050565b6000826101ed5750600161027e565b816101fa5750600061027e565b8160018114610210576002811461021a57610236565b600191505061027e565b60ff84111561022b5761022b610185565b50506001821b61027e565b5060208310610133831016604e8410600b8410161715610259575081810a61027e565b610266600019848461019b565b806000190482111561027a5761027a610185565b0290505b92915050565b600061015b83836101de565b60805160a05160c0516104306102cb60003960006101ec01526000608601526000818160bf01528181610111015261022001526104306000f3fe608060405234801561001057600080fd5b506004361061004c5760003560e01c80633b59fce114610051578063689f16231461006c578063a57fe76114610081578063f0b7db4e146100ba575b600080fd5b6100596100f9565b6040519081526020015b60405180910390f35b61007f61007a36600461038c565b610189565b005b6100a87f000000000000000000000000000000000000000000000000000000000000000081565b60405160ff9091168152602001610063565b6100e17f000000000000000000000000000000000000000000000000000000000000000081565b6040516001600160a01b039091168152602001610063565b6040516370a0823160e01b81523060048201526000907f00000000000000000000000000000000000000000000000000000000000000006001600160a01b0316906370a0823190602401602060405180830381865afa158015610160573d6000803e3d6000fd5b505050506040513d601f19601f8201168201806040525081019061018491906103b6565b905090565b610191610290565b60008160ff166001036101a6575060646101e5565b8160ff166002036101b9575060326101e5565b8160ff166003036101cc575060196101e5565b6040516302ba562960e61b815260040160405180910390fd5b60006102117f0000000000000000000000000000000000000000000000000000000000000000836103cf565b90506102476001600160a01b037f00000000000000000000000000000000000000000000000000000000000000001633836102ba565b60405181815260ff84169033907f889047e3a24dbcfa359bc1ed9fefeae51ca3d0e7ec4bc9db63eec5e3095493da9060200160405180910390a3505061028d6001600055565b50565b6002600054036102b357604051633ee5aeb560e01b815260040160405180910390fd5b6002600055565b604080516001600160a01b038416602482015260448082018490528251808303909101815260649091019091526020810180516001600160e01b031663a9059cbb60e01b17905261030c908490610311565b505050565b600080602060008451602086016000885af180610334576040513d6000823e3d81fd5b50506000513d9150811561034c578060011415610359565b6001600160a01b0384163b155b1561038657604051635274afe760e01b81526001600160a01b038516600482015260240160405180910390fd5b50505050565b60006020828403121561039e57600080fd5b813560ff811681146103af57600080fd5b9392505050565b6000602082840312156103c857600080fd5b5051919050565b80820281158282048414176103f457634e487b7160e01b600052601160045260246000fd5b9291505056fea26469706673582212209b9396348e6ab789fd9044a0505f18ac2fc83a7b7e20c79b97371c2c049f068164736f6c634300081c0033",
  "linkReferences": {},
  "deployedLinkReferences": {}
}