{
  "address": "0x28334A579f4d13C1b36b31564cd5faAF1B8fDDf8",
  "abi": [
    {
      "inputs": [],
      "stateMutability": "nonpayable",
      "type": "constructor"
    },
    {
      "inputs": [
        {
          "internalType": "address",
          "name": "owner",
          "type": "address"
        }
      ],
      "name": "OwnableInvalidOwner",
      "type": "error"
    },
    {
      "inputs": [
        {
          "internalType": "address",
          "name": "account",
          "type": "address"
        }
      ],
      "name": "OwnableUnauthorizedAccount",
      "type": "error"
    },
    {
      "anonymous": false,
      "inputs": [
        {
          "indexed": true,
          "internalType": "address",
          "name": "previousOwner",
          "type": "address"
        },
        {
          "indexed": true,
          "internalType": "address",
          "name": "newOwner",
          "type": "address"
        }
      ],
      "name": "OwnershipTransferred",
      "type": "event"
    },
    {
      "inputs": [
        {
          "internalType": "uint256",
          "name": "_eventId",
          "type": "uint256"
        },
        {
          "internalType": "uint256",
          "name": "_marketId",
          "type": "uint256"
        }
      ],
      "name": "bet",
      "outputs": [],
      "stateMutability": "payable",
      "type": "function"
    },
    {
      "inputs": [
        {
          "internalType": "uint256",
          "name": "_eventId",
          "type": "uint256"
        }
      ],
      "name": "claim",
      "outputs": [],
      "stateMutability": "nonpayable",
      "type": "function"
    },
    {
      "inputs": [
        {
          "internalType": "uint256",
          "name": "",
          "type": "uint256"
        }
      ],
      "name": "events",
      "outputs": [
        {
          "internalType": "uint256",
          "name": "id",
          "type": "uint256"
        },
        {
          "internalType": "uint256",
          "name": "start",
          "type": "uint256"
        },
        {
          "internalType": "uint256",
          "name": "end",
          "type": "uint256"
        },
        {
          "internalType": "enum EventStatus",
          "name": "status",
          "type": "uint8"
        },
        {
          "internalType": "uint256",
          "name": "totalPool",
          "type": "uint256"
        },
        {
          "internalType": "uint256",
          "name": "totalParticipants",
          "type": "uint256"
        },
        {
          "internalType": "uint256",
          "name": "resolvedId",
          "type": "uint256"
        }
      ],
      "stateMutability": "view",
      "type": "function"
    },
    {
      "inputs": [
        {
          "internalType": "uint256",
          "name": "_eventId",
          "type": "uint256"
        },
        {
          "internalType": "address",
          "name": "_account",
          "type": "address"
        }
      ],
      "name": "getBetDetails",
      "outputs": [
        {
          "internalType": "uint256",
          "name": "marketId",
          "type": "uint256"
        },
        {
          "internalType": "enum BetStatus",
          "name": "status",
          "type": "uint8"
        },
        {
          "internalType": "uint256",
          "name": "reward",
          "type": "uint256"
        }
      ],
      "stateMutability": "view",
      "type": "function"
    },
    {
      "inputs": [
        {
          "internalType": "uint256",
          "name": "_eventId",
          "type": "uint256"
        }
      ],
      "name": "getEventStatus",
      "outputs": [
        {
          "internalType": "enum EventStatus",
          "name": "",
          "type": "uint8"
        }
      ],
      "stateMutability": "view",
      "type": "function"
    },
    {
      "inputs": [],
      "name": "owner",
      "outputs": [
        {
          "internalType": "address",
          "name": "",
          "type": "address"
        }
      ],
      "stateMutability": "view",
      "type": "function"
    },
    {
      "inputs": [],
      "name": "renounceOwnership",
      "outputs": [],
      "stateMutability": "nonpayable",
      "type": "function"
    },
    {
      "inputs": [
        {
          "internalType": "uint256",
          "name": "_eventId",
          "type": "uint256"
        },
        {
          "internalType": "uint256",
          "name": "_resolvedId",
          "type": "uint256"
        }
      ],
      "name": "resolve",
      "outputs": [],
      "stateMutability": "nonpayable",
      "type": "function"
    },
    {
      "inputs": [],
      "name": "totalClaimed",
      "outputs": [
        {
          "internalType": "uint256",
          "name": "",
          "type": "uint256"
        }
      ],
      "stateMutability": "view",
      "type": "function"
    },
    {
      "inputs": [],
      "name": "totalPool",
      "outputs": [
        {
          "internalType": "uint256",
          "name": "",
          "type": "uint256"
        }
      ],
      "stateMutability": "view",
      "type": "function"
    },
    {
      "inputs": [
        {
          "internalType": "address",
          "name": "newOwner",
          "type": "address"
        }
      ],
      "name": "transferOwnership",
      "outputs": [],
      "stateMutability": "nonpayable",
      "type": "function"
    }
  ],
  "transactionHash": "0x7da39c153ca59fe14506e2b4c45f68e0655f7788738db2650f4abc13c263b4b2",
  "args": [],
  "numDeployments": 3,
  "solcInputHash": "f03cf248b48a97638064bc43d14b2208",
  "bytecode": "0x608060405234801561001057600080fd5b50338061003757604051631e4fbdf760e01b81526000600482015260240160405180910390fd5b61004081610046565b50610096565b600080546001600160a01b038381166001600160a01b0319831681178455604051919092169283917f8be0079c531659141344cd1fd0a4f28419497f9722a3daafe3b4186f6b6457e09190a35050565b610a46806100a56000396000f3fe60806040526004361061009c5760003560e01c80638da5cb5b116100645780638da5cb5b146101a5578063cd60cdbc146101cd578063d1691a6f14610239578063d54ad2a114610259578063ecfb49a31461027d578063f2fde38b1461029357600080fd5b80630b791430146100a1578063379607f51461011a5780633dcec13e1461013c5780636ffcc7191461017d578063715018a614610190575b600080fd5b3480156100ad57600080fd5b506100fe6100bc36600461084a565b6003602081905260009182526040909120805460018201546002830154938301546004840154600585015460079095015493959294929360ff90921692909187565b604051610111979695949392919061088d565b60405180910390f35b34801561012657600080fd5b5061013a61013536600461084a565b6102b3565b005b34801561014857600080fd5b5061017061015736600461084a565b6000908152600360208190526040909120015460ff1690565b60405161011191906108cd565b61013a61018b3660046108e1565b610483565b34801561019c57600080fd5b5061013a61064a565b3480156101b157600080fd5b506000546040516001600160a01b039091168152602001610111565b3480156101d957600080fd5b5061022a6101e836600461091f565b60008281526003602081815260408084206001600160a01b038616855260060190915290912060028101549181015460049091015460ff909116909250925092565b6040516101119392919061094b565b34801561024557600080fd5b5061013a6102543660046108e1565b61065e565b34801561026557600080fd5b5061026f60025481565b604051908152602001610111565b34801561028957600080fd5b5061026f60015481565b34801561029f57600080fd5b5061013a6102ae366004610973565b61078f565b8060016000828152600360208190526040909120015460ff1660018111156102dd576102dd610863565b146103275760405162461bcd60e51b8152602060048201526015602482015274115d995b9d081a5cc81b9bdd081c995cdbdb1d9959605a1b60448201526064015b60405180910390fd5b816001600082815260036020818152604080842033855260060190915290912081015460ff169081111561035d5761035d610863565b146103a05760405162461bcd60e51b815260206004820152601360248201527210995d08185b1c9958591e4818db185a5b5959606a1b604482015260640161031e565b826003600082815260036020818152604080842033855260060190915290912081015460ff16908111156103d6576103d6610863565b036104195760405162461bcd60e51b815260206004820152601360248201527210995d08185b1c9958591e4818db185a5b5959606a1b604482015260640161031e565b600084815260036020908152604080832033808552600690910190925280832060048101549151909391929183156108fc02918491818181858888f1935050505015801561046b573d6000803e3d6000fd5b50506003908101805460ff1916909117905550505050565b81600080828152600360208190526040909120015460ff1660018111156104ac576104ac610863565b146104f05760405162461bcd60e51b81526020600482015260146024820152734576656e74206973206e6f742074726164696e6760601b604482015260640161031e565b60008381526003602090815260408083203384526006019091528120349160038083015460ff169081111561052757610527610863565b0361054b578181600101600082825461054091906109ab565b9091555061061d9050565b6040805160a0810182523381526020810184905290810185905260608101600081526000602091820181905287815260038083526040808320338452600601845291829020845181546001600160a01b0319166001600160a01b0390911617815592840151600180850191909155918401516002840155606084015183820180549193909260ff199092169184908111156105e8576105e8610863565b0217905550608091909101516004909101556000858152600360205260408120600501805491610617836109be565b91905055505b6000858152600360205260408120600401805484929061063e9084906109ab565b90915550505050505050565b6106526107cd565b61065c60006107fa565b565b6106666107cd565b81600080828152600360208190526040909120015460ff16600181111561068f5761068f610863565b146106d35760405162461bcd60e51b81526020600482015260146024820152734576656e74206973206e6f742074726164696e6760601b604482015260640161031e565b60008381526003602081905260408220908101805460ff1916600117905560078101849055905b816005015481101561078857600085815260036020908152604080832033845260060190915290206002810154859003610765576004830154600182015461074290826109d7565b61074c91906109ee565b600482015560038101805460ff19166001179055610775565b60038101805460ff191660021790555b5080610780816109be565b9150506106fa565b5050505050565b6107976107cd565b6001600160a01b0381166107c157604051631e4fbdf760e01b81526000600482015260240161031e565b6107ca816107fa565b50565b6000546001600160a01b0316331461065c5760405163118cdaa760e01b815233600482015260240161031e565b600080546001600160a01b038381166001600160a01b0319831681178455604051919092169283917f8be0079c531659141344cd1fd0a4f28419497f9722a3daafe3b4186f6b6457e09190a35050565b60006020828403121561085c57600080fd5b5035919050565b634e487b7160e01b600052602160045260246000fd5b6002811061088957610889610863565b9052565b878152602081018790526040810186905260e081016108af6060830187610879565b8460808301528360a08301528260c083015298975050505050505050565b602081016108db8284610879565b92915050565b600080604083850312156108f457600080fd5b50508035926020909101359150565b80356001600160a01b038116811461091a57600080fd5b919050565b6000806040838503121561093257600080fd5b8235915061094260208401610903565b90509250929050565b838152606081016004841061096257610962610863565b602082019390935260400152919050565b60006020828403121561098557600080fd5b61098e82610903565b9392505050565b634e487b7160e01b600052601160045260246000fd5b808201808211156108db576108db610995565b6000600182016109d0576109d0610995565b5060010190565b80820281158282048414176108db576108db610995565b600082610a0b57634e487b7160e01b600052601260045260246000fd5b50049056fea26469706673582212208de5b5c9aa835472ed80fbfbfd70114c107d01976abe447eb882bfac37d784d864736f6c63430008140033",
  "devdoc": {
    "errors": {
      "OwnableInvalidOwner(address)": [
        {
          "details": "The owner is not a valid owner account. (eg. `address(0)`)"
        }
      ],
      "OwnableUnauthorizedAccount(address)": [
        {
          "details": "The caller account is not authorized to perform an operation."
        }
      ]
    },
    "kind": "dev",
    "methods": {
      "owner()": {
        "details": "Returns the address of the current owner."
      },
      "renounceOwnership()": {
        "details": "Leaves the contract without owner. It will not be possible to call `onlyOwner` functions. Can only be called by the current owner. NOTE: Renouncing ownership will leave the contract without an owner, thereby disabling any functionality that is only available to the owner."
      },
      "transferOwnership(address)": {
        "details": "Transfers ownership of the contract to a new account (`newOwner`). Can only be called by the current owner."
      }
    },
    "version": 1
  },
  "userdoc": {
    "kind": "user",
    "methods": {},
    "version": 1
  },
  "storageLayout": {
    "storage": [
      {
        "astId": 8,
        "contract": "contracts/NadxPrediction.sol:NadxPrediction",
        "label": "_owner",
        "offset": 0,
        "slot": "0",
        "type": "t_address"
      },
      {
        "astId": 200,
        "contract": "contracts/NadxPrediction.sol:NadxPrediction",
        "label": "totalPool",
        "offset": 0,
        "slot": "1",
        "type": "t_uint256"
      },
      {
        "astId": 202,
        "contract": "contracts/NadxPrediction.sol:NadxPrediction",
        "label": "totalClaimed",
        "offset": 0,
        "slot": "2",
        "type": "t_uint256"
      },
      {
        "astId": 240,
        "contract": "contracts/NadxPrediction.sol:NadxPrediction",
        "label": "events",
        "offset": 0,
        "slot": "3",
        "type": "t_mapping(t_uint256,t_struct(Event)223_storage)"
      }
    ],
    "types": {
      "t_address": {
        "encoding": "inplace",
        "label": "address",
        "numberOfBytes": "20"
      },
      "t_enum(BetStatus)188": {
        "encoding": "inplace",
        "label": "enum BetStatus",
        "numberOfBytes": "1"
      },
      "t_enum(EventStatus)183": {
        "encoding": "inplace",
        "label": "enum EventStatus",
        "numberOfBytes": "1"
      },
      "t_mapping(t_address,t_struct(Bet)235_storage)": {
        "encoding": "mapping",
        "key": "t_address",
        "label": "mapping(address => struct NadxPrediction.Bet)",
        "numberOfBytes": "32",
        "value": "t_struct(Bet)235_storage"
      },
      "t_mapping(t_uint256,t_struct(Event)223_storage)": {
        "encoding": "mapping",
        "key": "t_uint256",
        "label": "mapping(uint256 => struct NadxPrediction.Event)",
        "numberOfBytes": "32",
        "value": "t_struct(Event)223_storage"
      },
      "t_struct(Bet)235_storage": {
        "encoding": "inplace",
        "label": "struct NadxPrediction.Bet",
        "members": [
          {
            "astId": 225,
            "contract": "contracts/NadxPrediction.sol:NadxPrediction",
            "label": "user",
            "offset": 0,
            "slot": "0",
            "type": "t_address"
          },
          {
            "astId": 227,
            "contract": "contracts/NadxPrediction.sol:NadxPrediction",
            "label": "amount",
            "offset": 0,
            "slot": "1",
            "type": "t_uint256"
          },
          {
            "astId": 229,
            "contract": "contracts/NadxPrediction.sol:NadxPrediction",
            "label": "marketId",
            "offset": 0,
            "slot": "2",
            "type": "t_uint256"
          },
          {
            "astId": 232,
            "contract": "contracts/NadxPrediction.sol:NadxPrediction",
            "label": "status",
            "offset": 0,
            "slot": "3",
            "type": "t_enum(BetStatus)188"
          },
          {
            "astId": 234,
            "contract": "contracts/NadxPrediction.sol:NadxPrediction",
            "label": "reward",
            "offset": 0,
            "slot": "4",
            "type": "t_uint256"
          }
        ],
        "numberOfBytes": "160"
      },
      "t_struct(Event)223_storage": {
        "encoding": "inplace",
        "label": "struct NadxPrediction.Event",
        "members": [
          {
            "astId": 204,
            "contract": "contracts/NadxPrediction.sol:NadxPrediction",
            "label": "id",
            "offset": 0,
            "slot": "0",
            "type": "t_uint256"
          },
          {
            "astId": 206,
            "contract": "contracts/NadxPrediction.sol:NadxPrediction",
            "label": "start",
            "offset": 0,
            "slot": "1",
            "type": "t_uint256"
          },
          {
            "astId": 208,
            "contract": "contracts/NadxPrediction.sol:NadxPrediction",
            "label": "end",
            "offset": 0,
            "slot": "2",
            "type": "t_uint256"
          },
          {
            "astId": 211,
            "contract": "contracts/NadxPrediction.sol:NadxPrediction",
            "label": "status",
            "offset": 0,
            "slot": "3",
            "type": "t_enum(EventStatus)183"
          },
          {
            "astId": 213,
            "contract": "contracts/NadxPrediction.sol:NadxPrediction",
            "label": "totalPool",
            "offset": 0,
            "slot": "4",
            "type": "t_uint256"
          },
          {
            "astId": 215,
            "contract": "contracts/NadxPrediction.sol:NadxPrediction",
            "label": "totalParticipants",
            "offset": 0,
            "slot": "5",
            "type": "t_uint256"
          },
          {
            "astId": 220,
            "contract": "contracts/NadxPrediction.sol:NadxPrediction",
            "label": "bets",
            "offset": 0,
            "slot": "6",
            "type": "t_mapping(t_address,t_struct(Bet)235_storage)"
          },
          {
            "astId": 222,
            "contract": "contracts/NadxPrediction.sol:NadxPrediction",
            "label": "resolvedId",
            "offset": 0,
            "slot": "7",
            "type": "t_uint256"
          }
        ],
        "numberOfBytes": "256"
      },
      "t_uint256": {
        "encoding": "inplace",
        "label": "uint256",
        "numberOfBytes": "32"
      }
    }
  }
}