{
  "_format": "hh-sol-artifact-1",
  "contractName": "BaseGameNFT",
  "sourceName": "contracts/NFTs/BaseGameNFT.sol",
  "abi": [
    {
      "inputs": [
        {
          "internalType": "address",
          "name": "owner_",
          "type": "address"
        },
        {
          "internalType": "string",
          "name": "name_",
          "type": "string"
        },
        {
          "internalType": "string",
          "name": "symbol_",
          "type": "string"
        },
        {
          "internalType": "string",
          "name": "baseURI_",
          "type": "string"
        }
      ],
      "stateMutability": "nonpayable",
      "type": "constructor"
    },
    {
      "inputs": [],
      "name": "ERC721EnumerableForbiddenBatchMint",
      "type": "error"
    },
    {
      "inputs": [
        {
          "internalType": "address",
          "name": "sender",
          "type": "address"
        },
        {
          "internalType": "uint256",
          "name": "tokenId",
          "type": "uint256"
        },
        {
          "internalType": "address",
          "name": "owner",
          "type": "address"
        }
      ],
      "name": "ERC721IncorrectOwner",
      "type": "error"
    },
    {
      "inputs": [
        {
          "internalType": "address",
          "name": "operator",
          "type": "address"
        },
        {
          "internalType": "uint256",
          "name": "tokenId",
          "type": "uint256"
        }
      ],
      "name": "ERC721InsufficientApproval",
      "type": "error"
    },
    {
      "inputs": [
        {
          "internalType": "address",
          "name": "approver",
          "type": "address"
        }
      ],
      "name": "ERC721InvalidApprover",
      "type": "error"
    },
    {
      "inputs": [
        {
          "internalType": "address",
          "name": "operator",
          "type": "address"
        }
      ],
      "name": "ERC721InvalidOperator",
      "type": "error"
    },
    {
      "inputs": [
        {
          "internalType": "address",
          "name": "owner",
          "type": "address"
        }
      ],
      "name": "ERC721InvalidOwner",
      "type": "error"
    },
    {
      "inputs": [
        {
          "internalType": "address",
          "name": "receiver",
          "type": "address"
        }
      ],
      "name": "ERC721InvalidReceiver",
      "type": "error"
    },
    {
      "inputs": [
        {
          "internalType": "address",
          "name": "sender",
          "type": "address"
        }
      ],
      "name": "ERC721InvalidSender",
      "type": "error"
    },
    {
      "inputs": [
        {
          "internalType": "uint256",
          "name": "tokenId",
          "type": "uint256"
        }
      ],
      "name": "ERC721NonexistentToken",
      "type": "error"
    },
    {
      "inputs": [
        {
          "internalType": "address",
          "name": "owner",
          "type": "address"
        },
        {
          "internalType": "uint256",
          "name": "index",
          "type": "uint256"
        }
      ],
      "name": "ERC721OutOfBoundsIndex",
      "type": "error"
    },
    {
      "inputs": [
        {
          "internalType": "address",
          "name": "owner",
          "type": "address"
        }
      ],
      "name": "OwnableInvalidOwner",
      "type": "error"
    },
    {
      "inputs": [
        {
          "internalType": "address",
          "name": "account",
          "type": "address"
        }
      ],
      "name": "OwnableUnauthorizedAccount",
      "type": "error"
    },
    {
      "anonymous": false,
      "inputs": [
        {
          "indexed": true,
          "internalType": "address",
          "name": "owner",
          "type": "address"
        },
        {
          "indexed": true,
          "internalType": "address",
          "name": "approved",
          "type": "address"
        },
        {
          "indexed": true,
          "internalType": "uint256",
          "name": "tokenId",
          "type": "uint256"
        }
      ],
      "name": "Approval",
      "type": "event"
    },
    {
      "anonymous": false,
      "inputs": [
        {
          "indexed": true,
          "internalType": "address",
          "name": "owner",
          "type": "address"
        },
        {
          "indexed": true,
          "internalType": "address",
          "name": "operator",
          "type": "address"
        },
        {
          "indexed": false,
          "internalType": "bool",
          "name": "approved",
          "type": "bool"
        }
      ],
      "name": "ApprovalForAll",
      "type": "event"
    },
    {
      "anonymous": false,
      "inputs": [
        {
          "indexed": false,
          "internalType": "uint256",
          "name": "_fromTokenId",
          "type": "uint256"
        },
        {
          "indexed": false,
          "internalType": "uint256",
          "name": "_toTokenId",
          "type": "uint256"
        }
      ],
      "name": "BatchMetadataUpdate",
      "type": "event"
    },
    {
      "anonymous": false,
      "inputs": [
        {
          "indexed": false,
          "internalType": "uint256",
          "name": "_tokenId",
          "type": "uint256"
        }
      ],
      "name": "MetadataUpdate",
      "type": "event"
    },
    {
      "anonymous": false,
      "inputs": [
        {
          "indexed": true,
          "internalType": "address",
          "name": "previousOwner",
          "type": "address"
        },
        {
          "indexed": true,
          "internalType": "address",
          "name": "newOwner",
          "type": "address"
        }
      ],
      "name": "OwnershipTransferred",
      "type": "event"
    },
    {
      "anonymous": false,
      "inputs": [
        {
          "indexed": true,
          "internalType": "address",
          "name": "from",
          "type": "address"
        },
        {
          "indexed": true,
          "internalType": "address",
          "name": "to",
          "type": "address"
        },
        {
          "indexed": true,
          "internalType": "uint256",
          "name": "tokenId",
          "type": "uint256"
        }
      ],
      "name": "Transfer",
      "type": "event"
    },
    {
      "inputs": [
        {
          "internalType": "address",
          "name": "to",
          "type": "address"
        },
        {
          "internalType": "uint256",
          "name": "tokenId",
          "type": "uint256"
        }
      ],
      "name": "approve",
      "outputs": [],
      "stateMutability": "nonpayable",
      "type": "function"
    },
    {
      "inputs": [
        {
          "internalType": "address",
          "name": "owner",
          "type": "address"
        }
      ],
      "name": "balanceOf",
      "outputs": [
        {
          "internalType": "uint256",
          "name": "",
          "type": "uint256"
        }
      ],
      "stateMutability": "view",
      "type": "function"
    },
    {
      "inputs": [
        {
          "internalType": "uint256",
          "name": "tokenId",
          "type": "uint256"
        }
      ],
      "name": "getApproved",
      "outputs": [
        {
          "internalType": "address",
          "name": "",
          "type": "address"
        }
      ],
      "stateMutability": "view",
      "type": "function"
    },
    {
      "inputs": [
        {
          "internalType": "address",
          "name": "owner",
          "type": "address"
        }
      ],
      "name": "getTokensOfOwner",
      "outputs": [
        {
          "internalType": "uint256[]",
          "name": "",
          "type": "uint256[]"
        }
      ],
      "stateMutability": "view",
      "type": "function"
    },
    {
      "inputs": [
        {
          "internalType": "address",
          "name": "owner",
          "type": "address"
        },
        {
          "internalType": "address",
          "name": "operator",
          "type": "address"
        }
      ],
      "name": "isApprovedForAll",
      "outputs": [
        {
          "internalType": "bool",
          "name": "",
          "type": "bool"
        }
      ],
      "stateMutability": "view",
      "type": "function"
    },
    {
      "inputs": [
        {
          "internalType": "address",
          "name": "to",
          "type": "address"
        },
        {
          "internalType": "string",
          "name": "tokenURISuffix",
          "type": "string"
        }
      ],
      "name": "mint",
      "outputs": [
        {
          "internalType": "uint256",
          "name": "tokenId",
          "type": "uint256"
        }
      ],
      "stateMutability": "nonpayable",
      "type": "function"
    },
    {
      "inputs": [],
      "name": "name",
      "outputs": [
        {
          "internalType": "string",
          "name": "",
          "type": "string"
        }
      ],
      "stateMutability": "view",
      "type": "function"
    },
    {
      "inputs": [],
      "name": "nextId",
      "outputs": [
        {
          "internalType": "uint256",
          "name": "",
          "type": "uint256"
        }
      ],
      "stateMutability": "view",
      "type": "function"
    },
    {
      "inputs": [],
      "name": "owner",
      "outputs": [
        {
          "internalType": "address",
          "name": "",
          "type": "address"
        }
      ],
      "stateMutability": "view",
      "type": "function"
    },
    {
      "inputs": [
        {
          "internalType": "uint256",
          "name": "tokenId",
          "type": "uint256"
        }
      ],
      "name": "ownerOf",
      "outputs": [
        {
          "internalType": "address",
          "name": "",
          "type": "address"
        }
      ],
      "stateMutability": "view",
      "type": "function"
    },
    {
      "inputs": [],
      "name": "renounceOwnership",
      "outputs": [],
      "stateMutability": "nonpayable",
      "type": "function"
    },
    {
      "inputs": [
        {
          "internalType": "address",
          "name": "from",
          "type": "address"
        },
        {
          "internalType": "address",
          "name": "to",
          "type": "address"
        },
        {
          "internalType": "uint256",
          "name": "tokenId",
          "type": "uint256"
        }
      ],
      "name": "safeTransferFrom",
      "outputs": [],
      "stateMutability": "nonpayable",
      "type": "function"
    },
    {
      "inputs": [
        {
          "internalType": "address",
          "name": "from",
          "type": "address"
        },
        {
          "internalType": "address",
          "name": "to",
          "type": "address"
        },
        {
          "internalType": "uint256",
          "name": "tokenId",
          "type": "uint256"
        },
        {
          "internalType": "bytes",
          "name": "data",
          "type": "bytes"
        }
      ],
      "name": "safeTransferFrom",
      "outputs": [],
      "stateMutability": "nonpayable",
      "type": "function"
    },
    {
      "inputs": [
        {
          "internalType": "address",
          "name": "operator",
          "type": "address"
        },
        {
          "internalType": "bool",
          "name": "approved",
          "type": "bool"
        }
      ],
      "name": "setApprovalForAll",
      "outputs": [],
      "stateMutability": "nonpayable",
      "type": "function"
    },
    {
      "inputs": [
        {
          "internalType": "string",
          "name": "baseURI_",
          "type": "string"
        }
      ],
      "name": "setBaseURI",
      "outputs": [],
      "stateMutability": "nonpayable",
      "type": "function"
    },
    {
      "inputs": [
        {
          "internalType": "bytes4",
          "name": "interfaceId",
          "type": "bytes4"
        }
      ],
      "name": "supportsInterface",
      "outputs": [
        {
          "internalType": "bool",
          "name": "",
          "type": "bool"
        }
      ],
      "stateMutability": "view",
      "type": "function"
    },
    {
      "inputs": [],
      "name": "symbol",
      "outputs": [
        {
          "internalType": "string",
          "name": "",
          "type": "string"
        }
      ],
      "stateMutability": "view",
      "type": "function"
    },
    {
      "inputs": [
        {
          "internalType": "uint256",
          "name": "index",
          "type": "uint256"
        }
      ],
      "name": "tokenByIndex",
      "outputs": [
        {
          "internalType": "uint256",
          "name": "",
          "type": "uint256"
        }
      ],
      "stateMutability": "view",
      "type": "function"
    },
    {
      "inputs": [
        {
          "internalType": "address",
          "name": "owner",
          "type": "address"
        },
        {
          "internalType": "uint256",
          "name": "index",
          "type": "uint256"
        }
      ],
      "name": "tokenOfOwnerByIndex",
      "outputs": [
        {
          "internalType": "uint256",
          "name": "",
          "type": "uint256"
        }
      ],
      "stateMutability": "view",
      "type": "function"
    },
    {
      "inputs": [
        {
          "internalType": "uint256",
          "name": "tokenId",
          "type": "uint256"
        }
      ],
      "name": "tokenURI",
      "outputs": [
        {
          "internalType": "string",
          "name": "",
          "type": "string"
        }
      ],
      "stateMutability": "view",
      "type": "function"
    },
    {
      "inputs": [],
      "name": "totalSupply",
      "outputs": [
        {
          "internalType": "uint256",
          "name": "",
          "type": "uint256"
        }
      ],
      "stateMutability": "view",
      "type": "function"
    },
    {
      "inputs": [
        {
          "internalType": "address",
          "name": "from",
          "type": "address"
        },
        {
          "internalType": "address",
          "name": "to",
          "type": "address"
        },
        {
          "internalType": "uint256",
          "name": "tokenId",
          "type": "uint256"
        }
      ],
      "name": "transferFrom",
      "outputs": [],
      "stateMutability": "nonpayable",
      "type": "function"
    },
    {
      "inputs": [
        {
          "internalType": "address",
          "name": "newOwner",
          "type": "address"
        }
      ],
      "name": "transferOwnership",
      "outputs": [],
      "stateMutability": "nonpayable",
      "type": "function"
    }
  ],
  "bytecode": "0x608060405234801561001057600080fd5b50604051611e64380380611e6483398101604081905261002f916101a7565b838383600061003e83826102e5565b50600161004b82826102e5565b5050506001600160a01b03811661007c57604051631e4fbdf760e01b81526000600482015260240160405180910390fd5b6100858161009c565b50600d61009282826102e5565b50505050506103a3565b600b80546001600160a01b038381166001600160a01b0319831681179093556040519116919082907f8be0079c531659141344cd1fd0a4f28419497f9722a3daafe3b4186f6b6457e090600090a35050565b634e487b7160e01b600052604160045260246000fd5b600082601f83011261011557600080fd5b81516001600160401b0381111561012e5761012e6100ee565b604051601f8201601f19908116603f011681016001600160401b038111828210171561015c5761015c6100ee565b60405281815283820160200185101561017457600080fd5b60005b8281101561019357602081860181015183830182015201610177565b506000918101602001919091529392505050565b600080600080608085870312156101bd57600080fd5b84516001600160a01b03811681146101d457600080fd5b60208601519094506001600160401b038111156101f057600080fd5b6101fc87828801610104565b604087015190945090506001600160401b0381111561021a57600080fd5b61022687828801610104565b606087015190935090506001600160401b0381111561024457600080fd5b61025087828801610104565b91505092959194509250565b600181811c9082168061027057607f821691505b60208210810361029057634e487b7160e01b600052602260045260246000fd5b50919050565b601f8211156102e057806000526020600020601f840160051c810160208510156102bd5750805b601f840160051c820191505b818110156102dd57600081556001016102c9565b50505b505050565b81516001600160401b038111156102fe576102fe6100ee565b6103128161030c845461025c565b84610296565b6020601f821160018114610346576000831561032e5750848201515b600019600385901b1c1916600184901b1784556102dd565b600084815260208120601f198516915b828110156103765787850151825560209485019460019092019101610356565b50848210156103945786840151600019600387901b60f8161c191681555b50505050600190811b01905550565b611ab2806103b26000396000f3fe608060405234801561001057600080fd5b506004361061014d5760003560e01c806361b8ce8c116100c3578063a22cb4651161007c578063a22cb465146102b0578063b88d4fde146102c3578063c87b56dd146102d6578063d0def521146102e9578063e985e9c5146102fc578063f2fde38b1461030f57600080fd5b806361b8ce8c146102605780636352211e1461026957806370a082311461027c578063715018a61461028f5780638da5cb5b1461029757806395d89b41146102a857600080fd5b806323b872dd1161011557806323b872dd146101e15780632f745c59146101f457806342842e0e146102075780634f6ccce71461021a57806355f804b31461022d5780635de6dc551461024057600080fd5b806301ffc9a71461015257806306fdde031461017a578063081812fc1461018f578063095ea7b3146101ba57806318160ddd146101cf575b600080fd5b6101656101603660046113c4565b610322565b60405190151581526020015b60405180910390f35b610182610333565b6040516101719190611431565b6101a261019d366004611444565b6103c5565b6040516001600160a01b039091168152602001610171565b6101cd6101c8366004611479565b6103ee565b005b6008545b604051908152602001610171565b6101cd6101ef3660046114a3565b6103fd565b6101d3610202366004611479565b61048d565b6101cd6102153660046114a3565b6104f2565b6101d3610228366004611444565b610512565b6101cd61023b366004611529565b61056b565b61025361024e36600461156b565b610580565b6040516101719190611586565b6101d3600c5481565b6101a2610277366004611444565b610618565b6101d361028a36600461156b565b610623565b6101cd61066b565b600b546001600160a01b03166101a2565b61018261067f565b6101cd6102be3660046115c9565b61068e565b6101cd6102d136600461161b565b610699565b6101826102e4366004611444565b6106b1565b6101d36102f73660046116ff565b6106bc565b61016561030a366004611752565b61072d565b6101cd61031d36600461156b565b61075b565b600061032d82610799565b92915050565b60606000805461034290611785565b80601f016020809104026020016040519081016040528092919081815260200182805461036e90611785565b80156103bb5780601f10610390576101008083540402835291602001916103bb565b820191906000526020600020905b81548152906001019060200180831161039e57829003601f168201915b5050505050905090565b60006103d0826107be565b506000828152600460205260409020546001600160a01b031661032d565b6103f98282336107f7565b5050565b6001600160a01b03821661042c57604051633250574960e11b8152600060048201526024015b60405180910390fd5b6000610439838333610804565b9050836001600160a01b0316816001600160a01b031614610487576040516364283d7b60e01b81526001600160a01b0380861660048301526024820184905282166044820152606401610423565b50505050565b600061049883610623565b82106104c95760405163295f44f760e21b81526001600160a01b038416600482015260248101839052604401610423565b506001600160a01b03919091166000908152600660209081526040808320938352929052205490565b61050d83838360405180602001604052806000815250610699565b505050565b600061051d60085490565b82106105465760405163295f44f760e21b81526000600482015260248101839052604401610423565b60088281548110610559576105596117bf565b90600052602060002001549050919050565b610573610819565b600d61050d82848361181c565b6060600061058d83610623565b905060008167ffffffffffffffff8111156105aa576105aa611605565b6040519080825280602002602001820160405280156105d3578160200160208202803683370190505b50905060005b82811015610610576105eb858261048d565b8282815181106105fd576105fd6117bf565b60209081029190910101526001016105d9565b509392505050565b600061032d826107be565b60006001600160a01b03821661064f576040516322718ad960e21b815260006004820152602401610423565b506001600160a01b031660009081526003602052604090205490565b610673610819565b61067d6000610846565b565b60606001805461034290611785565b6103f9338383610898565b6106a48484846103fd565b6104873385858585610937565b606061032d82610a62565b60006106c6610819565b600c600081546106d5906118f2565b918290555090506106e68482610b5e565b6107268184848080601f016020809104026020016040519081016040528093929190818152602001838380828437600092019190915250610b7892505050565b9392505050565b6001600160a01b03918216600090815260056020908152604080832093909416825291909152205460ff1690565b610763610819565b6001600160a01b03811661078d57604051631e4fbdf760e01b815260006004820152602401610423565b61079681610846565b50565b60006001600160e01b03198216632483248360e11b148061032d575061032d82610bc8565b6000818152600260205260408120546001600160a01b03168061032d57604051637e27328960e01b815260048101849052602401610423565b61050d8383836001610bed565b6000610811848484610cf3565b949350505050565b600b546001600160a01b0316331461067d5760405163118cdaa760e01b8152336004820152602401610423565b600b80546001600160a01b038381166001600160a01b0319831681179093556040519116919082907f8be0079c531659141344cd1fd0a4f28419497f9722a3daafe3b4186f6b6457e090600090a35050565b6001600160a01b0382166108ca57604051630b61174360e31b81526001600160a01b0383166004820152602401610423565b6001600160a01b03838116600081815260056020908152604080832094871680845294825291829020805460ff191686151590811790915591519182527f17307eab39ab6107e8899845ad3d59bd9653f200f220920489ca2b5937696c31910160405180910390a3505050565b6001600160a01b0383163b15610a5b57604051630a85bd0160e11b81526001600160a01b0384169063150b7a029061097990889088908790879060040161190b565b6020604051808303816000875af19250505080156109b4575060408051601f3d908101601f191682019092526109b191810190611948565b60015b610a1d573d8080156109e2576040519150601f19603f3d011682016040523d82523d6000602084013e6109e7565b606091505b508051600003610a1557604051633250574960e11b81526001600160a01b0385166004820152602401610423565b805160208201fd5b6001600160e01b03198116630a85bd0160e11b14610a5957604051633250574960e11b81526001600160a01b0385166004820152602401610423565b505b5050505050565b6060610a6d826107be565b506000828152600a602052604081208054610a8790611785565b80601f0160208091040260200160405190810160405280929190818152602001828054610ab390611785565b8015610b005780601f10610ad557610100808354040283529160200191610b00565b820191906000526020600020905b815481529060010190602001808311610ae357829003601f168201915b505050505090506000610b11610dc0565b90508051600003610b23575092915050565b815115610b55578082604051602001610b3d929190611965565b60405160208183030381529060405292505050919050565b61081184610dcf565b6103f9828260405180602001604052806000815250610e36565b6000828152600a60205260409020610b908282611994565b506040518281527ff8e1a15aba9398e019f0b49df1a4fde98ee17ae345cb5f6b5e2c27f5033e8ce79060200160405180910390a15050565b60006001600160e01b0319821663780e9d6360e01b148061032d575061032d82610e4e565b8080610c0157506001600160a01b03821615155b15610cc3576000610c11846107be565b90506001600160a01b03831615801590610c3d5750826001600160a01b0316816001600160a01b031614155b8015610c505750610c4e818461072d565b155b15610c795760405163a9fbf51f60e01b81526001600160a01b0384166004820152602401610423565b8115610cc15783856001600160a01b0316826001600160a01b03167f8c5be1e5ebec7d5bd14f71427d1e84f3dd0314c0f7b2291e5b200ac8c7c3b92560405160405180910390a45b505b5050600090815260046020526040902080546001600160a01b0319166001600160a01b0392909216919091179055565b600080610d01858585610e9e565b90506001600160a01b038116610d5e57610d5984600880546000838152600960205260408120829055600182018355919091527ff3f7a9fe364faab93b216da50a3214154f22a0a2b415b23a84c8169e8b636ee30155565b610d81565b846001600160a01b0316816001600160a01b031614610d8157610d818185610f97565b6001600160a01b038516610d9d57610d9884611018565b610811565b846001600160a01b0316816001600160a01b0316146108115761081185856110c7565b6060600d805461034290611785565b6060610dda826107be565b506000610de5610dc0565b90506000815111610e055760405180602001604052806000815250610726565b80610e0f84611117565b604051602001610e20929190611965565b6040516020818303038152906040529392505050565b610e4083836111aa565b61050d336000858585610937565b60006001600160e01b031982166380ac58cd60e01b1480610e7f57506001600160e01b03198216635b5e139f60e01b145b8061032d57506301ffc9a760e01b6001600160e01b031983161461032d565b6000828152600260205260408120546001600160a01b0390811690831615610ecb57610ecb81848661120f565b6001600160a01b03811615610f0957610ee8600085600080610bed565b6001600160a01b038116600090815260036020526040902080546000190190555b6001600160a01b03851615610f38576001600160a01b0385166000908152600360205260409020805460010190555b60008481526002602052604080822080546001600160a01b0319166001600160a01b0389811691821790925591518793918516917fddf252ad1be2c89b69c2b068fc378daa952ba7f163c4a11628f55a4df523b3ef91a4949350505050565b6000610fa283610623565b6000838152600760209081526040808320546001600160a01b0388168452600690925290912091925090818314610ff957600083815260208281526040808320548584528184208190558352600790915290208290555b6000938452600760209081526040808620869055938552525081205550565b60085460009061102a90600190611a53565b60008381526009602052604081205460088054939450909284908110611052576110526117bf565b906000526020600020015490508060088381548110611073576110736117bf565b60009182526020808320909101929092558281526009909152604080822084905585825281205560088054806110ab576110ab611a66565b6001900381819060005260206000200160009055905550505050565b600060016110d484610623565b6110de9190611a53565b6001600160a01b039093166000908152600660209081526040808320868452825280832085905593825260079052919091209190915550565b6060600061112483611273565b600101905060008167ffffffffffffffff81111561114457611144611605565b6040519080825280601f01601f19166020018201604052801561116e576020820181803683370190505b5090508181016020015b600019016f181899199a1a9b1b9c1cb0b131b232b360811b600a86061a8153600a850494508461117857509392505050565b6001600160a01b0382166111d457604051633250574960e11b815260006004820152602401610423565b60006111e283836000610804565b90506001600160a01b0381161561050d576040516339e3563760e11b815260006004820152602401610423565b61121a83838361134b565b61050d576001600160a01b03831661124857604051637e27328960e01b815260048101829052602401610423565b60405163177e802f60e01b81526001600160a01b038316600482015260248101829052604401610423565b60008072184f03e93ff9f4daa797ed6e38ed64bf6a1f0160401b83106112b25772184f03e93ff9f4daa797ed6e38ed64bf6a1f0160401b830492506040015b6d04ee2d6d415b85acef810000000083106112de576d04ee2d6d415b85acef8100000000830492506020015b662386f26fc1000083106112fc57662386f26fc10000830492506010015b6305f5e1008310611314576305f5e100830492506008015b612710831061132857612710830492506004015b6064831061133a576064830492506002015b600a831061032d5760010192915050565b60006001600160a01b038316158015906108115750826001600160a01b0316846001600160a01b031614806113855750611385848461072d565b806108115750506000908152600460205260409020546001600160a01b03908116911614919050565b6001600160e01b03198116811461079657600080fd5b6000602082840312156113d657600080fd5b8135610726816113ae565b60005b838110156113fc5781810151838201526020016113e4565b50506000910152565b6000815180845261141d8160208601602086016113e1565b601f01601f19169290920160200192915050565b6020815260006107266020830184611405565b60006020828403121561145657600080fd5b5035919050565b80356001600160a01b038116811461147457600080fd5b919050565b6000806040838503121561148c57600080fd5b6114958361145d565b946020939093013593505050565b6000806000606084860312156114b857600080fd5b6114c18461145d565b92506114cf6020850161145d565b929592945050506040919091013590565b60008083601f8401126114f257600080fd5b50813567ffffffffffffffff81111561150a57600080fd5b60208301915083602082850101111561152257600080fd5b9250929050565b6000806020838503121561153c57600080fd5b823567ffffffffffffffff81111561155357600080fd5b61155f858286016114e0565b90969095509350505050565b60006020828403121561157d57600080fd5b6107268261145d565b602080825282518282018190526000918401906040840190835b818110156115be5783518352602093840193909201916001016115a0565b509095945050505050565b600080604083850312156115dc57600080fd5b6115e58361145d565b9150602083013580151581146115fa57600080fd5b809150509250929050565b634e487b7160e01b600052604160045260246000fd5b6000806000806080858703121561163157600080fd5b61163a8561145d565b93506116486020860161145d565b925060408501359150606085013567ffffffffffffffff81111561166b57600080fd5b8501601f8101871361167c57600080fd5b803567ffffffffffffffff81111561169657611696611605565b604051601f8201601f19908116603f0116810167ffffffffffffffff811182821017156116c5576116c5611605565b6040528181528282016020018910156116dd57600080fd5b8160208401602083013760006020838301015280935050505092959194509250565b60008060006040848603121561171457600080fd5b61171d8461145d565b9250602084013567ffffffffffffffff81111561173957600080fd5b611745868287016114e0565b9497909650939450505050565b6000806040838503121561176557600080fd5b61176e8361145d565b915061177c6020840161145d565b90509250929050565b600181811c9082168061179957607f821691505b6020821081036117b957634e487b7160e01b600052602260045260246000fd5b50919050565b634e487b7160e01b600052603260045260246000fd5b601f82111561050d57806000526020600020601f840160051c810160208510156117fc5750805b601f840160051c820191505b81811015610a5b5760008155600101611808565b67ffffffffffffffff83111561183457611834611605565b611848836118428354611785565b836117d5565b6000601f84116001811461187c57600085156118645750838201355b600019600387901b1c1916600186901b178355610a5b565b600083815260209020601f19861690835b828110156118ad578685013582556020948501946001909201910161188d565b50868210156118ca5760001960f88860031b161c19848701351681555b505060018560011b0183555050505050565b634e487b7160e01b600052601160045260246000fd5b600060018201611904576119046118dc565b5060010190565b6001600160a01b038581168252841660208201526040810183905260806060820181905260009061193e90830184611405565b9695505050505050565b60006020828403121561195a57600080fd5b8151610726816113ae565b600083516119778184602088016113e1565b83519083019061198b8183602088016113e1565b01949350505050565b815167ffffffffffffffff8111156119ae576119ae611605565b6119c2816119bc8454611785565b846117d5565b6020601f8211600181146119f657600083156119de5750848201515b600019600385901b1c1916600184901b178455610a5b565b600084815260208120601f198516915b82811015611a265787850151825560209485019460019092019101611a06565b5084821015611a445786840151600019600387901b60f8161c191681555b50505050600190811b01905550565b8181038181111561032d5761032d6118dc565b634e487b7160e01b600052603160045260246000fdfea2646970667358221220659f1c5ed2d1ded9361eea7b964323390079b6b987c034f4fdd32176f41e340b64736f6c634300081c0033",
  "linkReferences": {},
  "deployedLinkReferences": {}
}